[
  {
    "id": 0,
    "description": "Get timestamp",
    "defaultChainId": 1000,
    "forkID": 7,
    "sequencerAddress": "0x617b3a3528F9cDd6630fd3301B9c8911F7Bf063D",
    "sequencerPvtKey": "0x28b2b0318721be8c8339199172cd7cc8f5e273800a35616ec893083a4b32c02e",
    "genesis": [
      {
        "balance": "0",
        "nonce": "0",
        "address": "0x0000000000000000000000000000000000000000"
      },
      {
        "balance": "0",
        "nonce": "0",
        "address": "0xAE4bB80bE56B819606589DE61d5ec3b522EEB032"
      },
      {
        "balance": "100000000000000000000",
        "nonce": "1",
        "address": "0x617b3a3528f9cdd6630fd3301b9c8911f7bf063d",
        "pvtKey": "0x28b2b0318721be8c8339199172cd7cc8f5e273800a35616ec893083a4b32c02e"
      },
      {
        "balance": "0",
        "nonce": "1",
        "address": "0x1275fbb540c8efc58b812ba83b0d0b8b9917ae98",
        "bytecode": "0x608060405234801561001057600080fd5b50600436106100ea5760003560e01c80637e773d9d1161008c578063b6baffe311610066578063b6baffe3146101cb578063d1123dde146101d5578063d1a82a9d146101f3578063e9413d38146101fd576100ea565b80637e773d9d14610171578063ab8fd80c1461018f578063ad357661146101ad576100ea565b80633e7ff47d116100c85780633e7ff47d1461010d57806346f223841461012b5780636d6516c014610149578063773a54d014610153576100ea565b8063188ec356146100ef5780631a93d1c3146100f95780633408e47014610103575b600080fd5b6100f7610219565b005b610101610222565b005b61010b61022b565b005b610115610234565b6040516101229190610380565b60405180910390f35b61013361023a565b6040516101409190610380565b60405180910390f35b610151610240565b005b61015b610249565b604051610168919061034a565b60405180910390f35b61017961026d565b6040516101869190610380565b60405180910390f35b610197610273565b6040516101a49190610365565b60405180910390f35b6101b5610279565b6040516101c29190610380565b60405180910390f35b6101d361027f565b005b6101dd610288565b6040516101ea9190610380565b60405180910390f35b6101fb61028e565b005b610217600480360381019061021291906102f0565b6102d0565b005b42600281905550565b45600581905550565b46600681905550565b60065481565b60045481565b43600381905550565b60008054906101000a900473ffffffffffffffffffffffffffffffffffffffff1681565b60025481565b60015481565b60035481565b44600481905550565b60055481565b416000806101000a81548173ffffffffffffffffffffffffffffffffffffffff021916908373ffffffffffffffffffffffffffffffffffffffff160217905550565b804060018190555050565b6000813590506102ea816103e6565b92915050565b600060208284031215610306576103056103e1565b5b6000610314848285016102db565b91505092915050565b6103268161039b565b82525050565b610335816103ad565b82525050565b610344816103d7565b82525050565b600060208201905061035f600083018461031d565b92915050565b600060208201905061037a600083018461032c565b92915050565b6000602082019050610395600083018461033b565b92915050565b60006103a6826103b7565b9050919050565b6000819050919050565b600073ffffffffffffffffffffffffffffffffffffffff82169050919050565b6000819050919050565b600080fd5b6103ef816103d7565b81146103fa57600080fd5b5056fea2646970667358221220f4bfc35d30f87a35fe2ea61a310a6a573fb75dd9533185535fefecae7354d46764736f6c63430008070033",
        "storage": {},
        "contractName": "BlockInfo"
      },
      {
        "address": "0x4d5Cf5032B2a844602278b01199ED191A86c93ff",
        "pvtKey": "0x4d27a600dce8c29b7bd080e29a26972377dbb04d7a27d919adbb602bf13cfd23",
        "balance": "200000000000000000000",
        "nonce": "0"
      }
    ],
    "expectedOldRoot": "0xf5c30bbb2b8a1bdd2b881cc575b2acbd13578c7cd64250fe8b6770fa95f915b3",
    "oldLocalExitRoot": "0x0000000000000000000000000000000000000000000000000000000000000000",
    "oldAccInputHash": "0x0000000000000000000000000000000000000000000000000000000000000000",
    "batches": [
      {
        "txs": [
          {
            "type": 11,
            "deltaTimestamp": "1",
            "l1Info": {
              "globalExitRoot": "0x16994edfddddb9480667b64174fc00d3b6da7290d37b8db3a16571b4ddf0789f",
              "blockHash": "0x24a5871d68723340d9eadc674aa8ad75f3e33b61d5a9db7db92af856a19270bb",
              "timestamp": "42"
            },
            "indexL1InfoTree": 0,
            "reason": "",
            "customRawTx": "0x0b0000000100000000"
          },
          {
            "from": "0x4d5Cf5032B2a844602278b01199ED191A86c93ff",
            "to": "0x1275fbb540c8efc58b812ba83b0d0b8b9917ae98",
            "nonce": 0,
            "value": "0",
            "contractName": "BlockInfo",
            "function": "getTimestamp",
            "params": [],
            "chainId": 1000,
            "reason": "",
            "gasLimit": 100000,
            "gasPrice": "1000000000",
            "data": "0x188ec356",
            "customRawTx": "0xea80843b9aca00830186a0941275fbb540c8efc58b812ba83b0d0b8b9917ae988084188ec3568203e880800a62ce9876e027f7a954f96c485c63c9bf043bd1fe1012c5634cf959bf7743190a601eedbcfef58146bdda9845fea5d9356b09d667010d557c73f83353a119a61cff",
            "rawTx": "0xf86a80843b9aca00830186a0941275fbb540c8efc58b812ba83b0d0b8b9917ae988084188ec3568207f4a00a62ce9876e027f7a954f96c485c63c9bf043bd1fe1012c5634cf959bf774319a00a601eedbcfef58146bdda9845fea5d9356b09d667010d557c73f83353a119a6"
          },
          {
            "from": "0x4d5Cf5032B2a844602278b01199ED191A86c93ff",
            "to": "0x1275fbb540c8efc58b812ba83b0d0b8b9917ae98",
            "nonce": 1,
            "value": "0",
            "contractName": "BlockInfo",
            "function": "getCoinbase",
            "params": [],
            "chainId": 1000,
            "reason": "",
            "gasLimit": 100000,
            "gasPrice": "1000000000",
            "data": "0xd1a82a9d",
            "customRawTx": "0xea01843b9aca00830186a0941275fbb540c8efc58b812ba83b0d0b8b9917ae988084d1a82a9d8203e880803c696d27506eebe00e52cd1c327eefd2ebb8c7a5d5309118ad18381630b2a5d47971958df81d8daa0d393daddb17a250c294452078db34b22d9e5ee85d2482e81bff",
            "rawTx": "0xf86a01843b9aca00830186a0941275fbb540c8efc58b812ba83b0d0b8b9917ae988084d1a82a9d8207f3a03c696d27506eebe00e52cd1c327eefd2ebb8c7a5d5309118ad18381630b2a5d4a07971958df81d8daa0d393daddb17a250c294452078db34b22d9e5ee85d2482e8"
          },
          {
            "from": "0x4d5Cf5032B2a844602278b01199ED191A86c93ff",
            "to": "0x1275fbb540c8efc58b812ba83b0d0b8b9917ae98",
            "nonce": 2,
            "value": "0",
            "contractName": "BlockInfo",
            "function": "getBatchNumber",
            "params": [],
            "chainId": 1000,
            "reason": "",
            "gasLimit": 100000,
            "gasPrice": "1000000000",
            "data": "0x6d6516c0",
            "customRawTx": "0xea02843b9aca00830186a0941275fbb540c8efc58b812ba83b0d0b8b9917ae9880846d6516c08203e88080db91fc325e867faa9625a5c7c152dfaf207a992b6eea855fcabe264f489b043a431f20ba77bd0269a6aedb6287118d383305d0dd677478209e60f6d3af3b17201cff",
            "rawTx": "0xf86a02843b9aca00830186a0941275fbb540c8efc58b812ba83b0d0b8b9917ae9880846d6516c08207f4a0db91fc325e867faa9625a5c7c152dfaf207a992b6eea855fcabe264f489b043aa0431f20ba77bd0269a6aedb6287118d383305d0dd677478209e60f6d3af3b1720"
          },
          {
            "from": "0x4d5Cf5032B2a844602278b01199ED191A86c93ff",
            "to": "0x1275fbb540c8efc58b812ba83b0d0b8b9917ae98",
            "nonce": 3,
            "value": "0",
            "contractName": "BlockInfo",
            "function": "getDifficulty",
            "params": [],
            "chainId": 1000,
            "reason": "",
            "gasLimit": 100000,
            "gasPrice": "1000000000",
            "data": "0xb6baffe3",
            "customRawTx": "0xea03843b9aca00830186a0941275fbb540c8efc58b812ba83b0d0b8b9917ae988084b6baffe38203e88080e0c0469634b096c3b190713c8a8faa9c4fccc8b2d83cc8da056a897a28a616277c5bf403ce3a4c77cb0c6ca14cdd24d8fa785b4a0bde1500abba55db7df7483a1bff",
            "rawTx": "0xf86a03843b9aca00830186a0941275fbb540c8efc58b812ba83b0d0b8b9917ae988084b6baffe38207f3a0e0c0469634b096c3b190713c8a8faa9c4fccc8b2d83cc8da056a897a28a61627a07c5bf403ce3a4c77cb0c6ca14cdd24d8fa785b4a0bde1500abba55db7df7483a"
          },
          {
            "from": "0x4d5Cf5032B2a844602278b01199ED191A86c93ff",
            "to": "0x1275fbb540c8efc58b812ba83b0d0b8b9917ae98",
            "nonce": 4,
            "value": "0",
            "contractName": "BlockInfo",
            "function": "getGasLimit",
            "params": [],
            "chainId": 1000,
            "reason": "",
            "gasLimit": 100000,
            "gasPrice": "1000000000",
            "data": "0x1a93d1c3",
            "customRawTx": "0xea04843b9aca00830186a0941275fbb540c8efc58b812ba83b0d0b8b9917ae9880841a93d1c38203e8808057c7bfa7288275d862a91776d6d05c2290058a42840f08108b8b157f139120ce565bc8d0b5291e949c1c87e2f829b76d6a5d15e767e61716d1095dcc7cb5b44d1cff",
            "rawTx": "0xf86a04843b9aca00830186a0941275fbb540c8efc58b812ba83b0d0b8b9917ae9880841a93d1c38207f4a057c7bfa7288275d862a91776d6d05c2290058a42840f08108b8b157f139120cea0565bc8d0b5291e949c1c87e2f829b76d6a5d15e767e61716d1095dcc7cb5b44d"
          },
          {
            "from": "0x4d5Cf5032B2a844602278b01199ED191A86c93ff",
            "to": "0x1275fbb540c8efc58b812ba83b0d0b8b9917ae98",
            "nonce": 5,
            "value": "0",
            "contractName": "BlockInfo",
            "function": "getChainId",
            "params": [],
            "chainId": 1000,
            "reason": "",
            "gasLimit": 100000,
            "gasPrice": "1000000000",
            "data": "0x3408e470",
            "customRawTx": "0xea05843b9aca00830186a0941275fbb540c8efc58b812ba83b0d0b8b9917ae9880843408e4708203e88080e255f868a61169a2330cb539671e1a66ee846bc06cc888ea8fcd7ae51cdc62940c6dec27e6f756dd84923bcebb1f85db125299c0b622eaa8d5722cb3dace239d1cff",
            "rawTx": "0xf86a05843b9aca00830186a0941275fbb540c8efc58b812ba83b0d0b8b9917ae9880843408e4708207f4a0e255f868a61169a2330cb539671e1a66ee846bc06cc888ea8fcd7ae51cdc6294a00c6dec27e6f756dd84923bcebb1f85db125299c0b622eaa8d5722cb3dace239d"
          },
          {
            "from": "0x4d5Cf5032B2a844602278b01199ED191A86c93ff",
            "to": "0x1275fbb540c8efc58b812ba83b0d0b8b9917ae98",
            "nonce": 6,
            "value": "0",
            "contractName": "BlockInfo",
            "function": "getBlockhash",
            "params": [
              0
            ],
            "chainId": 1000,
            "reason": "",
            "gasLimit": 100000,
            "gasPrice": "1000000000",
            "data": "0xe9413d380000000000000000000000000000000000000000000000000000000000000000",
            "customRawTx": "0xf84a06843b9aca00830186a0941275fbb540c8efc58b812ba83b0d0b8b9917ae9880a4e9413d3800000000000000000000000000000000000000000000000000000000000000008203e8808098f56115cad149a409a86e7610863248799a31d80e87d46582d08a3c0933a40a25455a74fa3ca2ada0bf39dac88a172d032583bfec15061f39184ef9f70126771cff",
            "rawTx": "0xf88a06843b9aca00830186a0941275fbb540c8efc58b812ba83b0d0b8b9917ae9880a4e9413d3800000000000000000000000000000000000000000000000000000000000000008207f4a098f56115cad149a409a86e7610863248799a31d80e87d46582d08a3c0933a40aa025455a74fa3ca2ada0bf39dac88a172d032583bfec15061f39184ef9f7012677"
          }
        ],
        "expectedNewRoot": "0xbfb64640ff59472e12fda55a3819aa7235c5c4827d6c82f0ef3e7845e18a19bf",
        "expectedNewLeafs": {
          "0x0000000000000000000000000000000000000000": {
            "balance": "0",
            "nonce": "0"
          },
          "0xae4bb80be56b819606589de61d5ec3b522eeb032": {
            "balance": "0",
            "nonce": "0"
          },
          "0x617b3a3528f9cdd6630fd3301b9c8911f7bf063d": {
            "balance": "100000284192000000000",
            "nonce": "1"
          },
          "0x1275fbb540c8efc58b812ba83b0d0b8b9917ae98": {
            "balance": "0",
            "nonce": "1",
            "storage": {
              "0x0000000000000000000000000000000000000000000000000000000000000000": "0x617b3a3528f9cdd6630fd3301b9c8911f7bf063d",
              "0x0000000000000000000000000000000000000000000000000000000000000002": "0x01",
              "0x0000000000000000000000000000000000000000000000000000000000000003": "0x01",
              "0x0000000000000000000000000000000000000000000000000000000000000005": "0xffffffff",
              "0x0000000000000000000000000000000000000000000000000000000000000006": "0x03e8",
              "0x0000000000000000000000000000000000000000000000000000000000000001": "0xf5c30bbb2b8a1bdd2b881cc575b2acbd13578c7cd64250fe8b6770fa95f915b3"
            }
          },
          "0x4d5cf5032b2a844602278b01199ed191a86c93ff": {
            "balance": "199999715808000000000",
            "nonce": "7"
          },
          "0x000000000000000000000000000000005ca1ab1e": {
            "balance": "0",
            "nonce": "0",
            "storage": {
              "0x0000000000000000000000000000000000000000000000000000000000000000": "0x01",
              "0x0000000000000000000000000000000000000000000000000000000000000002": "0x01",
              "0xa6eef7e35abe7026729641147f7915573c7e97b47efa546f5f6e3230263bcb49": "0xf5c30bbb2b8a1bdd2b881cc575b2acbd13578c7cd64250fe8b6770fa95f915b3",
              "0x0000000000000000000000000000000000000000000000000000000000000003": "0xba4664e731b3a45357ae51ffb89244b400830b039385ddc1b1bf26b8f3cb58f5"
            }
          }
        },
        "batchL2Data": "0x0b0000000100000000ea80843b9aca00830186a0941275fbb540c8efc58b812ba83b0d0b8b9917ae988084188ec3568203e880800a62ce9876e027f7a954f96c485c63c9bf043bd1fe1012c5634cf959bf7743190a601eedbcfef58146bdda9845fea5d9356b09d667010d557c73f83353a119a61cffea01843b9aca00830186a0941275fbb540c8efc58b812ba83b0d0b8b9917ae988084d1a82a9d8203e880803c696d27506eebe00e52cd1c327eefd2ebb8c7a5d5309118ad18381630b2a5d47971958df81d8daa0d393daddb17a250c294452078db34b22d9e5ee85d2482e81bffea02843b9aca00830186a0941275fbb540c8efc58b812ba83b0d0b8b9917ae9880846d6516c08203e88080db91fc325e867faa9625a5c7c152dfaf207a992b6eea855fcabe264f489b043a431f20ba77bd0269a6aedb6287118d383305d0dd677478209e60f6d3af3b17201cffea03843b9aca00830186a0941275fbb540c8efc58b812ba83b0d0b8b9917ae988084b6baffe38203e88080e0c0469634b096c3b190713c8a8faa9c4fccc8b2d83cc8da056a897a28a616277c5bf403ce3a4c77cb0c6ca14cdd24d8fa785b4a0bde1500abba55db7df7483a1bffea04843b9aca00830186a0941275fbb540c8efc58b812ba83b0d0b8b9917ae9880841a93d1c38203e8808057c7bfa7288275d862a91776d6d05c2290058a42840f08108b8b157f139120ce565bc8d0b5291e949c1c87e2f829b76d6a5d15e767e61716d1095dcc7cb5b44d1cffea05843b9aca00830186a0941275fbb540c8efc58b812ba83b0d0b8b9917ae9880843408e4708203e88080e255f868a61169a2330cb539671e1a66ee846bc06cc888ea8fcd7ae51cdc62940c6dec27e6f756dd84923bcebb1f85db125299c0b622eaa8d5722cb3dace239d1cfff84a06843b9aca00830186a0941275fbb540c8efc58b812ba83b0d0b8b9917ae9880a4e9413d3800000000000000000000000000000000000000000000000000000000000000008203e8808098f56115cad149a409a86e7610863248799a31d80e87d46582d08a3c0933a40a25455a74fa3ca2ada0bf39dac88a172d032583bfec15061f39184ef9f70126771cff",
        "l1InfoRoot": "0x090bcaf734c4f06c93954a827b45a6e8c67b8e0fd1e0a35a1c5982d6961828f9",
        "newLocalExitRoot": "0x0000000000000000000000000000000000000000000000000000000000000000",
        "batchHashData": "0xf2986c7d178b6a75e0a9ffce2815f03262d5810b8612503dce940ec5969a1aa0",
        "timestampLimit": 1944498040
      },
      {
        "txs": [
          {
            "type": 11,
            "deltaTimestamp": "1944498031",
            "l1Info": {
              "globalExitRoot": "0x16994edfddddb9480667b64174fc00d3b6da7290d37b8db3a16571b4ddf0789f",
              "blockHash": "0x24a5871d68723340d9eadc674aa8ad75f3e33b61d5a9db7db92af856a19270bb",
              "timestamp": "42"
            },
            "indexL1InfoTree": 0,
            "reason": "",
            "customRawTx": "0x0b73e6af6f00000000"
          },
          {
            "from": "0x4d5Cf5032B2a844602278b01199ED191A86c93ff",
            "to": "0x1275fbb540c8efc58b812ba83b0d0b8b9917ae98",
            "nonce": 7,
            "value": "0",
            "contractName": "BlockInfo",
            "function": "getTimestamp",
            "params": [],
            "chainId": 1000,
            "reason": "",
            "gasLimit": 100000,
            "gasPrice": "1000000000",
            "data": "0x188ec356",
            "customRawTx": "0xea07843b9aca00830186a0941275fbb540c8efc58b812ba83b0d0b8b9917ae988084188ec3568203e880800be264304cfc20c400929c82d1435cfbaa18e9a49c34ce65274633820803c415132ab24e00f892d77ad39c87e897772100e3323f31915a3e5eb261e056d99bc31bff",
            "rawTx": "0xf86a07843b9aca00830186a0941275fbb540c8efc58b812ba83b0d0b8b9917ae988084188ec3568207f3a00be264304cfc20c400929c82d1435cfbaa18e9a49c34ce65274633820803c415a0132ab24e00f892d77ad39c87e897772100e3323f31915a3e5eb261e056d99bc3"
          },
          {
            "from": "0x4d5Cf5032B2a844602278b01199ED191A86c93ff",
            "to": "0x1275fbb540c8efc58b812ba83b0d0b8b9917ae98",
            "nonce": 8,
            "value": "0",
            "contractName": "BlockInfo",
            "function": "getCoinbase",
            "params": [],
            "chainId": 1000,
            "reason": "",
            "gasLimit": 100000,
            "gasPrice": "1000000000",
            "data": "0xd1a82a9d",
            "customRawTx": "0xea08843b9aca00830186a0941275fbb540c8efc58b812ba83b0d0b8b9917ae988084d1a82a9d8203e88080775e9a77a45dafb120ec840926129c5db8ad3843722de88f2c7f6df4383c92fe0176dcd120e97ff6a1a1d60150aac3fdbca81bbfd1e2e9349ed9da4fa3bd85a81bff",
            "rawTx": "0xf86a08843b9aca00830186a0941275fbb540c8efc58b812ba83b0d0b8b9917ae988084d1a82a9d8207f3a0775e9a77a45dafb120ec840926129c5db8ad3843722de88f2c7f6df4383c92fea00176dcd120e97ff6a1a1d60150aac3fdbca81bbfd1e2e9349ed9da4fa3bd85a8"
          },
          {
            "from": "0x4d5Cf5032B2a844602278b01199ED191A86c93ff",
            "to": "0x1275fbb540c8efc58b812ba83b0d0b8b9917ae98",
            "nonce": 9,
            "value": "0",
            "contractName": "BlockInfo",
            "function": "getBatchNumber",
            "params": [],
            "chainId": 1000,
            "reason": "",
            "gasLimit": 100000,
            "gasPrice": "1000000000",
            "data": "0x6d6516c0",
            "customRawTx": "0xea09843b9aca00830186a0941275fbb540c8efc58b812ba83b0d0b8b9917ae9880846d6516c08203e88080f969b5ab22f54db86a57efcfa83f3369047d328d2c56044bd49d7f863e69ed2b5a95c2b1b41801a5b4d7bb548829fe5a51c72dd5e5a08bd2a56f49bc3246a3081cff",
            "rawTx": "0xf86a09843b9aca00830186a0941275fbb540c8efc58b812ba83b0d0b8b9917ae9880846d6516c08207f4a0f969b5ab22f54db86a57efcfa83f3369047d328d2c56044bd49d7f863e69ed2ba05a95c2b1b41801a5b4d7bb548829fe5a51c72dd5e5a08bd2a56f49bc3246a308"
          },
          {
            "from": "0x4d5Cf5032B2a844602278b01199ED191A86c93ff",
            "to": "0x1275fbb540c8efc58b812ba83b0d0b8b9917ae98",
            "nonce": 10,
            "value": "0",
            "contractName": "BlockInfo",
            "function": "getDifficulty",
            "params": [],
            "chainId": 1000,
            "reason": "",
            "gasLimit": 100000,
            "gasPrice": "1000000000",
            "data": "0xb6baffe3",
            "customRawTx": "0xea0a843b9aca00830186a0941275fbb540c8efc58b812ba83b0d0b8b9917ae988084b6baffe38203e88080b60beddfce8bf365e93cb4f88f45ed0e5649659de56dbf52332e6c9c16aa10bd576fb90bd967e2495fe8fa09d75d58b82668c54dab54d91f5e4ab0d76d2649ae1bff",
            "rawTx": "0xf86a0a843b9aca00830186a0941275fbb540c8efc58b812ba83b0d0b8b9917ae988084b6baffe38207f3a0b60beddfce8bf365e93cb4f88f45ed0e5649659de56dbf52332e6c9c16aa10bda0576fb90bd967e2495fe8fa09d75d58b82668c54dab54d91f5e4ab0d76d2649ae"
          },
          {
            "from": "0x4d5Cf5032B2a844602278b01199ED191A86c93ff",
            "to": "0x1275fbb540c8efc58b812ba83b0d0b8b9917ae98",
            "nonce": 11,
            "value": "0",
            "contractName": "BlockInfo",
            "function": "getGasLimit",
            "params": [],
            "chainId": 1000,
            "reason": "",
            "gasLimit": 100000,
            "gasPrice": "1000000000",
            "data": "0x1a93d1c3",
            "customRawTx": "0xea0b843b9aca00830186a0941275fbb540c8efc58b812ba83b0d0b8b9917ae9880841a93d1c38203e88080416d143b11a02e0c28344feb6af0f90ecb5b0bd5eec26047b25c0f775502be751e40d32fefe94aee39ad9b2605afeb2e86f31b56ac82874f841054c6a01331851bff",
            "rawTx": "0xf86a0b843b9aca00830186a0941275fbb540c8efc58b812ba83b0d0b8b9917ae9880841a93d1c38207f3a0416d143b11a02e0c28344feb6af0f90ecb5b0bd5eec26047b25c0f775502be75a01e40d32fefe94aee39ad9b2605afeb2e86f31b56ac82874f841054c6a0133185"
          },
          {
            "from": "0x4d5Cf5032B2a844602278b01199ED191A86c93ff",
            "to": "0x1275fbb540c8efc58b812ba83b0d0b8b9917ae98",
            "nonce": 12,
            "value": "0",
            "contractName": "BlockInfo",
            "function": "getChainId",
            "params": [],
            "chainId": 1000,
            "reason": "",
            "gasLimit": 100000,
            "gasPrice": "1000000000",
            "data": "0x3408e470",
            "customRawTx": "0xea0c843b9aca00830186a0941275fbb540c8efc58b812ba83b0d0b8b9917ae9880843408e4708203e88080a1ec9b236321a7d3545cfe1a1baedf65d75e589223d732d424576756adb0396e74470d226d5b61895150d96dbd1b1ba8a8ad69a6bf9311a141ece602b6420d961cff",
            "rawTx": "0xf86a0c843b9aca00830186a0941275fbb540c8efc58b812ba83b0d0b8b9917ae9880843408e4708207f4a0a1ec9b236321a7d3545cfe1a1baedf65d75e589223d732d424576756adb0396ea074470d226d5b61895150d96dbd1b1ba8a8ad69a6bf9311a141ece602b6420d96"
          },
          {
            "from": "0x4d5Cf5032B2a844602278b01199ED191A86c93ff",
            "to": "0x1275fbb540c8efc58b812ba83b0d0b8b9917ae98",
            "nonce": 13,
            "value": "0",
            "contractName": "BlockInfo",
            "function": "getBlockhash",
            "params": [
              1
            ],
            "chainId": 1000,
            "reason": "",
            "gasLimit": 100000,
            "gasPrice": "1000000000",
            "data": "0xe9413d380000000000000000000000000000000000000000000000000000000000000001",
            "customRawTx": "0xf84a0d843b9aca00830186a0941275fbb540c8efc58b812ba83b0d0b8b9917ae9880a4e9413d3800000000000000000000000000000000000000000000000000000000000000018203e8808068ad61295298051fac15519066926aad57ed5af83b351e586a0fbe70006c48295695cc59543fd10d4af41a8a266aef5efd2d691abc356fc679c66e2545fd9ef61bff",
            "rawTx": "0xf88a0d843b9aca00830186a0941275fbb540c8efc58b812ba83b0d0b8b9917ae9880a4e9413d3800000000000000000000000000000000000000000000000000000000000000018207f3a068ad61295298051fac15519066926aad57ed5af83b351e586a0fbe70006c4829a05695cc59543fd10d4af41a8a266aef5efd2d691abc356fc679c66e2545fd9ef6"
          }
        ],
        "expectedNewRoot": "0x3e640ff8401c4c6f38ea13864bc08ab39a5633081653079d93ea1b74ceecd991",
        "expectedNewLeafs": {
          "0x000000000000000000000000000000005ca1ab1e": {
            "balance": "0",
            "nonce": "0",
            "storage": {
              "0xa6eef7e35abe7026729641147f7915573c7e97b47efa546f5f6e3230263bcb49": "0xf5c30bbb2b8a1bdd2b881cc575b2acbd13578c7cd64250fe8b6770fa95f915b3",
              "0xcc69885fda6bcc1a4ace058b4a62bf5e179ea78fd58a1ccd71c22cc9b688792f": "0xbfb64640ff59472e12fda55a3819aa7235c5c4827d6c82f0ef3e7845e18a19bf",
              "0x0000000000000000000000000000000000000000000000000000000000000000": "0x02",
              "0x0000000000000000000000000000000000000000000000000000000000000002": "0x73e6af70",
              "0x0000000000000000000000000000000000000000000000000000000000000003": "0x2c22759402067a30efb07f69b9bdbf9be8b9041521b60d42cd386798a7cee272"
            }
          },
          "0x4d5cf5032b2a844602278b01199ed191a86c93ff": {
            "balance": "199999542604000000000",
            "nonce": "14"
          },
          "0x1275fbb540c8efc58b812ba83b0d0b8b9917ae98": {
            "balance": "0",
            "nonce": "1",
            "storage": {
              "0x0000000000000000000000000000000000000000000000000000000000000000": "0x617b3a3528f9cdd6630fd3301b9c8911f7bf063d",
              "0x0000000000000000000000000000000000000000000000000000000000000002": "0x73e6af70",
              "0x0000000000000000000000000000000000000000000000000000000000000003": "0x02",
              "0x0000000000000000000000000000000000000000000000000000000000000005": "0xffffffff",
              "0x0000000000000000000000000000000000000000000000000000000000000006": "0x03e8",
              "0x0000000000000000000000000000000000000000000000000000000000000001": "0xbfb64640ff59472e12fda55a3819aa7235c5c4827d6c82f0ef3e7845e18a19bf"
            }
          },
          "0x617b3a3528f9cdd6630fd3301b9c8911f7bf063d": {
            "balance": "100000457396000000000",
            "nonce": "1"
          },
          "0x0000000000000000000000000000000000000000": {
            "balance": "0",
            "nonce": "0"
          },
          "0xae4bb80be56b819606589de61d5ec3b522eeb032": {
            "balance": "0",
            "nonce": "0"
          }
        },
        "batchL2Data": "0x0b73e6af6f00000000ea07843b9aca00830186a0941275fbb540c8efc58b812ba83b0d0b8b9917ae988084188ec3568203e880800be264304cfc20c400929c82d1435cfbaa18e9a49c34ce65274633820803c415132ab24e00f892d77ad39c87e897772100e3323f31915a3e5eb261e056d99bc31bffea08843b9aca00830186a0941275fbb540c8efc58b812ba83b0d0b8b9917ae988084d1a82a9d8203e88080775e9a77a45dafb120ec840926129c5db8ad3843722de88f2c7f6df4383c92fe0176dcd120e97ff6a1a1d60150aac3fdbca81bbfd1e2e9349ed9da4fa3bd85a81bffea09843b9aca00830186a0941275fbb540c8efc58b812ba83b0d0b8b9917ae9880846d6516c08203e88080f969b5ab22f54db86a57efcfa83f3369047d328d2c56044bd49d7f863e69ed2b5a95c2b1b41801a5b4d7bb548829fe5a51c72dd5e5a08bd2a56f49bc3246a3081cffea0a843b9aca00830186a0941275fbb540c8efc58b812ba83b0d0b8b9917ae988084b6baffe38203e88080b60beddfce8bf365e93cb4f88f45ed0e5649659de56dbf52332e6c9c16aa10bd576fb90bd967e2495fe8fa09d75d58b82668c54dab54d91f5e4ab0d76d2649ae1bffea0b843b9aca00830186a0941275fbb540c8efc58b812ba83b0d0b8b9917ae9880841a93d1c38203e88080416d143b11a02e0c28344feb6af0f90ecb5b0bd5eec26047b25c0f775502be751e40d32fefe94aee39ad9b2605afeb2e86f31b56ac82874f841054c6a01331851bffea0c843b9aca00830186a0941275fbb540c8efc58b812ba83b0d0b8b9917ae9880843408e4708203e88080a1ec9b236321a7d3545cfe1a1baedf65d75e589223d732d424576756adb0396e74470d226d5b61895150d96dbd1b1ba8a8ad69a6bf9311a141ece602b6420d961cfff84a0d843b9aca00830186a0941275fbb540c8efc58b812ba83b0d0b8b9917ae9880a4e9413d3800000000000000000000000000000000000000000000000000000000000000018203e8808068ad61295298051fac15519066926aad57ed5af83b351e586a0fbe70006c48295695cc59543fd10d4af41a8a266aef5efd2d691abc356fc679c66e2545fd9ef61bff",
        "l1InfoRoot": "0x090bcaf734c4f06c93954a827b45a6e8c67b8e0fd1e0a35a1c5982d6961828f9",
        "newLocalExitRoot": "0x0000000000000000000000000000000000000000000000000000000000000000",
        "batchHashData": "0x2b04959efa2e3387dce52a7a1083d0a9b1a7cad6673b3ff2f54592cefe0a5aeb",
        "timestampLimit": 1944498041
      },
      {
        "txs": [
          {
            "type": 11,
            "deltaTimestamp": "1",
            "l1Info": {
              "globalExitRoot": "0x16994edfddddb9480667b64174fc00d3b6da7290d37b8db3a16571b4ddf0789f",
              "blockHash": "0x24a5871d68723340d9eadc674aa8ad75f3e33b61d5a9db7db92af856a19270bb",
              "timestamp": "42"
            },
            "indexL1InfoTree": 0,
            "reason": "",
            "customRawTx": "0x0b0000000100000000"
          }
        ],
        "expectedNewRoot": "0x1c5e08e0e7339ac762a0ca37b3a0216649956860a486539d7d7f263f631f831a",
        "expectedNewLeafs": {
          "0x000000000000000000000000000000005ca1ab1e": {
            "balance": "0",
            "nonce": "0",
            "storage": {
              "0xa6eef7e35abe7026729641147f7915573c7e97b47efa546f5f6e3230263bcb49": "0xf5c30bbb2b8a1bdd2b881cc575b2acbd13578c7cd64250fe8b6770fa95f915b3",
              "0xcc69885fda6bcc1a4ace058b4a62bf5e179ea78fd58a1ccd71c22cc9b688792f": "0xbfb64640ff59472e12fda55a3819aa7235c5c4827d6c82f0ef3e7845e18a19bf",
              "0x0000000000000000000000000000000000000000000000000000000000000000": "0x03",
              "0x0000000000000000000000000000000000000000000000000000000000000002": "0x73e6af71",
              "0x0000000000000000000000000000000000000000000000000000000000000003": "0xbca7b98639dd0ed53a23115277dd496a7e7ba9c48a67f19600fa2111afa3561d",
              "0xd9d16d34ffb15ba3a3d852f0d403e2ce1d691fb54de27ac87cd2f993f3ec330f": "0x3e640ff8401c4c6f38ea13864bc08ab39a5633081653079d93ea1b74ceecd991"
            }
          },
          "0x0000000000000000000000000000000000000000": {
            "balance": "0",
            "nonce": "0"
          },
          "0xae4bb80be56b819606589de61d5ec3b522eeb032": {
            "balance": "0",
            "nonce": "0"
          },
          "0x617b3a3528f9cdd6630fd3301b9c8911f7bf063d": {
            "balance": "100000000000000000000",
            "nonce": "1",
            "pvtKey": "0x28b2b0318721be8c8339199172cd7cc8f5e273800a35616ec893083a4b32c02e"
          },
          "0x1275fbb540c8efc58b812ba83b0d0b8b9917ae98": {
            "balance": "0",
            "nonce": "1",
            "storage": {
              "0x0000000000000000000000000000000000000000000000000000000000000000": "0x617b3a3528f9cdd6630fd3301b9c8911f7bf063d",
              "0x0000000000000000000000000000000000000000000000000000000000000002": "0x73e6af70",
              "0x0000000000000000000000000000000000000000000000000000000000000003": "0x02",
              "0x0000000000000000000000000000000000000000000000000000000000000005": "0xffffffff",
              "0x0000000000000000000000000000000000000000000000000000000000000006": "0x03e8",
              "0x0000000000000000000000000000000000000000000000000000000000000001": "0xbfb64640ff59472e12fda55a3819aa7235c5c4827d6c82f0ef3e7845e18a19bf"
            }
          },
          "0x4d5cf5032b2a844602278b01199ed191a86c93ff": {
            "pvtKey": "0x4d27a600dce8c29b7bd080e29a26972377dbb04d7a27d919adbb602bf13cfd23",
            "balance": "200000000000000000000",
            "nonce": "0"
          }
        },
        "batchL2Data": "0x0b0000000100000000",
        "l1InfoRoot": "0x190bcaf734c4f06c93954a827b45a6e8c67b8e0fd1e0a35a1c5982d6961828f9",
        "newLocalExitRoot": "0x0000000000000000000000000000000000000000000000000000000000000000",
        "batchHashData": "0x7b643f52ec2fd0b23082647c621499c4a0ca105461bdf961d7c016ee411973ba",
        "timestampLimit": 1944498042
      },
      {
        "txs": [
          {
            "type": 11,
            "deltaTimestamp": "1",
            "l1Info": {
              "globalExitRoot": "0x16994edfddddb9480667b64174fc00d3b6da7290d37b8db3a16571b4ddf0789f",
              "blockHash": "0x24a5871d68723340d9eadc674aa8ad75f3e33b61d5a9db7db92af856a19270bb",
              "timestamp": "42"
            },
            "indexL1InfoTree": 0,
            "reason": "",
            "customRawTx": "0x0b0000000100000000"
          }
        ],
        "expectedNewRoot": "0x452c349b33fef9d900f39db035dbad4bf4d29f3164ece359667fa956367664ea",
        "expectedNewLeafs": {
          "0x000000000000000000000000000000005ca1ab1e": {
            "balance": "0",
            "nonce": "0",
            "storage": {
              "0xa6eef7e35abe7026729641147f7915573c7e97b47efa546f5f6e3230263bcb49": "0xf5c30bbb2b8a1bdd2b881cc575b2acbd13578c7cd64250fe8b6770fa95f915b3",
              "0xcc69885fda6bcc1a4ace058b4a62bf5e179ea78fd58a1ccd71c22cc9b688792f": "0xbfb64640ff59472e12fda55a3819aa7235c5c4827d6c82f0ef3e7845e18a19bf",
              "0x0000000000000000000000000000000000000000000000000000000000000000": "0x04",
              "0x0000000000000000000000000000000000000000000000000000000000000002": "0x73e6af72",
              "0x0000000000000000000000000000000000000000000000000000000000000003": "0x5c3047b3f2da52f44c8ab51520fd8e7572fdafb907c4c94b3ab2672db732ac7d",
              "0xd9d16d34ffb15ba3a3d852f0d403e2ce1d691fb54de27ac87cd2f993f3ec330f": "0x3e640ff8401c4c6f38ea13864bc08ab39a5633081653079d93ea1b74ceecd991",
              "0x7dfe757ecd65cbd7922a9c0161e935dd7fdbcc0e999689c7d31633896b1fc60b": "0x1c5e08e0e7339ac762a0ca37b3a0216649956860a486539d7d7f263f631f831a"
            }
          },
          "0x0000000000000000000000000000000000000000": {
            "balance": "0",
            "nonce": "0"
          },
          "0xae4bb80be56b819606589de61d5ec3b522eeb032": {
            "balance": "0",
            "nonce": "0"
          },
          "0x617b3a3528f9cdd6630fd3301b9c8911f7bf063d": {
            "balance": "100000000000000000000",
            "nonce": "1",
            "pvtKey": "0x28b2b0318721be8c8339199172cd7cc8f5e273800a35616ec893083a4b32c02e"
          },
          "0x1275fbb540c8efc58b812ba83b0d0b8b9917ae98": {
            "balance": "0",
            "nonce": "1",
            "storage": {
              "0x0000000000000000000000000000000000000000000000000000000000000000": "0x617b3a3528f9cdd6630fd3301b9c8911f7bf063d",
              "0x0000000000000000000000000000000000000000000000000000000000000002": "0x73e6af70",
              "0x0000000000000000000000000000000000000000000000000000000000000003": "0x02",
              "0x0000000000000000000000000000000000000000000000000000000000000005": "0xffffffff",
              "0x0000000000000000000000000000000000000000000000000000000000000006": "0x03e8",
              "0x0000000000000000000000000000000000000000000000000000000000000001": "0xbfb64640ff59472e12fda55a3819aa7235c5c4827d6c82f0ef3e7845e18a19bf"
            }
          },
          "0x4d5cf5032b2a844602278b01199ed191a86c93ff": {
            "pvtKey": "0x4d27a600dce8c29b7bd080e29a26972377dbb04d7a27d919adbb602bf13cfd23",
            "balance": "200000000000000000000",
            "nonce": "0"
          }
        },
        "batchL2Data": "0x0b0000000100000000",
        "l1InfoRoot": "0x190bcaf734c4f06c93954a827b45a6e8c67b8e0fd1e0a35a1c5982d6961828f9",
        "newLocalExitRoot": "0x0000000000000000000000000000000000000000000000000000000000000000",
        "batchHashData": "0x7b643f52ec2fd0b23082647c621499c4a0ca105461bdf961d7c016ee411973ba",
        "timestampLimit": 1944498043
      }
    ]
  }
]