[
  {
    "id": 0,
    "description": "Get timestamp",
    "chainIdSequencer": 1001,
    "defaultChainId": 1000,
    "sequencerAddress": "0x617b3a3528F9cDd6630fd3301B9c8911F7Bf063D",
    "sequencerPvtKey": "0x28b2b0318721be8c8339199172cd7cc8f5e273800a35616ec893083a4b32c02e",
    "genesis": [
      {
        "balance": "0",
        "nonce": "0",
        "address": "0x0000000000000000000000000000000000000000"
      },
      {
        "balance": "0",
        "nonce": "0",
        "address": "0xAE4bB80bE56B819606589DE61d5ec3b522EEB032"
      },
      {
        "balance": "100000000000000000000",
        "nonce": "1",
        "address": "0x617b3a3528f9cdd6630fd3301b9c8911f7bf063d",
        "pvtKey": "0x28b2b0318721be8c8339199172cd7cc8f5e273800a35616ec893083a4b32c02e"
      },
      {
        "balance": "0",
        "nonce": "1",
        "address": "0x1275fbb540c8efc58b812ba83b0d0b8b9917ae98",
        "bytecode": "0x608060405234801561001057600080fd5b50600436106100cf5760003560e01c8063773a54d01161008c578063ad35766111610066578063ad35766114610192578063b6baffe3146101b0578063d1123dde146101ba578063d1a82a9d146101d8576100cf565b8063773a54d0146101385780637e773d9d14610156578063ab8fd80c14610174576100cf565b8063188ec356146100d45780631a93d1c3146100de5780633408e470146100e85780633e7ff47d146100f257806346f22384146101105780636d6516c01461012e575b600080fd5b6100dc6101e2565b005b6100e66101eb565b005b6100f06101f4565b005b6100fa6101fd565b60405161010791906102fc565b60405180910390f35b610118610203565b60405161012591906102fc565b60405180910390f35b610136610209565b005b610140610212565b60405161014d91906102c6565b60405180910390f35b61015e610236565b60405161016b91906102fc565b60405180910390f35b61017c61023c565b60405161018991906102e1565b60405180910390f35b61019a610242565b6040516101a791906102fc565b60405180910390f35b6101b8610248565b005b6101c2610251565b6040516101cf91906102fc565b60405180910390f35b6101e0610257565b005b42600281905550565b45600581905550565b46600681905550565b60065481565b60045481565b43600381905550565b60008054906101000a900473ffffffffffffffffffffffffffffffffffffffff1681565b60025481565b60015481565b60035481565b44600481905550565b60055481565b416000806101000a81548173ffffffffffffffffffffffffffffffffffffffff021916908373ffffffffffffffffffffffffffffffffffffffff160217905550565b6102a281610317565b82525050565b6102b181610329565b82525050565b6102c081610353565b82525050565b60006020820190506102db6000830184610299565b92915050565b60006020820190506102f660008301846102a8565b92915050565b600060208201905061031160008301846102b7565b92915050565b600061032282610333565b9050919050565b6000819050919050565b600073ffffffffffffffffffffffffffffffffffffffff82169050919050565b600081905091905056fea264697066735822122063d9907c85400b9a1f6942a0b3a372327d2da12d81d9b065ceaa13d61d1f376964736f6c63430008070033",
        "storage": {},
        "contractName": "BlockInfo"
      },
      {
        "address": "0x4d5Cf5032B2a844602278b01199ED191A86c93ff",
        "pvtKey": "0x4d27a600dce8c29b7bd080e29a26972377dbb04d7a27d919adbb602bf13cfd23",
        "balance": "200000000000000000000",
        "nonce": "0"
      }
    ],
    "expectedOldRoot": "0x2a842573d6e9b42173b59636a8b52b9cbf7ddf594521c62d719799af4e74848c",
    "txs": [
      {
        "from": "0x4d5Cf5032B2a844602278b01199ED191A86c93ff",
        "to": "0x1275fbb540c8efc58b812ba83b0d0b8b9917ae98",
        "nonce": 0,
        "value": "0",
        "contractName": "BlockInfo",
        "function": "getTimestamp",
        "params": [],
        "chainId": 1001,
        "reason": "",
        "gasLimit": 100000,
        "gasPrice": "1000000000",
        "data": "0x188ec356",
        "customRawTx": "0xea80843b9aca00830186a0941275fbb540c8efc58b812ba83b0d0b8b9917ae988084188ec3568203e980800c6761ceaf3e5c449369623fabaafe404918eadb140ef43d0053f93133f59eff628284440484b5916512cb5451306e95ecd80c0f42c1e3414111a8899a676a6c1c",
        "rawTx": "0xf86a80843b9aca00830186a0941275fbb540c8efc58b812ba83b0d0b8b9917ae988084188ec3568207f6a00c6761ceaf3e5c449369623fabaafe404918eadb140ef43d0053f93133f59effa0628284440484b5916512cb5451306e95ecd80c0f42c1e3414111a8899a676a6c"
      },
      {
        "from": "0x4d5Cf5032B2a844602278b01199ED191A86c93ff",
        "to": "0x1275fbb540c8efc58b812ba83b0d0b8b9917ae98",
        "nonce": 1,
        "value": "0",
        "contractName": "BlockInfo",
        "function": "getCoinbase",
        "params": [],
        "chainId": 1001,
        "reason": "",
        "gasLimit": 100000,
        "gasPrice": "1000000000",
        "data": "0xd1a82a9d",
        "customRawTx": "0xea01843b9aca00830186a0941275fbb540c8efc58b812ba83b0d0b8b9917ae988084d1a82a9d8203e9808062d7e56cc01c83fb958055ad8601082887c817e5ff3d3d9e5a2a842776be264969a554643c723169331ff1865894d6820e528b5e6ace1233ce373427851e9f241c",
        "rawTx": "0xf86a01843b9aca00830186a0941275fbb540c8efc58b812ba83b0d0b8b9917ae988084d1a82a9d8207f6a062d7e56cc01c83fb958055ad8601082887c817e5ff3d3d9e5a2a842776be2649a069a554643c723169331ff1865894d6820e528b5e6ace1233ce373427851e9f24"
      },
      {
        "from": "0x4d5Cf5032B2a844602278b01199ED191A86c93ff",
        "to": "0x1275fbb540c8efc58b812ba83b0d0b8b9917ae98",
        "nonce": 2,
        "value": "0",
        "contractName": "BlockInfo",
        "function": "getBatchNumber",
        "params": [],
        "chainId": 1001,
        "reason": "",
        "gasLimit": 100000,
        "gasPrice": "1000000000",
        "data": "0x6d6516c0",
        "customRawTx": "0xea02843b9aca00830186a0941275fbb540c8efc58b812ba83b0d0b8b9917ae9880846d6516c08203e9808043eef988913d3828c789105b49009ecd97840dc87dda222b5570df0b374f843a04760a583ccbbcddf8dbef35b87195fcec574b1875076aeac4c9047ebdf340291b",
        "rawTx": "0xf86a02843b9aca00830186a0941275fbb540c8efc58b812ba83b0d0b8b9917ae9880846d6516c08207f5a043eef988913d3828c789105b49009ecd97840dc87dda222b5570df0b374f843aa004760a583ccbbcddf8dbef35b87195fcec574b1875076aeac4c9047ebdf34029"
      },
      {
        "from": "0x4d5Cf5032B2a844602278b01199ED191A86c93ff",
        "to": "0x1275fbb540c8efc58b812ba83b0d0b8b9917ae98",
        "nonce": 3,
        "value": "0",
        "contractName": "BlockInfo",
        "function": "getDifficulty",
        "params": [],
        "chainId": 1001,
        "reason": "",
        "gasLimit": 100000,
        "gasPrice": "1000000000",
        "data": "0xb6baffe3",
        "customRawTx": "0xea03843b9aca00830186a0941275fbb540c8efc58b812ba83b0d0b8b9917ae988084b6baffe38203e9808009ddccd7cce4428387c6f519b485ab104f4c301bfa87f2a467959398e6eb4b865f170dadd65e22ce85ec81d135e360eb9369c5302c7f9d2c801fc66c6b499c821b",
        "rawTx": "0xf86a03843b9aca00830186a0941275fbb540c8efc58b812ba83b0d0b8b9917ae988084b6baffe38207f5a009ddccd7cce4428387c6f519b485ab104f4c301bfa87f2a467959398e6eb4b86a05f170dadd65e22ce85ec81d135e360eb9369c5302c7f9d2c801fc66c6b499c82"
      },
      {
        "from": "0x4d5Cf5032B2a844602278b01199ED191A86c93ff",
        "to": "0x1275fbb540c8efc58b812ba83b0d0b8b9917ae98",
        "nonce": 4,
        "value": "0",
        "contractName": "BlockInfo",
        "function": "getGasLimit",
        "params": [],
        "chainId": 1001,
        "reason": "",
        "gasLimit": 100000,
        "gasPrice": "1000000000",
        "data": "0x1a93d1c3",
        "customRawTx": "0xea04843b9aca00830186a0941275fbb540c8efc58b812ba83b0d0b8b9917ae9880841a93d1c38203e980809ce1b8191e16ca6cc8e96c6e7501ea36a9da82a7f61713d795b04a1c378a7bca3f85dc0e3c2a5eaed1a63bdb3da2b34f5d087e0a6f0b0fa5109f06f6b760c7451c",
        "rawTx": "0xf86a04843b9aca00830186a0941275fbb540c8efc58b812ba83b0d0b8b9917ae9880841a93d1c38207f6a09ce1b8191e16ca6cc8e96c6e7501ea36a9da82a7f61713d795b04a1c378a7bcaa03f85dc0e3c2a5eaed1a63bdb3da2b34f5d087e0a6f0b0fa5109f06f6b760c745"
      },
      {
        "from": "0x4d5Cf5032B2a844602278b01199ED191A86c93ff",
        "to": "0x1275fbb540c8efc58b812ba83b0d0b8b9917ae98",
        "nonce": 5,
        "value": "0",
        "contractName": "BlockInfo",
        "function": "getChainId",
        "params": [],
        "chainId": 1001,
        "reason": "",
        "gasLimit": 100000,
        "gasPrice": "1000000000",
        "data": "0x3408e470",
        "customRawTx": "0xea05843b9aca00830186a0941275fbb540c8efc58b812ba83b0d0b8b9917ae9880843408e4708203e980804e0882eb93dbdb7a30aa5fd12368e853d6a45e8d928512ddd67d144dc77cc8e1747116c0e819fd7b40822f032a026763402dc93618d08e1d212f7e983f03f4ac1c",
        "rawTx": "0xf86a05843b9aca00830186a0941275fbb540c8efc58b812ba83b0d0b8b9917ae9880843408e4708207f6a04e0882eb93dbdb7a30aa5fd12368e853d6a45e8d928512ddd67d144dc77cc8e1a0747116c0e819fd7b40822f032a026763402dc93618d08e1d212f7e983f03f4ac"
      }
    ],
    "expectedNewRoot": "0x6a08f7dab6284f7a4dcb54d0934aaed64beab0c3e356766e963c192470f65f05",
    "expectedNewLeafs": {
      "0x0000000000000000000000000000000000000000": {
        "balance": "0",
        "nonce": "0",
        "storage": {
          "0xad3228b676f7d3cd4284a5443f17f1962b36e491b30a40b2405849e597ba5fb5": "0x2a842573d6e9b42173b59636a8b52b9cbf7ddf594521c62d719799af4e74848c"
        }
      },
      "0xAE4bB80bE56B819606589DE61d5ec3b522EEB032": {
        "balance": "0",
        "nonce": "0"
      },
      "0x4d5cf5032b2a844602278b01199ed191a86c93ff": {
        "balance": "199999759609000000000",
        "nonce": "6"
      },
      "0x1275fbb540c8efc58b812ba83b0d0b8b9917ae98": {
        "balance": "0",
        "nonce": "1",
        "storage": {
          "0x0000000000000000000000000000000000000000000000000000000000000000": "0x617b3a3528f9cdd6630fd3301b9c8911f7bf063d",
          "0x0000000000000000000000000000000000000000000000000000000000000002": "0x73e6af6f",
          "0x0000000000000000000000000000000000000000000000000000000000000003": "0x01",
          "0x0000000000000000000000000000000000000000000000000000000000000005": "0x01c9c380",
          "0x0000000000000000000000000000000000000000000000000000000000000006": "0x03e8"
        }
      },
      "0x617b3a3528f9cdd6630fd3301b9c8911f7bf063d": {
        "balance": "100000240391000000000",
        "nonce": "1"
      }
    },
    "batchL2Data": "0xea80843b9aca00830186a0941275fbb540c8efc58b812ba83b0d0b8b9917ae988084188ec3568203e980800c6761ceaf3e5c449369623fabaafe404918eadb140ef43d0053f93133f59eff628284440484b5916512cb5451306e95ecd80c0f42c1e3414111a8899a676a6c1cea01843b9aca00830186a0941275fbb540c8efc58b812ba83b0d0b8b9917ae988084d1a82a9d8203e9808062d7e56cc01c83fb958055ad8601082887c817e5ff3d3d9e5a2a842776be264969a554643c723169331ff1865894d6820e528b5e6ace1233ce373427851e9f241cea02843b9aca00830186a0941275fbb540c8efc58b812ba83b0d0b8b9917ae9880846d6516c08203e9808043eef988913d3828c789105b49009ecd97840dc87dda222b5570df0b374f843a04760a583ccbbcddf8dbef35b87195fcec574b1875076aeac4c9047ebdf340291bea03843b9aca00830186a0941275fbb540c8efc58b812ba83b0d0b8b9917ae988084b6baffe38203e9808009ddccd7cce4428387c6f519b485ab104f4c301bfa87f2a467959398e6eb4b865f170dadd65e22ce85ec81d135e360eb9369c5302c7f9d2c801fc66c6b499c821bea04843b9aca00830186a0941275fbb540c8efc58b812ba83b0d0b8b9917ae9880841a93d1c38203e980809ce1b8191e16ca6cc8e96c6e7501ea36a9da82a7f61713d795b04a1c378a7bca3f85dc0e3c2a5eaed1a63bdb3da2b34f5d087e0a6f0b0fa5109f06f6b760c7451cea05843b9aca00830186a0941275fbb540c8efc58b812ba83b0d0b8b9917ae9880843408e4708203e980804e0882eb93dbdb7a30aa5fd12368e853d6a45e8d928512ddd67d144dc77cc8e1747116c0e819fd7b40822f032a026763402dc93618d08e1d212f7e983f03f4ac1c",
    "globalExitRoot": "0x090bcaf734c4f06c93954a827b45a6e8c67b8e0fd1e0a35a1c5982d6961828f9",
    "newLocalExitRoot": "0x0000000000000000000000000000000000000000000000000000000000000000",
    "inputHash": "0xa3746328720163dc5ec9ccd5cdb81e01d6e7c5ef787b844238bdab73b05572a3",
    "batchHashData": "0x3fa4e5004eb763f924f29ff6678d9f047a7642cc007a0317ec01a7b6c1e31193",
    "oldLocalExitRoot": "0x0000000000000000000000000000000000000000000000000000000000000000",
    "timestamp": 1944498031
  }
]