[
  {
    "id": 0,
    "description": "Get timestamp",
    "chainIdSequencer": 1001,
    "defaultChainId": 1000,
    "sequencerAddress": "0x617b3a3528F9cDd6630fd3301B9c8911F7Bf063D",
    "sequencerPvtKey": "0x28b2b0318721be8c8339199172cd7cc8f5e273800a35616ec893083a4b32c02e",
    "genesis": [
      {
        "balance": "0",
        "nonce": "0",
        "address": "0x0000000000000000000000000000000000000000"
      },
      {
        "balance": "0",
        "nonce": "0",
        "address": "0xAE4bB80bE56B819606589DE61d5ec3b522EEB032"
      },
      {
        "balance": "100000000000000000000",
        "nonce": "1",
        "address": "0x617b3a3528f9cdd6630fd3301b9c8911f7bf063d",
        "pvtKey": "0x28b2b0318721be8c8339199172cd7cc8f5e273800a35616ec893083a4b32c02e"
      },
      {
        "balance": "0",
        "nonce": "1",
        "address": "0x1275fbb540c8efc58b812ba83b0d0b8b9917ae98",
        "bytecode": "0x608060405234801561001057600080fd5b50600436106100ea5760003560e01c80637e773d9d1161008c578063b6baffe311610066578063b6baffe3146101cb578063d1123dde146101d5578063d1a82a9d146101f3578063e9413d38146101fd576100ea565b80637e773d9d14610171578063ab8fd80c1461018f578063ad357661146101ad576100ea565b80633e7ff47d116100c85780633e7ff47d1461010d57806346f223841461012b5780636d6516c014610149578063773a54d014610153576100ea565b8063188ec356146100ef5780631a93d1c3146100f95780633408e47014610103575b600080fd5b6100f7610219565b005b610101610222565b005b61010b61022b565b005b610115610234565b6040516101229190610380565b60405180910390f35b61013361023a565b6040516101409190610380565b60405180910390f35b610151610240565b005b61015b610249565b604051610168919061034a565b60405180910390f35b61017961026d565b6040516101869190610380565b60405180910390f35b610197610273565b6040516101a49190610365565b60405180910390f35b6101b5610279565b6040516101c29190610380565b60405180910390f35b6101d361027f565b005b6101dd610288565b6040516101ea9190610380565b60405180910390f35b6101fb61028e565b005b610217600480360381019061021291906102f0565b6102d0565b005b42600281905550565b45600581905550565b46600681905550565b60065481565b60045481565b43600381905550565b60008054906101000a900473ffffffffffffffffffffffffffffffffffffffff1681565b60025481565b60015481565b60035481565b44600481905550565b60055481565b416000806101000a81548173ffffffffffffffffffffffffffffffffffffffff021916908373ffffffffffffffffffffffffffffffffffffffff160217905550565b804060018190555050565b6000813590506102ea816103e6565b92915050565b600060208284031215610306576103056103e1565b5b6000610314848285016102db565b91505092915050565b6103268161039b565b82525050565b610335816103ad565b82525050565b610344816103d7565b82525050565b600060208201905061035f600083018461031d565b92915050565b600060208201905061037a600083018461032c565b92915050565b6000602082019050610395600083018461033b565b92915050565b60006103a6826103b7565b9050919050565b6000819050919050565b600073ffffffffffffffffffffffffffffffffffffffff82169050919050565b6000819050919050565b600080fd5b6103ef816103d7565b81146103fa57600080fd5b5056fea2646970667358221220f4bfc35d30f87a35fe2ea61a310a6a573fb75dd9533185535fefecae7354d46764736f6c63430008070033",
        "storage": {},
        "contractName": "BlockInfo"
      },
      {
        "address": "0x4d5Cf5032B2a844602278b01199ED191A86c93ff",
        "pvtKey": "0x4d27a600dce8c29b7bd080e29a26972377dbb04d7a27d919adbb602bf13cfd23",
        "balance": "200000000000000000000",
        "nonce": "0"
      }
    ],
    "expectedOldRoot": "0xf5c30bbb2b8a1bdd2b881cc575b2acbd13578c7cd64250fe8b6770fa95f915b3",
    "txs": [
      {
        "from": "0x4d5Cf5032B2a844602278b01199ED191A86c93ff",
        "to": "0x1275fbb540c8efc58b812ba83b0d0b8b9917ae98",
        "nonce": 0,
        "value": "0",
        "contractName": "BlockInfo",
        "function": "getTimestamp",
        "params": [],
        "chainId": 1001,
        "reason": "",
        "gasLimit": 100000,
        "gasPrice": "1000000000",
        "data": "0x188ec356",
        "customRawTx": "0xea80843b9aca00830186a0941275fbb540c8efc58b812ba83b0d0b8b9917ae988084188ec3568203e980800c6761ceaf3e5c449369623fabaafe404918eadb140ef43d0053f93133f59eff628284440484b5916512cb5451306e95ecd80c0f42c1e3414111a8899a676a6c1c",
        "rawTx": "0xf86a80843b9aca00830186a0941275fbb540c8efc58b812ba83b0d0b8b9917ae988084188ec3568207f6a00c6761ceaf3e5c449369623fabaafe404918eadb140ef43d0053f93133f59effa0628284440484b5916512cb5451306e95ecd80c0f42c1e3414111a8899a676a6c"
      },
      {
        "from": "0x4d5Cf5032B2a844602278b01199ED191A86c93ff",
        "to": "0x1275fbb540c8efc58b812ba83b0d0b8b9917ae98",
        "nonce": 1,
        "value": "0",
        "contractName": "BlockInfo",
        "function": "getCoinbase",
        "params": [],
        "chainId": 1001,
        "reason": "",
        "gasLimit": 100000,
        "gasPrice": "1000000000",
        "data": "0xd1a82a9d",
        "customRawTx": "0xea01843b9aca00830186a0941275fbb540c8efc58b812ba83b0d0b8b9917ae988084d1a82a9d8203e9808062d7e56cc01c83fb958055ad8601082887c817e5ff3d3d9e5a2a842776be264969a554643c723169331ff1865894d6820e528b5e6ace1233ce373427851e9f241c",
        "rawTx": "0xf86a01843b9aca00830186a0941275fbb540c8efc58b812ba83b0d0b8b9917ae988084d1a82a9d8207f6a062d7e56cc01c83fb958055ad8601082887c817e5ff3d3d9e5a2a842776be2649a069a554643c723169331ff1865894d6820e528b5e6ace1233ce373427851e9f24"
      },
      {
        "from": "0x4d5Cf5032B2a844602278b01199ED191A86c93ff",
        "to": "0x1275fbb540c8efc58b812ba83b0d0b8b9917ae98",
        "nonce": 2,
        "value": "0",
        "contractName": "BlockInfo",
        "function": "getBatchNumber",
        "params": [],
        "chainId": 1001,
        "reason": "",
        "gasLimit": 100000,
        "gasPrice": "1000000000",
        "data": "0x6d6516c0",
        "customRawTx": "0xea02843b9aca00830186a0941275fbb540c8efc58b812ba83b0d0b8b9917ae9880846d6516c08203e9808043eef988913d3828c789105b49009ecd97840dc87dda222b5570df0b374f843a04760a583ccbbcddf8dbef35b87195fcec574b1875076aeac4c9047ebdf340291b",
        "rawTx": "0xf86a02843b9aca00830186a0941275fbb540c8efc58b812ba83b0d0b8b9917ae9880846d6516c08207f5a043eef988913d3828c789105b49009ecd97840dc87dda222b5570df0b374f843aa004760a583ccbbcddf8dbef35b87195fcec574b1875076aeac4c9047ebdf34029"
      },
      {
        "from": "0x4d5Cf5032B2a844602278b01199ED191A86c93ff",
        "to": "0x1275fbb540c8efc58b812ba83b0d0b8b9917ae98",
        "nonce": 3,
        "value": "0",
        "contractName": "BlockInfo",
        "function": "getDifficulty",
        "params": [],
        "chainId": 1001,
        "reason": "",
        "gasLimit": 100000,
        "gasPrice": "1000000000",
        "data": "0xb6baffe3",
        "customRawTx": "0xea03843b9aca00830186a0941275fbb540c8efc58b812ba83b0d0b8b9917ae988084b6baffe38203e9808009ddccd7cce4428387c6f519b485ab104f4c301bfa87f2a467959398e6eb4b865f170dadd65e22ce85ec81d135e360eb9369c5302c7f9d2c801fc66c6b499c821b",
        "rawTx": "0xf86a03843b9aca00830186a0941275fbb540c8efc58b812ba83b0d0b8b9917ae988084b6baffe38207f5a009ddccd7cce4428387c6f519b485ab104f4c301bfa87f2a467959398e6eb4b86a05f170dadd65e22ce85ec81d135e360eb9369c5302c7f9d2c801fc66c6b499c82"
      },
      {
        "from": "0x4d5Cf5032B2a844602278b01199ED191A86c93ff",
        "to": "0x1275fbb540c8efc58b812ba83b0d0b8b9917ae98",
        "nonce": 4,
        "value": "0",
        "contractName": "BlockInfo",
        "function": "getGasLimit",
        "params": [],
        "chainId": 1001,
        "reason": "",
        "gasLimit": 100000,
        "gasPrice": "1000000000",
        "data": "0x1a93d1c3",
        "customRawTx": "0xea04843b9aca00830186a0941275fbb540c8efc58b812ba83b0d0b8b9917ae9880841a93d1c38203e980809ce1b8191e16ca6cc8e96c6e7501ea36a9da82a7f61713d795b04a1c378a7bca3f85dc0e3c2a5eaed1a63bdb3da2b34f5d087e0a6f0b0fa5109f06f6b760c7451c",
        "rawTx": "0xf86a04843b9aca00830186a0941275fbb540c8efc58b812ba83b0d0b8b9917ae9880841a93d1c38207f6a09ce1b8191e16ca6cc8e96c6e7501ea36a9da82a7f61713d795b04a1c378a7bcaa03f85dc0e3c2a5eaed1a63bdb3da2b34f5d087e0a6f0b0fa5109f06f6b760c745"
      },
      {
        "from": "0x4d5Cf5032B2a844602278b01199ED191A86c93ff",
        "to": "0x1275fbb540c8efc58b812ba83b0d0b8b9917ae98",
        "nonce": 5,
        "value": "0",
        "contractName": "BlockInfo",
        "function": "getChainId",
        "params": [],
        "chainId": 1001,
        "reason": "",
        "gasLimit": 100000,
        "gasPrice": "1000000000",
        "data": "0x3408e470",
        "customRawTx": "0xea05843b9aca00830186a0941275fbb540c8efc58b812ba83b0d0b8b9917ae9880843408e4708203e980804e0882eb93dbdb7a30aa5fd12368e853d6a45e8d928512ddd67d144dc77cc8e1747116c0e819fd7b40822f032a026763402dc93618d08e1d212f7e983f03f4ac1c",
        "rawTx": "0xf86a05843b9aca00830186a0941275fbb540c8efc58b812ba83b0d0b8b9917ae9880843408e4708207f6a04e0882eb93dbdb7a30aa5fd12368e853d6a45e8d928512ddd67d144dc77cc8e1a0747116c0e819fd7b40822f032a026763402dc93618d08e1d212f7e983f03f4ac"
      }
    ],
    "expectedNewRoot": "0x214a12bf80a1fe3db5f430b0bbf5d5cf6c05321e78d86aa2647c2c5c9e573bce",
    "expectedNewLeafs": {
      "0x0000000000000000000000000000000000000000": {
        "balance": "0",
        "nonce": "0",
        "storage": {
          "0xad3228b676f7d3cd4284a5443f17f1962b36e491b30a40b2405849e597ba5fb5": "0xf5c30bbb2b8a1bdd2b881cc575b2acbd13578c7cd64250fe8b6770fa95f915b3"
        },
        "hashBytecode": "0x0000000000000000000000000000000000000000000000000000000000000000"
      },
      "0xae4bb80be56b819606589de61d5ec3b522eeb032": {
        "balance": "0",
        "nonce": "0",
        "storage": {
          "0x53d3f126103a7f7d6245751d2392e0245bf71479d10a3c27a5b501ace6dde1b7": "0x01"
        },
        "hashBytecode": "0x0000000000000000000000000000000000000000000000000000000000000000"
      },
      "0x4d5cf5032b2a844602278b01199ed191a86c93ff": {
        "balance": "199999759628000000000",
        "nonce": "6",
        "storage": null,
        "hashBytecode": "0x0000000000000000000000000000000000000000000000000000000000000000"
      },
      "0x1275fbb540c8efc58b812ba83b0d0b8b9917ae98": {
        "balance": "0",
        "nonce": "1",
        "storage": {
          "0x0000000000000000000000000000000000000000000000000000000000000000": "0x617b3a3528f9cdd6630fd3301b9c8911f7bf063d",
          "0x0000000000000000000000000000000000000000000000000000000000000002": "0x73e6af6f",
          "0x0000000000000000000000000000000000000000000000000000000000000003": "0x01",
          "0x0000000000000000000000000000000000000000000000000000000000000005": "0x01c9c380",
          "0x0000000000000000000000000000000000000000000000000000000000000006": "0x03e8"
        },
        "hashBytecode": "0x3683afc3f35fba06b75ccdf2603d9a3c09f9dbda7b17994fc6cfc3e5f3cf40ef"
      },
      "0x617b3a3528f9cdd6630fd3301b9c8911f7bf063d": {
        "balance": "100000240372000000000",
        "nonce": "1",
        "storage": null,
        "hashBytecode": "0x0000000000000000000000000000000000000000000000000000000000000000"
      }
    },
    "batchL2Data": "0xea80843b9aca00830186a0941275fbb540c8efc58b812ba83b0d0b8b9917ae988084188ec3568203e980800c6761ceaf3e5c449369623fabaafe404918eadb140ef43d0053f93133f59eff628284440484b5916512cb5451306e95ecd80c0f42c1e3414111a8899a676a6c1cea01843b9aca00830186a0941275fbb540c8efc58b812ba83b0d0b8b9917ae988084d1a82a9d8203e9808062d7e56cc01c83fb958055ad8601082887c817e5ff3d3d9e5a2a842776be264969a554643c723169331ff1865894d6820e528b5e6ace1233ce373427851e9f241cea02843b9aca00830186a0941275fbb540c8efc58b812ba83b0d0b8b9917ae9880846d6516c08203e9808043eef988913d3828c789105b49009ecd97840dc87dda222b5570df0b374f843a04760a583ccbbcddf8dbef35b87195fcec574b1875076aeac4c9047ebdf340291bea03843b9aca00830186a0941275fbb540c8efc58b812ba83b0d0b8b9917ae988084b6baffe38203e9808009ddccd7cce4428387c6f519b485ab104f4c301bfa87f2a467959398e6eb4b865f170dadd65e22ce85ec81d135e360eb9369c5302c7f9d2c801fc66c6b499c821bea04843b9aca00830186a0941275fbb540c8efc58b812ba83b0d0b8b9917ae9880841a93d1c38203e980809ce1b8191e16ca6cc8e96c6e7501ea36a9da82a7f61713d795b04a1c378a7bca3f85dc0e3c2a5eaed1a63bdb3da2b34f5d087e0a6f0b0fa5109f06f6b760c7451cea05843b9aca00830186a0941275fbb540c8efc58b812ba83b0d0b8b9917ae9880843408e4708203e980804e0882eb93dbdb7a30aa5fd12368e853d6a45e8d928512ddd67d144dc77cc8e1747116c0e819fd7b40822f032a026763402dc93618d08e1d212f7e983f03f4ac1c",
    "globalExitRoot": "0x090bcaf734c4f06c93954a827b45a6e8c67b8e0fd1e0a35a1c5982d6961828f9",
    "newLocalExitRoot": "0x0000000000000000000000000000000000000000000000000000000000000000",
    "inputHash": "0x52474ec10d9194279d49c9bc365d6c43965efdcf7840c9c2cf5ae9aeb3df206c",
    "batchHashData": "0x1f673ca3d39911729cd035a7999c8997f7afa8b90f4b3f98667c913886335d28",
    "oldLocalExitRoot": "0x0000000000000000000000000000000000000000000000000000000000000000",
    "timestamp": 1944498031
  }
]