[
  {
    "id": 0,
    "description": "Get timestamp",
    "chainIdSequencer": 1001,
    "defaultChainId": 1000,
    "sequencerAddress": "0x617b3a3528F9cDd6630fd3301B9c8911F7Bf063D",
    "sequencerPvtKey": "0x28b2b0318721be8c8339199172cd7cc8f5e273800a35616ec893083a4b32c02e",
    "genesis": [
      {
        "balance": "0",
        "nonce": "0",
        "address": "0x0000000000000000000000000000000000000000"
      },
      {
        "balance": "0",
        "nonce": "0",
        "address": "0xAE4bB80bE56B819606589DE61d5ec3b522EEB032"
      },
      {
        "balance": "100000000000000000000",
        "nonce": "1",
        "address": "0x617b3a3528f9cdd6630fd3301b9c8911f7bf063d",
        "pvtKey": "0x28b2b0318721be8c8339199172cd7cc8f5e273800a35616ec893083a4b32c02e"
      },
      {
        "balance": "0",
        "nonce": "1",
        "address": "0x1275fbb540c8efc58b812ba83b0d0b8b9917ae98",
        "bytecode": "0x608060405234801561001057600080fd5b50600436106100ea5760003560e01c80637e773d9d1161008c578063b6baffe311610066578063b6baffe3146101cb578063d1123dde146101d5578063d1a82a9d146101f3578063e9413d38146101fd576100ea565b80637e773d9d14610171578063ab8fd80c1461018f578063ad357661146101ad576100ea565b80633e7ff47d116100c85780633e7ff47d1461010d57806346f223841461012b5780636d6516c014610149578063773a54d014610153576100ea565b8063188ec356146100ef5780631a93d1c3146100f95780633408e47014610103575b600080fd5b6100f7610219565b005b610101610222565b005b61010b61022b565b005b610115610234565b6040516101229190610380565b60405180910390f35b61013361023a565b6040516101409190610380565b60405180910390f35b610151610240565b005b61015b610249565b604051610168919061034a565b60405180910390f35b61017961026d565b6040516101869190610380565b60405180910390f35b610197610273565b6040516101a49190610365565b60405180910390f35b6101b5610279565b6040516101c29190610380565b60405180910390f35b6101d361027f565b005b6101dd610288565b6040516101ea9190610380565b60405180910390f35b6101fb61028e565b005b610217600480360381019061021291906102f0565b6102d0565b005b42600281905550565b45600581905550565b46600681905550565b60065481565b60045481565b43600381905550565b60008054906101000a900473ffffffffffffffffffffffffffffffffffffffff1681565b60025481565b60015481565b60035481565b44600481905550565b60055481565b416000806101000a81548173ffffffffffffffffffffffffffffffffffffffff021916908373ffffffffffffffffffffffffffffffffffffffff160217905550565b804060018190555050565b6000813590506102ea816103e6565b92915050565b600060208284031215610306576103056103e1565b5b6000610314848285016102db565b91505092915050565b6103268161039b565b82525050565b610335816103ad565b82525050565b610344816103d7565b82525050565b600060208201905061035f600083018461031d565b92915050565b600060208201905061037a600083018461032c565b92915050565b6000602082019050610395600083018461033b565b92915050565b60006103a6826103b7565b9050919050565b6000819050919050565b600073ffffffffffffffffffffffffffffffffffffffff82169050919050565b6000819050919050565b600080fd5b6103ef816103d7565b81146103fa57600080fd5b5056fea2646970667358221220f4bfc35d30f87a35fe2ea61a310a6a573fb75dd9533185535fefecae7354d46764736f6c63430008070033",
        "storage": {},
        "contractName": "BlockInfo"
      },
      {
        "address": "0x4d5Cf5032B2a844602278b01199ED191A86c93ff",
        "pvtKey": "0x4d27a600dce8c29b7bd080e29a26972377dbb04d7a27d919adbb602bf13cfd23",
        "balance": "200000000000000000000",
        "nonce": "0"
      }
    ],
    "expectedOldRoot": "0xf5c30bbb2b8a1bdd2b881cc575b2acbd13578c7cd64250fe8b6770fa95f915b3",
    "oldLocalExitRoot": "0x0000000000000000000000000000000000000000000000000000000000000000",
    "batches": [
      {
        "txs": [
          {
            "from": "0x4d5Cf5032B2a844602278b01199ED191A86c93ff",
            "to": "0x1275fbb540c8efc58b812ba83b0d0b8b9917ae98",
            "nonce": 0,
            "value": "0",
            "contractName": "BlockInfo",
            "function": "getTimestamp",
            "params": [],
            "chainId": 1001,
            "reason": "",
            "gasLimit": 100000,
            "gasPrice": "1000000000",
            "data": "0x188ec356",
            "customRawTx": "0xea80843b9aca00830186a0941275fbb540c8efc58b812ba83b0d0b8b9917ae988084188ec3568203e980800c6761ceaf3e5c449369623fabaafe404918eadb140ef43d0053f93133f59eff628284440484b5916512cb5451306e95ecd80c0f42c1e3414111a8899a676a6c1c",
            "rawTx": "0xf86a80843b9aca00830186a0941275fbb540c8efc58b812ba83b0d0b8b9917ae988084188ec3568207f6a00c6761ceaf3e5c449369623fabaafe404918eadb140ef43d0053f93133f59effa0628284440484b5916512cb5451306e95ecd80c0f42c1e3414111a8899a676a6c"
          },
          {
            "from": "0x4d5Cf5032B2a844602278b01199ED191A86c93ff",
            "to": "0x1275fbb540c8efc58b812ba83b0d0b8b9917ae98",
            "nonce": 1,
            "value": "0",
            "contractName": "BlockInfo",
            "function": "getCoinbase",
            "params": [],
            "chainId": 1001,
            "reason": "",
            "gasLimit": 100000,
            "gasPrice": "1000000000",
            "data": "0xd1a82a9d",
            "customRawTx": "0xea01843b9aca00830186a0941275fbb540c8efc58b812ba83b0d0b8b9917ae988084d1a82a9d8203e9808062d7e56cc01c83fb958055ad8601082887c817e5ff3d3d9e5a2a842776be264969a554643c723169331ff1865894d6820e528b5e6ace1233ce373427851e9f241c",
            "rawTx": "0xf86a01843b9aca00830186a0941275fbb540c8efc58b812ba83b0d0b8b9917ae988084d1a82a9d8207f6a062d7e56cc01c83fb958055ad8601082887c817e5ff3d3d9e5a2a842776be2649a069a554643c723169331ff1865894d6820e528b5e6ace1233ce373427851e9f24"
          },
          {
            "from": "0x4d5Cf5032B2a844602278b01199ED191A86c93ff",
            "to": "0x1275fbb540c8efc58b812ba83b0d0b8b9917ae98",
            "nonce": 2,
            "value": "0",
            "contractName": "BlockInfo",
            "function": "getBatchNumber",
            "params": [],
            "chainId": 1001,
            "reason": "",
            "gasLimit": 100000,
            "gasPrice": "1000000000",
            "data": "0x6d6516c0",
            "customRawTx": "0xea02843b9aca00830186a0941275fbb540c8efc58b812ba83b0d0b8b9917ae9880846d6516c08203e9808043eef988913d3828c789105b49009ecd97840dc87dda222b5570df0b374f843a04760a583ccbbcddf8dbef35b87195fcec574b1875076aeac4c9047ebdf340291b",
            "rawTx": "0xf86a02843b9aca00830186a0941275fbb540c8efc58b812ba83b0d0b8b9917ae9880846d6516c08207f5a043eef988913d3828c789105b49009ecd97840dc87dda222b5570df0b374f843aa004760a583ccbbcddf8dbef35b87195fcec574b1875076aeac4c9047ebdf34029"
          },
          {
            "from": "0x4d5Cf5032B2a844602278b01199ED191A86c93ff",
            "to": "0x1275fbb540c8efc58b812ba83b0d0b8b9917ae98",
            "nonce": 3,
            "value": "0",
            "contractName": "BlockInfo",
            "function": "getDifficulty",
            "params": [],
            "chainId": 1001,
            "reason": "",
            "gasLimit": 100000,
            "gasPrice": "1000000000",
            "data": "0xb6baffe3",
            "customRawTx": "0xea03843b9aca00830186a0941275fbb540c8efc58b812ba83b0d0b8b9917ae988084b6baffe38203e9808009ddccd7cce4428387c6f519b485ab104f4c301bfa87f2a467959398e6eb4b865f170dadd65e22ce85ec81d135e360eb9369c5302c7f9d2c801fc66c6b499c821b",
            "rawTx": "0xf86a03843b9aca00830186a0941275fbb540c8efc58b812ba83b0d0b8b9917ae988084b6baffe38207f5a009ddccd7cce4428387c6f519b485ab104f4c301bfa87f2a467959398e6eb4b86a05f170dadd65e22ce85ec81d135e360eb9369c5302c7f9d2c801fc66c6b499c82"
          },
          {
            "from": "0x4d5Cf5032B2a844602278b01199ED191A86c93ff",
            "to": "0x1275fbb540c8efc58b812ba83b0d0b8b9917ae98",
            "nonce": 4,
            "value": "0",
            "contractName": "BlockInfo",
            "function": "getGasLimit",
            "params": [],
            "chainId": 1001,
            "reason": "",
            "gasLimit": 100000,
            "gasPrice": "1000000000",
            "data": "0x1a93d1c3",
            "customRawTx": "0xea04843b9aca00830186a0941275fbb540c8efc58b812ba83b0d0b8b9917ae9880841a93d1c38203e980809ce1b8191e16ca6cc8e96c6e7501ea36a9da82a7f61713d795b04a1c378a7bca3f85dc0e3c2a5eaed1a63bdb3da2b34f5d087e0a6f0b0fa5109f06f6b760c7451c",
            "rawTx": "0xf86a04843b9aca00830186a0941275fbb540c8efc58b812ba83b0d0b8b9917ae9880841a93d1c38207f6a09ce1b8191e16ca6cc8e96c6e7501ea36a9da82a7f61713d795b04a1c378a7bcaa03f85dc0e3c2a5eaed1a63bdb3da2b34f5d087e0a6f0b0fa5109f06f6b760c745"
          },
          {
            "from": "0x4d5Cf5032B2a844602278b01199ED191A86c93ff",
            "to": "0x1275fbb540c8efc58b812ba83b0d0b8b9917ae98",
            "nonce": 5,
            "value": "0",
            "contractName": "BlockInfo",
            "function": "getChainId",
            "params": [],
            "chainId": 1001,
            "reason": "",
            "gasLimit": 100000,
            "gasPrice": "1000000000",
            "data": "0x3408e470",
            "customRawTx": "0xea05843b9aca00830186a0941275fbb540c8efc58b812ba83b0d0b8b9917ae9880843408e4708203e980804e0882eb93dbdb7a30aa5fd12368e853d6a45e8d928512ddd67d144dc77cc8e1747116c0e819fd7b40822f032a026763402dc93618d08e1d212f7e983f03f4ac1c",
            "rawTx": "0xf86a05843b9aca00830186a0941275fbb540c8efc58b812ba83b0d0b8b9917ae9880843408e4708207f6a04e0882eb93dbdb7a30aa5fd12368e853d6a45e8d928512ddd67d144dc77cc8e1a0747116c0e819fd7b40822f032a026763402dc93618d08e1d212f7e983f03f4ac"
          },
          {
            "from": "0x4d5Cf5032B2a844602278b01199ED191A86c93ff",
            "to": "0x1275fbb540c8efc58b812ba83b0d0b8b9917ae98",
            "nonce": 6,
            "value": "0",
            "contractName": "BlockInfo",
            "function": "getBlockhash",
            "params": [
              0
            ],
            "chainId": 1001,
            "reason": "",
            "gasLimit": 100000,
            "gasPrice": "1000000000",
            "data": "0xe9413d380000000000000000000000000000000000000000000000000000000000000000",
            "customRawTx": "0xf84a06843b9aca00830186a0941275fbb540c8efc58b812ba83b0d0b8b9917ae9880a4e9413d3800000000000000000000000000000000000000000000000000000000000000008203e9808031ddecf3fc38dd40204567dc72e957e3a3e6cad74f9bba67cdbed62131261256507fb2d0aac18b8fbede52ffde7932f95f2a60ba91530a6e5af28f1054527db91b",
            "rawTx": "0xf88a06843b9aca00830186a0941275fbb540c8efc58b812ba83b0d0b8b9917ae9880a4e9413d3800000000000000000000000000000000000000000000000000000000000000008207f5a031ddecf3fc38dd40204567dc72e957e3a3e6cad74f9bba67cdbed62131261256a0507fb2d0aac18b8fbede52ffde7932f95f2a60ba91530a6e5af28f1054527db9"
          }
        ],
        "expectedNewRoot": "0x56eedd3c301b4f431d78886102a228fd8f184c6004375cf8e3c651fae7d28c99",
        "expectedNewLeafs": {
          "0x0000000000000000000000000000000000000000": {
            "balance": "0",
            "nonce": "0",
            "storage": {
              "0xad3228b676f7d3cd4284a5443f17f1962b36e491b30a40b2405849e597ba5fb5": "0xf5c30bbb2b8a1bdd2b881cc575b2acbd13578c7cd64250fe8b6770fa95f915b3"
            }
          },
          "0xae4bb80be56b819606589de61d5ec3b522eeb032": {
            "balance": "0",
            "nonce": "0"
          },
          "0x4d5cf5032b2a844602278b01199ed191a86c93ff": {
            "balance": "199999715808000000000",
            "nonce": "7"
          },
          "0x1275fbb540c8efc58b812ba83b0d0b8b9917ae98": {
            "balance": "0",
            "nonce": "1",
            "storage": {
              "0x0000000000000000000000000000000000000000000000000000000000000000": "0x617b3a3528f9cdd6630fd3301b9c8911f7bf063d",
              "0x0000000000000000000000000000000000000000000000000000000000000002": "0x73e6af6f",
              "0x0000000000000000000000000000000000000000000000000000000000000003": "0x01",
              "0x0000000000000000000000000000000000000000000000000000000000000005": "0x01c9c380",
              "0x0000000000000000000000000000000000000000000000000000000000000006": "0x03e8",
              "0x0000000000000000000000000000000000000000000000000000000000000001": "0xf5c30bbb2b8a1bdd2b881cc575b2acbd13578c7cd64250fe8b6770fa95f915b3"
            }
          },
          "0x617b3a3528f9cdd6630fd3301b9c8911f7bf063d": {
            "balance": "100000284192000000000",
            "nonce": "1"
          }
        },
        "batchL2Data": "0xea80843b9aca00830186a0941275fbb540c8efc58b812ba83b0d0b8b9917ae988084188ec3568203e980800c6761ceaf3e5c449369623fabaafe404918eadb140ef43d0053f93133f59eff628284440484b5916512cb5451306e95ecd80c0f42c1e3414111a8899a676a6c1cea01843b9aca00830186a0941275fbb540c8efc58b812ba83b0d0b8b9917ae988084d1a82a9d8203e9808062d7e56cc01c83fb958055ad8601082887c817e5ff3d3d9e5a2a842776be264969a554643c723169331ff1865894d6820e528b5e6ace1233ce373427851e9f241cea02843b9aca00830186a0941275fbb540c8efc58b812ba83b0d0b8b9917ae9880846d6516c08203e9808043eef988913d3828c789105b49009ecd97840dc87dda222b5570df0b374f843a04760a583ccbbcddf8dbef35b87195fcec574b1875076aeac4c9047ebdf340291bea03843b9aca00830186a0941275fbb540c8efc58b812ba83b0d0b8b9917ae988084b6baffe38203e9808009ddccd7cce4428387c6f519b485ab104f4c301bfa87f2a467959398e6eb4b865f170dadd65e22ce85ec81d135e360eb9369c5302c7f9d2c801fc66c6b499c821bea04843b9aca00830186a0941275fbb540c8efc58b812ba83b0d0b8b9917ae9880841a93d1c38203e980809ce1b8191e16ca6cc8e96c6e7501ea36a9da82a7f61713d795b04a1c378a7bca3f85dc0e3c2a5eaed1a63bdb3da2b34f5d087e0a6f0b0fa5109f06f6b760c7451cea05843b9aca00830186a0941275fbb540c8efc58b812ba83b0d0b8b9917ae9880843408e4708203e980804e0882eb93dbdb7a30aa5fd12368e853d6a45e8d928512ddd67d144dc77cc8e1747116c0e819fd7b40822f032a026763402dc93618d08e1d212f7e983f03f4ac1cf84a06843b9aca00830186a0941275fbb540c8efc58b812ba83b0d0b8b9917ae9880a4e9413d3800000000000000000000000000000000000000000000000000000000000000008203e9808031ddecf3fc38dd40204567dc72e957e3a3e6cad74f9bba67cdbed62131261256507fb2d0aac18b8fbede52ffde7932f95f2a60ba91530a6e5af28f1054527db91b",
        "globalExitRoot": "0x090bcaf734c4f06c93954a827b45a6e8c67b8e0fd1e0a35a1c5982d6961828f9",
        "newLocalExitRoot": "0x0000000000000000000000000000000000000000000000000000000000000000",
        "inputHash": "0x64bd0c1a0f1ce3d73ec2ff31f7f463cabc0321d6e5cc40c53161410a1e80b696",
        "batchHashData": "0xc7c7a1a51cf3d4bf28f58083716bf8da3036c5cf3a405cfbc075324bbd3ea012",
        "timestamp": 1944498031
      },
      {
        "txs": [
          {
            "from": "0x4d5Cf5032B2a844602278b01199ED191A86c93ff",
            "to": "0x1275fbb540c8efc58b812ba83b0d0b8b9917ae98",
            "nonce": 7,
            "value": "0",
            "contractName": "BlockInfo",
            "function": "getTimestamp",
            "params": [],
            "chainId": 1001,
            "reason": "",
            "gasLimit": 100000,
            "gasPrice": "1000000000",
            "data": "0x188ec356",
            "customRawTx": "0xea07843b9aca00830186a0941275fbb540c8efc58b812ba83b0d0b8b9917ae988084188ec3568203e9808092127a6fdf770100ab4baf7413f8ae127e21991ac08dfa55cb47994ebc77e8483e2417be7de61fd36ba8f75fd4417ae60b9e716fc2eb0067f9eefbbaba2133ed1b",
            "rawTx": "0xf86a07843b9aca00830186a0941275fbb540c8efc58b812ba83b0d0b8b9917ae988084188ec3568207f5a092127a6fdf770100ab4baf7413f8ae127e21991ac08dfa55cb47994ebc77e848a03e2417be7de61fd36ba8f75fd4417ae60b9e716fc2eb0067f9eefbbaba2133ed"
          },
          {
            "from": "0x4d5Cf5032B2a844602278b01199ED191A86c93ff",
            "to": "0x1275fbb540c8efc58b812ba83b0d0b8b9917ae98",
            "nonce": 8,
            "value": "0",
            "contractName": "BlockInfo",
            "function": "getCoinbase",
            "params": [],
            "chainId": 1001,
            "reason": "",
            "gasLimit": 100000,
            "gasPrice": "1000000000",
            "data": "0xd1a82a9d",
            "customRawTx": "0xea08843b9aca00830186a0941275fbb540c8efc58b812ba83b0d0b8b9917ae988084d1a82a9d8203e980805220d0daf6d0b8486286c2eed2758ee8ebae48fae3c6b7277a519fb03f1cd0a412ee5fcd71ab370ab3c11debdff31ce322cda849fa0f8576a454a9f4eaf8815e1b",
            "rawTx": "0xf86a08843b9aca00830186a0941275fbb540c8efc58b812ba83b0d0b8b9917ae988084d1a82a9d8207f5a05220d0daf6d0b8486286c2eed2758ee8ebae48fae3c6b7277a519fb03f1cd0a4a012ee5fcd71ab370ab3c11debdff31ce322cda849fa0f8576a454a9f4eaf8815e"
          },
          {
            "from": "0x4d5Cf5032B2a844602278b01199ED191A86c93ff",
            "to": "0x1275fbb540c8efc58b812ba83b0d0b8b9917ae98",
            "nonce": 9,
            "value": "0",
            "contractName": "BlockInfo",
            "function": "getBatchNumber",
            "params": [],
            "chainId": 1001,
            "reason": "",
            "gasLimit": 100000,
            "gasPrice": "1000000000",
            "data": "0x6d6516c0",
            "customRawTx": "0xea09843b9aca00830186a0941275fbb540c8efc58b812ba83b0d0b8b9917ae9880846d6516c08203e980800baf0525cf8ced44d2626b14723dddd721b1e0ba3831a40ab047e68b5ee7b8be00141fcc934da59e0fa663d7c03e154787402d628b05207605a0030831d039d81b",
            "rawTx": "0xf86909843b9aca00830186a0941275fbb540c8efc58b812ba83b0d0b8b9917ae9880846d6516c08207f5a00baf0525cf8ced44d2626b14723dddd721b1e0ba3831a40ab047e68b5ee7b8be9f141fcc934da59e0fa663d7c03e154787402d628b05207605a0030831d039d8"
          },
          {
            "from": "0x4d5Cf5032B2a844602278b01199ED191A86c93ff",
            "to": "0x1275fbb540c8efc58b812ba83b0d0b8b9917ae98",
            "nonce": 10,
            "value": "0",
            "contractName": "BlockInfo",
            "function": "getDifficulty",
            "params": [],
            "chainId": 1001,
            "reason": "",
            "gasLimit": 100000,
            "gasPrice": "1000000000",
            "data": "0xb6baffe3",
            "customRawTx": "0xea0a843b9aca00830186a0941275fbb540c8efc58b812ba83b0d0b8b9917ae988084b6baffe38203e980808dede3f31203ee4dfd31b939711b9d2bf7440f5f8b647654406091025bee64524adca48e17564fdf85ed2568a641ade9ec92fc65fd851ccf06537a88e115cc3e1c",
            "rawTx": "0xf86a0a843b9aca00830186a0941275fbb540c8efc58b812ba83b0d0b8b9917ae988084b6baffe38207f6a08dede3f31203ee4dfd31b939711b9d2bf7440f5f8b647654406091025bee6452a04adca48e17564fdf85ed2568a641ade9ec92fc65fd851ccf06537a88e115cc3e"
          },
          {
            "from": "0x4d5Cf5032B2a844602278b01199ED191A86c93ff",
            "to": "0x1275fbb540c8efc58b812ba83b0d0b8b9917ae98",
            "nonce": 11,
            "value": "0",
            "contractName": "BlockInfo",
            "function": "getGasLimit",
            "params": [],
            "chainId": 1001,
            "reason": "",
            "gasLimit": 100000,
            "gasPrice": "1000000000",
            "data": "0x1a93d1c3",
            "customRawTx": "0xea0b843b9aca00830186a0941275fbb540c8efc58b812ba83b0d0b8b9917ae9880841a93d1c38203e980805172b32f117be1b85da85450d126138417366798fc1bcc5e2132eefa53fc9c18660c210233099fca599f7684b9bc712d32345e71fad2743fc2e0bd0be1533bce1c",
            "rawTx": "0xf86a0b843b9aca00830186a0941275fbb540c8efc58b812ba83b0d0b8b9917ae9880841a93d1c38207f6a05172b32f117be1b85da85450d126138417366798fc1bcc5e2132eefa53fc9c18a0660c210233099fca599f7684b9bc712d32345e71fad2743fc2e0bd0be1533bce"
          },
          {
            "from": "0x4d5Cf5032B2a844602278b01199ED191A86c93ff",
            "to": "0x1275fbb540c8efc58b812ba83b0d0b8b9917ae98",
            "nonce": 12,
            "value": "0",
            "contractName": "BlockInfo",
            "function": "getChainId",
            "params": [],
            "chainId": 1001,
            "reason": "",
            "gasLimit": 100000,
            "gasPrice": "1000000000",
            "data": "0x3408e470",
            "customRawTx": "0xea0c843b9aca00830186a0941275fbb540c8efc58b812ba83b0d0b8b9917ae9880843408e4708203e9808062fc964969b13f23a55b77382446109c538f29a5e087c56326f322216eccf2783e9257ce201155f2f23273c8803131ed231a160209db8d5866a125312f67f2711c",
            "rawTx": "0xf86a0c843b9aca00830186a0941275fbb540c8efc58b812ba83b0d0b8b9917ae9880843408e4708207f6a062fc964969b13f23a55b77382446109c538f29a5e087c56326f322216eccf278a03e9257ce201155f2f23273c8803131ed231a160209db8d5866a125312f67f271"
          },
          {
            "from": "0x4d5Cf5032B2a844602278b01199ED191A86c93ff",
            "to": "0x1275fbb540c8efc58b812ba83b0d0b8b9917ae98",
            "nonce": 13,
            "value": "0",
            "contractName": "BlockInfo",
            "function": "getBlockhash",
            "params": [
              1
            ],
            "chainId": 1001,
            "reason": "",
            "gasLimit": 100000,
            "gasPrice": "1000000000",
            "data": "0xe9413d380000000000000000000000000000000000000000000000000000000000000001",
            "customRawTx": "0xf84a0d843b9aca00830186a0941275fbb540c8efc58b812ba83b0d0b8b9917ae9880a4e9413d3800000000000000000000000000000000000000000000000000000000000000018203e98080a6afe9f6f378536ed13bff327cacc64eb2a8db12dafbf7a95e44bdb3ebe268181995d212aa0185f6ba466ecb6421462f845ffaf1a8d3973ffc5c533b32e14d191b",
            "rawTx": "0xf88a0d843b9aca00830186a0941275fbb540c8efc58b812ba83b0d0b8b9917ae9880a4e9413d3800000000000000000000000000000000000000000000000000000000000000018207f5a0a6afe9f6f378536ed13bff327cacc64eb2a8db12dafbf7a95e44bdb3ebe26818a01995d212aa0185f6ba466ecb6421462f845ffaf1a8d3973ffc5c533b32e14d19"
          }
        ],
        "expectedNewRoot": "0xee9262fa5bb4bd5f7bd765676f87671023bed6dbdc7b7a4968fc341d143bfa99",
        "expectedNewLeafs": {
          "0x0000000000000000000000000000000000000000": {
            "balance": "0",
            "nonce": "0",
            "storage": {
              "0xad3228b676f7d3cd4284a5443f17f1962b36e491b30a40b2405849e597ba5fb5": "0xf5c30bbb2b8a1bdd2b881cc575b2acbd13578c7cd64250fe8b6770fa95f915b3",
              "0xada5013122d395ba3c54772283fb069b10426056ef8ca54750cb9bb552a59e7d": "0x56eedd3c301b4f431d78886102a228fd8f184c6004375cf8e3c651fae7d28c99"
            }
          },
          "0xae4bb80be56b819606589de61d5ec3b522eeb032": {
            "balance": "0",
            "nonce": "0"
          },
          "0x4d5cf5032b2a844602278b01199ed191a86c93ff": {
            "balance": "199999545404000000000",
            "nonce": "14"
          },
          "0x1275fbb540c8efc58b812ba83b0d0b8b9917ae98": {
            "balance": "0",
            "nonce": "1",
            "storage": {
              "0x0000000000000000000000000000000000000000000000000000000000000000": "0x617b3a3528f9cdd6630fd3301b9c8911f7bf063d",
              "0x0000000000000000000000000000000000000000000000000000000000000002": "0x73e6af6f",
              "0x0000000000000000000000000000000000000000000000000000000000000003": "0x02",
              "0x0000000000000000000000000000000000000000000000000000000000000005": "0x01c9c380",
              "0x0000000000000000000000000000000000000000000000000000000000000006": "0x03e8",
              "0x0000000000000000000000000000000000000000000000000000000000000001": "0x56eedd3c301b4f431d78886102a228fd8f184c6004375cf8e3c651fae7d28c99"
            }
          },
          "0x617b3a3528f9cdd6630fd3301b9c8911f7bf063d": {
            "balance": "100000454596000000000",
            "nonce": "1"
          }
        },
        "batchL2Data": "0xea07843b9aca00830186a0941275fbb540c8efc58b812ba83b0d0b8b9917ae988084188ec3568203e9808092127a6fdf770100ab4baf7413f8ae127e21991ac08dfa55cb47994ebc77e8483e2417be7de61fd36ba8f75fd4417ae60b9e716fc2eb0067f9eefbbaba2133ed1bea08843b9aca00830186a0941275fbb540c8efc58b812ba83b0d0b8b9917ae988084d1a82a9d8203e980805220d0daf6d0b8486286c2eed2758ee8ebae48fae3c6b7277a519fb03f1cd0a412ee5fcd71ab370ab3c11debdff31ce322cda849fa0f8576a454a9f4eaf8815e1bea09843b9aca00830186a0941275fbb540c8efc58b812ba83b0d0b8b9917ae9880846d6516c08203e980800baf0525cf8ced44d2626b14723dddd721b1e0ba3831a40ab047e68b5ee7b8be00141fcc934da59e0fa663d7c03e154787402d628b05207605a0030831d039d81bea0a843b9aca00830186a0941275fbb540c8efc58b812ba83b0d0b8b9917ae988084b6baffe38203e980808dede3f31203ee4dfd31b939711b9d2bf7440f5f8b647654406091025bee64524adca48e17564fdf85ed2568a641ade9ec92fc65fd851ccf06537a88e115cc3e1cea0b843b9aca00830186a0941275fbb540c8efc58b812ba83b0d0b8b9917ae9880841a93d1c38203e980805172b32f117be1b85da85450d126138417366798fc1bcc5e2132eefa53fc9c18660c210233099fca599f7684b9bc712d32345e71fad2743fc2e0bd0be1533bce1cea0c843b9aca00830186a0941275fbb540c8efc58b812ba83b0d0b8b9917ae9880843408e4708203e9808062fc964969b13f23a55b77382446109c538f29a5e087c56326f322216eccf2783e9257ce201155f2f23273c8803131ed231a160209db8d5866a125312f67f2711cf84a0d843b9aca00830186a0941275fbb540c8efc58b812ba83b0d0b8b9917ae9880a4e9413d3800000000000000000000000000000000000000000000000000000000000000018203e98080a6afe9f6f378536ed13bff327cacc64eb2a8db12dafbf7a95e44bdb3ebe268181995d212aa0185f6ba466ecb6421462f845ffaf1a8d3973ffc5c533b32e14d191b",
        "globalExitRoot": "0x090bcaf734c4f06c93954a827b45a6e8c67b8e0fd1e0a35a1c5982d6961828f9",
        "newLocalExitRoot": "0x0000000000000000000000000000000000000000000000000000000000000000",
        "inputHash": "0x75fe1bdddcd6704a39bcb84876ad3e4cfb9bd585a8f5da50221a54e486d75f1a",
        "batchHashData": "0xbb83aaa5926183641c535878013f2b90cda08d9e46d73dd44e04dd639567125d",
        "timestamp": 1944498031
      }
    ]
  }
]