[
  {
    "id": 0,
    "description": "Get timestamp",
    "chainID": 1000,
    "forkID": 1,
    "sequencerAddress": "0x617b3a3528F9cDd6630fd3301B9c8911F7Bf063D",
    "sequencerPvtKey": "0x28b2b0318721be8c8339199172cd7cc8f5e273800a35616ec893083a4b32c02e",
    "genesis": [
      {
        "balance": "0",
        "nonce": "0",
        "address": "0x0000000000000000000000000000000000000000"
      },
      {
        "balance": "0",
        "nonce": "0",
        "address": "0xAE4bB80bE56B819606589DE61d5ec3b522EEB032"
      },
      {
        "balance": "100000000000000000000",
        "nonce": "1",
        "address": "0x617b3a3528f9cdd6630fd3301b9c8911f7bf063d",
        "pvtKey": "0x28b2b0318721be8c8339199172cd7cc8f5e273800a35616ec893083a4b32c02e"
      },
      {
        "balance": "0",
        "nonce": "1",
        "address": "0x1275fbb540c8efc58b812ba83b0d0b8b9917ae98",
        "bytecode": "0x608060405234801561001057600080fd5b50600436106100ea5760003560e01c80637e773d9d1161008c578063b6baffe311610066578063b6baffe3146101cb578063d1123dde146101d5578063d1a82a9d146101f3578063e9413d38146101fd576100ea565b80637e773d9d14610171578063ab8fd80c1461018f578063ad357661146101ad576100ea565b80633e7ff47d116100c85780633e7ff47d1461010d57806346f223841461012b5780636d6516c014610149578063773a54d014610153576100ea565b8063188ec356146100ef5780631a93d1c3146100f95780633408e47014610103575b600080fd5b6100f7610219565b005b610101610222565b005b61010b61022b565b005b610115610234565b6040516101229190610380565b60405180910390f35b61013361023a565b6040516101409190610380565b60405180910390f35b610151610240565b005b61015b610249565b604051610168919061034a565b60405180910390f35b61017961026d565b6040516101869190610380565b60405180910390f35b610197610273565b6040516101a49190610365565b60405180910390f35b6101b5610279565b6040516101c29190610380565b60405180910390f35b6101d361027f565b005b6101dd610288565b6040516101ea9190610380565b60405180910390f35b6101fb61028e565b005b610217600480360381019061021291906102f0565b6102d0565b005b42600281905550565b45600581905550565b46600681905550565b60065481565b60045481565b43600381905550565b60008054906101000a900473ffffffffffffffffffffffffffffffffffffffff1681565b60025481565b60015481565b60035481565b44600481905550565b60055481565b416000806101000a81548173ffffffffffffffffffffffffffffffffffffffff021916908373ffffffffffffffffffffffffffffffffffffffff160217905550565b804060018190555050565b6000813590506102ea816103e6565b92915050565b600060208284031215610306576103056103e1565b5b6000610314848285016102db565b91505092915050565b6103268161039b565b82525050565b610335816103ad565b82525050565b610344816103d7565b82525050565b600060208201905061035f600083018461031d565b92915050565b600060208201905061037a600083018461032c565b92915050565b6000602082019050610395600083018461033b565b92915050565b60006103a6826103b7565b9050919050565b6000819050919050565b600073ffffffffffffffffffffffffffffffffffffffff82169050919050565b6000819050919050565b600080fd5b6103ef816103d7565b81146103fa57600080fd5b5056fea2646970667358221220f4bfc35d30f87a35fe2ea61a310a6a573fb75dd9533185535fefecae7354d46764736f6c63430008070033",
        "storage": {},
        "contractName": "BlockInfo"
      },
      {
        "address": "0x4d5Cf5032B2a844602278b01199ED191A86c93ff",
        "pvtKey": "0x4d27a600dce8c29b7bd080e29a26972377dbb04d7a27d919adbb602bf13cfd23",
        "balance": "200000000000000000000",
        "nonce": "0"
      }
    ],
    "expectedOldRoot": "0xf5c30bbb2b8a1bdd2b881cc575b2acbd13578c7cd64250fe8b6770fa95f915b3",
    "txs": [
      {
        "from": "0x4d5Cf5032B2a844602278b01199ED191A86c93ff",
        "to": "0x1275fbb540c8efc58b812ba83b0d0b8b9917ae98",
        "nonce": 0,
        "value": "0",
        "contractName": "BlockInfo",
        "function": "getTimestamp",
        "params": [],
        "chainId": 1000,
        "reason": "",
        "gasLimit": 100000,
        "gasPrice": "1000000000",
        "data": "0x188ec356",
        "customRawTx": "0xea80843b9aca00830186a0941275fbb540c8efc58b812ba83b0d0b8b9917ae988084188ec3568203e880800a62ce9876e027f7a954f96c485c63c9bf043bd1fe1012c5634cf959bf7743190a601eedbcfef58146bdda9845fea5d9356b09d667010d557c73f83353a119a61c",
        "rawTx": "0xf86a80843b9aca00830186a0941275fbb540c8efc58b812ba83b0d0b8b9917ae988084188ec3568207f4a00a62ce9876e027f7a954f96c485c63c9bf043bd1fe1012c5634cf959bf774319a00a601eedbcfef58146bdda9845fea5d9356b09d667010d557c73f83353a119a6"
      },
      {
        "from": "0x4d5Cf5032B2a844602278b01199ED191A86c93ff",
        "to": "0x1275fbb540c8efc58b812ba83b0d0b8b9917ae98",
        "nonce": 1,
        "value": "0",
        "contractName": "BlockInfo",
        "function": "getCoinbase",
        "params": [],
        "chainId": 1000,
        "reason": "",
        "gasLimit": 100000,
        "gasPrice": "1000000000",
        "data": "0xd1a82a9d",
        "customRawTx": "0xea01843b9aca00830186a0941275fbb540c8efc58b812ba83b0d0b8b9917ae988084d1a82a9d8203e880803c696d27506eebe00e52cd1c327eefd2ebb8c7a5d5309118ad18381630b2a5d47971958df81d8daa0d393daddb17a250c294452078db34b22d9e5ee85d2482e81b",
        "rawTx": "0xf86a01843b9aca00830186a0941275fbb540c8efc58b812ba83b0d0b8b9917ae988084d1a82a9d8207f3a03c696d27506eebe00e52cd1c327eefd2ebb8c7a5d5309118ad18381630b2a5d4a07971958df81d8daa0d393daddb17a250c294452078db34b22d9e5ee85d2482e8"
      },
      {
        "from": "0x4d5Cf5032B2a844602278b01199ED191A86c93ff",
        "to": "0x1275fbb540c8efc58b812ba83b0d0b8b9917ae98",
        "nonce": 2,
        "value": "0",
        "contractName": "BlockInfo",
        "function": "getBatchNumber",
        "params": [],
        "chainId": 1000,
        "reason": "",
        "gasLimit": 100000,
        "gasPrice": "1000000000",
        "data": "0x6d6516c0",
        "customRawTx": "0xea02843b9aca00830186a0941275fbb540c8efc58b812ba83b0d0b8b9917ae9880846d6516c08203e88080db91fc325e867faa9625a5c7c152dfaf207a992b6eea855fcabe264f489b043a431f20ba77bd0269a6aedb6287118d383305d0dd677478209e60f6d3af3b17201c",
        "rawTx": "0xf86a02843b9aca00830186a0941275fbb540c8efc58b812ba83b0d0b8b9917ae9880846d6516c08207f4a0db91fc325e867faa9625a5c7c152dfaf207a992b6eea855fcabe264f489b043aa0431f20ba77bd0269a6aedb6287118d383305d0dd677478209e60f6d3af3b1720"
      },
      {
        "from": "0x4d5Cf5032B2a844602278b01199ED191A86c93ff",
        "to": "0x1275fbb540c8efc58b812ba83b0d0b8b9917ae98",
        "nonce": 3,
        "value": "0",
        "contractName": "BlockInfo",
        "function": "getDifficulty",
        "params": [],
        "chainId": 1000,
        "reason": "",
        "gasLimit": 100000,
        "gasPrice": "1000000000",
        "data": "0xb6baffe3",
        "customRawTx": "0xea03843b9aca00830186a0941275fbb540c8efc58b812ba83b0d0b8b9917ae988084b6baffe38203e88080e0c0469634b096c3b190713c8a8faa9c4fccc8b2d83cc8da056a897a28a616277c5bf403ce3a4c77cb0c6ca14cdd24d8fa785b4a0bde1500abba55db7df7483a1b",
        "rawTx": "0xf86a03843b9aca00830186a0941275fbb540c8efc58b812ba83b0d0b8b9917ae988084b6baffe38207f3a0e0c0469634b096c3b190713c8a8faa9c4fccc8b2d83cc8da056a897a28a61627a07c5bf403ce3a4c77cb0c6ca14cdd24d8fa785b4a0bde1500abba55db7df7483a"
      },
      {
        "from": "0x4d5Cf5032B2a844602278b01199ED191A86c93ff",
        "to": "0x1275fbb540c8efc58b812ba83b0d0b8b9917ae98",
        "nonce": 4,
        "value": "0",
        "contractName": "BlockInfo",
        "function": "getGasLimit",
        "params": [],
        "chainId": 1000,
        "reason": "",
        "gasLimit": 100000,
        "gasPrice": "1000000000",
        "data": "0x1a93d1c3",
        "customRawTx": "0xea04843b9aca00830186a0941275fbb540c8efc58b812ba83b0d0b8b9917ae9880841a93d1c38203e8808057c7bfa7288275d862a91776d6d05c2290058a42840f08108b8b157f139120ce565bc8d0b5291e949c1c87e2f829b76d6a5d15e767e61716d1095dcc7cb5b44d1c",
        "rawTx": "0xf86a04843b9aca00830186a0941275fbb540c8efc58b812ba83b0d0b8b9917ae9880841a93d1c38207f4a057c7bfa7288275d862a91776d6d05c2290058a42840f08108b8b157f139120cea0565bc8d0b5291e949c1c87e2f829b76d6a5d15e767e61716d1095dcc7cb5b44d"
      },
      {
        "from": "0x4d5Cf5032B2a844602278b01199ED191A86c93ff",
        "to": "0x1275fbb540c8efc58b812ba83b0d0b8b9917ae98",
        "nonce": 5,
        "value": "0",
        "contractName": "BlockInfo",
        "function": "getChainId",
        "params": [],
        "chainId": 1000,
        "reason": "",
        "gasLimit": 100000,
        "gasPrice": "1000000000",
        "data": "0x3408e470",
        "customRawTx": "0xea05843b9aca00830186a0941275fbb540c8efc58b812ba83b0d0b8b9917ae9880843408e4708203e88080e255f868a61169a2330cb539671e1a66ee846bc06cc888ea8fcd7ae51cdc62940c6dec27e6f756dd84923bcebb1f85db125299c0b622eaa8d5722cb3dace239d1c",
        "rawTx": "0xf86a05843b9aca00830186a0941275fbb540c8efc58b812ba83b0d0b8b9917ae9880843408e4708207f4a0e255f868a61169a2330cb539671e1a66ee846bc06cc888ea8fcd7ae51cdc6294a00c6dec27e6f756dd84923bcebb1f85db125299c0b622eaa8d5722cb3dace239d"
      }
    ],
    "expectedNewRoot": "0x5a0c240893e511322e5278b3f807bb9cd588efca66719b49b6963b98b6211a7c",
    "expectedNewLeafs": {
      "0xa40d5f56745a118d0906a34e69aec8c0db1cb8fa": {
        "balance": "0",
        "nonce": "0",
        "storage": {
          "0x53d3f126103a7f7d6245751d2392e0245bf71479d10a3c27a5b501ace6dde1b7": "0x73e6af6f"
        },
        "hashBytecode": "0x0000000000000000000000000000000000000000000000000000000000000000",
        "bytecodeLength": 0
      },
      "0x0000000000000000000000000000000000000000": {
        "balance": "0",
        "nonce": "0",
        "storage": null,
        "hashBytecode": "0x0000000000000000000000000000000000000000000000000000000000000000",
        "bytecodeLength": 0
      },
      "0xae4bb80be56b819606589de61d5ec3b522eeb032": {
        "balance": "0",
        "nonce": "0",
        "storage": null,
        "hashBytecode": "0x0000000000000000000000000000000000000000000000000000000000000000",
        "bytecodeLength": 0
      },
      "0x617b3a3528f9cdd6630fd3301b9c8911f7bf063d": {
        "balance": "100000240372000000000",
        "nonce": "1",
        "storage": null,
        "hashBytecode": "0x0000000000000000000000000000000000000000000000000000000000000000",
        "bytecodeLength": 0
      },
      "0x1275fbb540c8efc58b812ba83b0d0b8b9917ae98": {
        "balance": "0",
        "nonce": "1",
        "storage": {
          "0x0000000000000000000000000000000000000000000000000000000000000000": "0x617b3a3528f9cdd6630fd3301b9c8911f7bf063d",
          "0x0000000000000000000000000000000000000000000000000000000000000002": "0x73e6af6f",
          "0x0000000000000000000000000000000000000000000000000000000000000003": "0x03",
          "0x0000000000000000000000000000000000000000000000000000000000000005": "0x01c9c380",
          "0x0000000000000000000000000000000000000000000000000000000000000006": "0x03e8"
        },
        "hashBytecode": "0x3683afc3f35fba06b75ccdf2603d9a3c09f9dbda7b17994fc6cfc3e5f3cf40ef",
        "bytecodeLength": 1075
      },
      "0x4d5cf5032b2a844602278b01199ed191a86c93ff": {
        "balance": "199999759628000000000",
        "nonce": "6",
        "storage": null,
        "hashBytecode": "0x0000000000000000000000000000000000000000000000000000000000000000",
        "bytecodeLength": 0
      },
      "0x000000000000000000000000000000005ca1ab1e": {
        "balance": "0",
        "nonce": "0",
        "storage": {
          "0x0000000000000000000000000000000000000000000000000000000000000000": "0x06",
          "0x7dfe757ecd65cbd7922a9c0161e935dd7fdbcc0e999689c7d31633896b1fc60b": "0xde818d4460ba8d9b8385aa4bc0ddba42ee9beec2a889f9d1508905a88a7c5d15",
          "0x8f331abe73332f95a25873e8b430885974c0409691f89d643119a11623a7924a": "0x414b1c68af0be03f9a153e9a2457cee208189e9b07048b156013c41ad635447b",
          "0xcc69885fda6bcc1a4ace058b4a62bf5e179ea78fd58a1ccd71c22cc9b688792f": "0x8cce07d8188f3d7edb6368600032ccbeb12396c9a7be0315918feb0a9968ebc5",
          "0xd9d16d34ffb15ba3a3d852f0d403e2ce1d691fb54de27ac87cd2f993f3ec330f": "0x33cb0e3e9ab49a92873cf231bc8554f99397dfe49e64f9f2e4a383471de92c3f",
          "0xe2689cd4a84e23ad2f564004f1c9013e9589d260bde6380aba3ca7e09e4df40c": "0x2452ac1d1454425c9b4e1f963f96e22d4cc7dad8c0631059b73f9ac7b75721e5",
          "0xedc95719e9a3b28dd8e80877cb5880a9be7de1a13fc8b05e7999683b6b567643": "0x2b79e6d20e24d18c4a4e6b303f2e085efea524f32162ceaea1f82582ad15b5df"
        },
        "hashBytecode": "0x0000000000000000000000000000000000000000000000000000000000000000",
        "bytecodeLength": 0
      }
    },
    "batchL2Data": "0xea80843b9aca00830186a0941275fbb540c8efc58b812ba83b0d0b8b9917ae988084188ec3568203e880800a62ce9876e027f7a954f96c485c63c9bf043bd1fe1012c5634cf959bf7743190a601eedbcfef58146bdda9845fea5d9356b09d667010d557c73f83353a119a61cea01843b9aca00830186a0941275fbb540c8efc58b812ba83b0d0b8b9917ae988084d1a82a9d8203e880803c696d27506eebe00e52cd1c327eefd2ebb8c7a5d5309118ad18381630b2a5d47971958df81d8daa0d393daddb17a250c294452078db34b22d9e5ee85d2482e81bea02843b9aca00830186a0941275fbb540c8efc58b812ba83b0d0b8b9917ae9880846d6516c08203e88080db91fc325e867faa9625a5c7c152dfaf207a992b6eea855fcabe264f489b043a431f20ba77bd0269a6aedb6287118d383305d0dd677478209e60f6d3af3b17201cea03843b9aca00830186a0941275fbb540c8efc58b812ba83b0d0b8b9917ae988084b6baffe38203e88080e0c0469634b096c3b190713c8a8faa9c4fccc8b2d83cc8da056a897a28a616277c5bf403ce3a4c77cb0c6ca14cdd24d8fa785b4a0bde1500abba55db7df7483a1bea04843b9aca00830186a0941275fbb540c8efc58b812ba83b0d0b8b9917ae9880841a93d1c38203e8808057c7bfa7288275d862a91776d6d05c2290058a42840f08108b8b157f139120ce565bc8d0b5291e949c1c87e2f829b76d6a5d15e767e61716d1095dcc7cb5b44d1cea05843b9aca00830186a0941275fbb540c8efc58b812ba83b0d0b8b9917ae9880843408e4708203e88080e255f868a61169a2330cb539671e1a66ee846bc06cc888ea8fcd7ae51cdc62940c6dec27e6f756dd84923bcebb1f85db125299c0b622eaa8d5722cb3dace239d1c",
    "globalExitRoot": "0x090bcaf734c4f06c93954a827b45a6e8c67b8e0fd1e0a35a1c5982d6961828f9",
    "newLocalExitRoot": "0x0000000000000000000000000000000000000000000000000000000000000000",
    "batchHashData": "0xcc387c562528dcc81765f91d3eb572e96815b20d870a3715e0e83c5153a4c696",
    "oldLocalExitRoot": "0x0000000000000000000000000000000000000000000000000000000000000000",
    "oldAccInputHash": "0x0000000000000000000000000000000000000000000000000000000000000000",
    "timestamp": 1944498031,
    "expectedNewAccInputHash": "0x73bc24d2f3638c7f9fe0b46739e4db2413d50360d5b98cd58e65350c0048ac10"
  }
]