[
  {
    "id": 0,
    "description": "Get timestamp",
    "chainIdSequencer": 1001,
    "defaultChainId": 1000,
    "sequencerAddress": "0x617b3a3528F9cDd6630fd3301B9c8911F7Bf063D",
    "sequencerPvtKey": "0x28b2b0318721be8c8339199172cd7cc8f5e273800a35616ec893083a4b32c02e",
    "genesis": [
      {
        "balance": "100000000000000000000",
        "nonce": "1",
        "address": "0x617b3a3528f9cdd6630fd3301b9c8911f7bf063d",
        "pvtKey": "0x28b2b0318721be8c8339199172cd7cc8f5e273800a35616ec893083a4b32c02e"
      },
      {
        "balance": "0",
        "nonce": "1",
        "address": "0x1275fbb540c8efc58b812ba83b0d0b8b9917ae98",
        "bytecode": "0x608060405234801561001057600080fd5b50600436106100b45760003560e01c8063ab8fd80c11610071578063ab8fd80c14610131578063ad3576611461014f578063b6baffe31461016d578063d1123dde14610177578063d1a82a9d14610195578063e9413d381461019f576100b4565b8063188ec356146100b95780631a93d1c3146100c357806346f22384146100cd5780636d6516c0146100eb578063773a54d0146100f55780637e773d9d14610113575b600080fd5b6100c16101bb565b005b6100cb6101c4565b005b6100d56101cd565b6040516100e29190610313565b60405180910390f35b6100f36101d3565b005b6100fd6101dc565b60405161010a91906102dd565b60405180910390f35b61011b610200565b6040516101289190610313565b60405180910390f35b610139610206565b60405161014691906102f8565b60405180910390f35b61015761020c565b6040516101649190610313565b60405180910390f35b610175610212565b005b61017f61021b565b60405161018c9190610313565b60405180910390f35b61019d610221565b005b6101b960048036038101906101b49190610283565b610263565b005b42600281905550565b45600581905550565b60045481565b43600381905550565b60008054906101000a900473ffffffffffffffffffffffffffffffffffffffff1681565b60025481565b60015481565b60035481565b44600481905550565b60055481565b416000806101000a81548173ffffffffffffffffffffffffffffffffffffffff021916908373ffffffffffffffffffffffffffffffffffffffff160217905550565b804060018190555050565b60008135905061027d81610379565b92915050565b60006020828403121561029957610298610374565b5b60006102a78482850161026e565b91505092915050565b6102b98161032e565b82525050565b6102c881610340565b82525050565b6102d78161036a565b82525050565b60006020820190506102f260008301846102b0565b92915050565b600060208201905061030d60008301846102bf565b92915050565b600060208201905061032860008301846102ce565b92915050565b60006103398261034a565b9050919050565b6000819050919050565b600073ffffffffffffffffffffffffffffffffffffffff82169050919050565b6000819050919050565b600080fd5b6103828161036a565b811461038d57600080fd5b5056fea26469706673582212208b717da1980742c68b364f008c4ab6dbcce55566ee44045c15ccda734d733cc864736f6c63430008070033",
        "storage": {},
        "contractName": "BlockInfo"
      },
      {
        "address": "0x4d5Cf5032B2a844602278b01199ED191A86c93ff",
        "pvtKey": "0x4d27a600dce8c29b7bd080e29a26972377dbb04d7a27d919adbb602bf13cfd23",
        "balance": "200000000000000000000",
        "nonce": "0"
      }
    ],
    "expectedOldRoot": "0x3b1b9209ba3ce2ff60c18d86181ae41507ab8ad8ec23075d14bea14ea187e37b",
    "txs": [
      {
        "from": "0x4d5Cf5032B2a844602278b01199ED191A86c93ff",
        "to": "0x1275fbb540c8efc58b812ba83b0d0b8b9917ae98",
        "nonce": 0,
        "value": "0",
        "contractName": "BlockInfo",
        "function": "getTimestamp",
        "params": [],
        "chainId": 1001,
        "reason": "",
        "gasLimit": 100000,
        "gasPrice": "1000000000",
        "data": "0x188ec356",
        "customRawTx": "0xea80843b9aca00830186a0941275fbb540c8efc58b812ba83b0d0b8b9917ae988084188ec3568203e980800c6761ceaf3e5c449369623fabaafe404918eadb140ef43d0053f93133f59eff628284440484b5916512cb5451306e95ecd80c0f42c1e3414111a8899a676a6c1c",
        "rawTx": "0xf86a80843b9aca00830186a0941275fbb540c8efc58b812ba83b0d0b8b9917ae988084188ec3568207f6a00c6761ceaf3e5c449369623fabaafe404918eadb140ef43d0053f93133f59effa0628284440484b5916512cb5451306e95ecd80c0f42c1e3414111a8899a676a6c"
      },
      {
        "from": "0x4d5Cf5032B2a844602278b01199ED191A86c93ff",
        "to": "0x1275fbb540c8efc58b812ba83b0d0b8b9917ae98",
        "nonce": 1,
        "value": "0",
        "contractName": "BlockInfo",
        "function": "getCoinbase",
        "params": [],
        "chainId": 1001,
        "reason": "",
        "gasLimit": 100000,
        "gasPrice": "1000000000",
        "data": "0xd1a82a9d",
        "customRawTx": "0xea01843b9aca00830186a0941275fbb540c8efc58b812ba83b0d0b8b9917ae988084d1a82a9d8203e9808062d7e56cc01c83fb958055ad8601082887c817e5ff3d3d9e5a2a842776be264969a554643c723169331ff1865894d6820e528b5e6ace1233ce373427851e9f241c",
        "rawTx": "0xf86a01843b9aca00830186a0941275fbb540c8efc58b812ba83b0d0b8b9917ae988084d1a82a9d8207f6a062d7e56cc01c83fb958055ad8601082887c817e5ff3d3d9e5a2a842776be2649a069a554643c723169331ff1865894d6820e528b5e6ace1233ce373427851e9f24"
      },
      {
        "from": "0x4d5Cf5032B2a844602278b01199ED191A86c93ff",
        "to": "0x1275fbb540c8efc58b812ba83b0d0b8b9917ae98",
        "nonce": 2,
        "value": "0",
        "contractName": "BlockInfo",
        "function": "getBatchNumber",
        "params": [],
        "chainId": 1001,
        "reason": "",
        "gasLimit": 100000,
        "gasPrice": "1000000000",
        "data": "0x6d6516c0",
        "customRawTx": "0xea02843b9aca00830186a0941275fbb540c8efc58b812ba83b0d0b8b9917ae9880846d6516c08203e9808043eef988913d3828c789105b49009ecd97840dc87dda222b5570df0b374f843a04760a583ccbbcddf8dbef35b87195fcec574b1875076aeac4c9047ebdf340291b",
        "rawTx": "0xf86a02843b9aca00830186a0941275fbb540c8efc58b812ba83b0d0b8b9917ae9880846d6516c08207f5a043eef988913d3828c789105b49009ecd97840dc87dda222b5570df0b374f843aa004760a583ccbbcddf8dbef35b87195fcec574b1875076aeac4c9047ebdf34029"
      },
      {
        "from": "0x4d5Cf5032B2a844602278b01199ED191A86c93ff",
        "to": "0x1275fbb540c8efc58b812ba83b0d0b8b9917ae98",
        "nonce": 3,
        "value": "0",
        "contractName": "BlockInfo",
        "function": "getDifficulty",
        "params": [],
        "chainId": 1001,
        "reason": "",
        "gasLimit": 100000,
        "gasPrice": "1000000000",
        "data": "0xb6baffe3",
        "customRawTx": "0xea03843b9aca00830186a0941275fbb540c8efc58b812ba83b0d0b8b9917ae988084b6baffe38203e9808009ddccd7cce4428387c6f519b485ab104f4c301bfa87f2a467959398e6eb4b865f170dadd65e22ce85ec81d135e360eb9369c5302c7f9d2c801fc66c6b499c821b",
        "rawTx": "0xf86a03843b9aca00830186a0941275fbb540c8efc58b812ba83b0d0b8b9917ae988084b6baffe38207f5a009ddccd7cce4428387c6f519b485ab104f4c301bfa87f2a467959398e6eb4b86a05f170dadd65e22ce85ec81d135e360eb9369c5302c7f9d2c801fc66c6b499c82"
      },
      {
        "from": "0x4d5Cf5032B2a844602278b01199ED191A86c93ff",
        "to": "0x1275fbb540c8efc58b812ba83b0d0b8b9917ae98",
        "nonce": 4,
        "value": "0",
        "contractName": "BlockInfo",
        "function": "getGasLimit",
        "params": [],
        "chainId": 1001,
        "reason": "",
        "gasLimit": 100000,
        "gasPrice": "1000000000",
        "data": "0x1a93d1c3",
        "customRawTx": "0xea04843b9aca00830186a0941275fbb540c8efc58b812ba83b0d0b8b9917ae9880841a93d1c38203e980809ce1b8191e16ca6cc8e96c6e7501ea36a9da82a7f61713d795b04a1c378a7bca3f85dc0e3c2a5eaed1a63bdb3da2b34f5d087e0a6f0b0fa5109f06f6b760c7451c",
        "rawTx": "0xf86a04843b9aca00830186a0941275fbb540c8efc58b812ba83b0d0b8b9917ae9880841a93d1c38207f6a09ce1b8191e16ca6cc8e96c6e7501ea36a9da82a7f61713d795b04a1c378a7bcaa03f85dc0e3c2a5eaed1a63bdb3da2b34f5d087e0a6f0b0fa5109f06f6b760c745"
      }
    ],
    "expectedNewRoot": "0xcbba557146e99fb63e83399f418cfe20a6aefb8a18ef03fbda00b006199846bd",
    "expectedNewLeafs": {
      "0x0000000000000000000000000000000000000000": {
        "balance": "0",
        "nonce": "0",
        "storage": {
          "0xad3228b676f7d3cd4284a5443f17f1962b36e491b30a40b2405849e597ba5fb5": "0x3b1b9209ba3ce2ff60c18d86181ae41507ab8ad8ec23075d14bea14ea187e37b"
        }
      },
      "0xAE4bB80bE56B819606589DE61d5ec3b522EEB032": {
        "balance": "0",
        "nonce": "0",
        "storage": {
          "0xada5013122d395ba3c54772283fb069b10426056ef8ca54750cb9bb552a59e7d": "0x090bcaf734c4f06c93954a827b45a6e8c67b8e0fd1e0a35a1c5982d6961828f9"
        }
      },
      "0x4d5cf5032b2a844602278b01199ed191a86c93ff": {
        "balance": "199999803019000000000",
        "nonce": "5"
      },
      "0x1275fbb540c8efc58b812ba83b0d0b8b9917ae98": {
        "balance": "0",
        "nonce": "1",
        "storage": {
          "0x0000000000000000000000000000000000000000000000000000000000000000": "0x617b3a3528f9cdd6630fd3301b9c8911f7bf063d",
          "0x0000000000000000000000000000000000000000000000000000000000000002": "0x73e6af6f",
          "0x0000000000000000000000000000000000000000000000000000000000000003": "0x01",
          "0x0000000000000000000000000000000000000000000000000000000000000005": "0x01c9c380"
        }
      },
      "0x617b3a3528f9cdd6630fd3301b9c8911f7bf063d": {
        "balance": "100000196981000000000",
        "nonce": "1"
      }
    },
    "batchL2Data": "0xea80843b9aca00830186a0941275fbb540c8efc58b812ba83b0d0b8b9917ae988084188ec3568203e980800c6761ceaf3e5c449369623fabaafe404918eadb140ef43d0053f93133f59eff628284440484b5916512cb5451306e95ecd80c0f42c1e3414111a8899a676a6c1cea01843b9aca00830186a0941275fbb540c8efc58b812ba83b0d0b8b9917ae988084d1a82a9d8203e9808062d7e56cc01c83fb958055ad8601082887c817e5ff3d3d9e5a2a842776be264969a554643c723169331ff1865894d6820e528b5e6ace1233ce373427851e9f241cea02843b9aca00830186a0941275fbb540c8efc58b812ba83b0d0b8b9917ae9880846d6516c08203e9808043eef988913d3828c789105b49009ecd97840dc87dda222b5570df0b374f843a04760a583ccbbcddf8dbef35b87195fcec574b1875076aeac4c9047ebdf340291bea03843b9aca00830186a0941275fbb540c8efc58b812ba83b0d0b8b9917ae988084b6baffe38203e9808009ddccd7cce4428387c6f519b485ab104f4c301bfa87f2a467959398e6eb4b865f170dadd65e22ce85ec81d135e360eb9369c5302c7f9d2c801fc66c6b499c821bea04843b9aca00830186a0941275fbb540c8efc58b812ba83b0d0b8b9917ae9880841a93d1c38203e980809ce1b8191e16ca6cc8e96c6e7501ea36a9da82a7f61713d795b04a1c378a7bca3f85dc0e3c2a5eaed1a63bdb3da2b34f5d087e0a6f0b0fa5109f06f6b760c7451c",
    "globalExitRoot": "0x090bcaf734c4f06c93954a827b45a6e8c67b8e0fd1e0a35a1c5982d6961828f9",
    "newLocalExitRoot": "0x0000000000000000000000000000000000000000000000000000000000000000",
    "inputHash": "0x694f7d4ea45092bb87829f865d2e7d305b6f888f619f19186b712f205cbe28ab",
    "batchHashData": "0x7dd84e062ab6869c4c1f2b377e80c2a8ed9a60fe2eb84bcd41133a53de069470",
    "oldLocalExitRoot": "0x0000000000000000000000000000000000000000000000000000000000000000",
    "timestamp": 1944498031
  }
]