[
  {
    "extraInfo": {
      "name": "ETH TRANSFER"
    },
    "tx": {
      "type": 1,
      "nonce": "13",
      "gasPrice": "123000000000",
      "gasLimit": "1000000",
      "to": "0x3ec49e613AE70BEb0631D7666f46D4ff2813932E",
      "value": "100000000000000000",
      "data": "0x",
      "chainId": 5
    },
    "expected": {
      "compressed": "0x414da17b09a10106c03ec49e613AE70BEb0631D7666f46D4ff2813932Ea17b0900a17b09",
      "nonCompressed": "0xed0d851ca35f0e00830f4240943ec49e613ae70beb0631d7666f46d4ff2813932e88016345785d8a000080058080",
      "fullCompressed": "0x414da17b09a101068101a17b0900a17b09"
    }
  },
  {
    "extraInfo": {
      "name": "ERC20: TRANSFER"
    },
    "tx": {
      "type": 1,
      "nonce": "0",
      "gasPrice": "1000000000",
      "gasLimit": "100000",
      "to": "0x1275fbb540c8efc58b812ba83b0d0b8b9917ae98",
      "value": "0",
      "data": "0xa9059cbb000000000000000000000000617b3a3528f9cdd6630fd3301b9c8911f7bf063d0000000000000000000000000000000000000000000000000000000000000064",
      "chainId": 1000
    },
    "expected": {
      "compressed": "0x4140a10109a10105c01275fbb540c8efc58b812ba83b0d0b8b9917ae98a1010904a9059cbb14617b3a3528f9cdd6630fd3301b9c8911f7bf063d0164a10109",
      "nonCompressed": "0xf86b80843b9aca00830186a0941275fbb540c8efc58b812ba83b0d0b8b9917ae9880b844a9059cbb000000000000000000000000617b3a3528f9cdd6630fd3301b9c8911f7bf063d00000000000000000000000000000000000000000000000000000000000000648203e88080",
      "fullCompressed": "0x4140a10109a101058104a1010904a9059cbb810c0164a10109"
    }
  },
  {
    "extraInfo": {
      "name": "ERC20: TRANSFER_FROM"
    },
    "tx": {
      "type": 1,
      "nonce": "2",
      "gasPrice": "1000000000",
      "gasLimit": "100000",
      "to": "0x1275fbb540c8efc58b812ba83b0d0b8b9917ae98",
      "value": "0",
      "data": "0x23b872dd000000000000000000000000617b3a3528f9cdd6630fd3301b9c8911f7bf063d0000000000000000000000004d5cf5032b2a844602278b01199ed191a86c93ff0000000000000000000000000000000000000000000000000000000000000320",
      "chainId": 1101
    },
    "expected": {
      "compressed": "0x4140a10109a10105c01275fbb540c8efc58b812ba83b0d0b8b9917ae98a1010904a9059cbb14617b3a3528f9cdd6630fd3301b9c8911f7bf063d0164a10109",
      "nonCompressed": "0xf86b80843b9aca00830186a0941275fbb540c8efc58b812ba83b0d0b8b9917ae9880b844a9059cbb000000000000000000000000617b3a3528f9cdd6630fd3301b9c8911f7bf063d00000000000000000000000000000000000000000000000000000000000000648203e88080",
      "fullCompressed": "0x4142a10109a101058104a101090423b872dd810c8106a10802a10109"
    }
  },
  {
    "extraInfo": {
      "name": "UNISWAP: SWAP_EXACT_TOKENS_FOR_TOKENS"
    },
    "tx": {
      "type": 1,
      "nonce": "5",
      "gasPrice": "1000000000",
      "gasLimit": "1500000",
      "to": "0x7b086db4c71520cde18d5a7db5a3001ddc122838",
      "value": "0",
      "data": "0x38ed17390000000000000000000000000000000000000000000000000000000000000064000000000000000000000000000000000000000000000000000000000000000100000000000000000000000000000000000000000000000000000000000000a0000000000000000000000000617b3a3528f9cdd6630fd3301b9c8911f7bf063d000000000000000000000000000000000000000000000000000000e8d4a50fff000000000000000000000000000000000000000000000000000000000000000200000000000000000000000013db4b51c5174ee2366e878a367aa1d426970ade00000000000000000000000085e844b762a271022b692cf99ce5c59ba0650ac8",
      "chainId": 1101
    },
    "expected": {
      "compressed": "0x4140a10109a10105c01275fbb540c8efc58b812ba83b0d0b8b9917ae98a1010904a9059cbb14617b3a3528f9cdd6630fd3301b9c8911f7bf063d0164a10109",
      "nonCompressed": "0xf86b80843b9aca00830186a0941275fbb540c8efc58b812ba83b0d0b8b9917ae9880b844a9059cbb000000000000000000000000617b3a3528f9cdd6630fd3301b9c8911f7bf063d00000000000000000000000000000000000000000000000000000000000000648203e88080",
      "fullCompressed": "0x4145a10109a10f05810ba101090438ed173901644101a0810c05e8d4a50fff428109810aa10109"
    }
  },
  {
    "extraInfo": {
      "name": "NFT: MINT"
    },
    "tx": {
      "type": 1,
      "nonce": "5",
      "gasPrice": "1000000000",
      "gasLimit": "1500000",
      "to": "0x7b086db4c71520cde18d5a7db5a3001ddc122838",
      "value": "0",
      "data": "0xeacabe14000000000000000000000000617b3a3528f9cdd6630fd3301b9c8911f7bf063d000000000000000000000000000000000000000000000000000000000000004000000000000000000000000000000000000000000000000000000000000000037572690000000000000000000000000000000000000000000000000000000000",
      "chainId": 1101
    },
    "expected": {
      "compressed": "0x4140a10109a10105c01275fbb540c8efc58b812ba83b0d0b8b9917ae98a1010904a9059cbb14617b3a3528f9cdd6630fd3301b9c8911f7bf063d0164a10109",
      "nonCompressed": "0xf86b80843b9aca00830186a0941275fbb540c8efc58b812ba83b0d0b8b9917ae9880b844a9059cbb000000000000000000000000617b3a3528f9cdd6630fd3301b9c8911f7bf063d00000000000000000000000000000000000000000000000000000000000000648203e88080",
      "fullCompressed": "0x4145a10109a10f05810ba1010904eacabe14810c014043c17572690000000000000000000000000000000000000000000000000000000000a10109"
    }
  }
]