[
  {
    "extraInfo": {
      "name": "ETH TRANSFER"
    },
    "tx": {
      "type": 1,
      "nonce": "13",
      "gasPrice": "123000000000",
      "gasLimit": "1000000",
      "to": "0x3ec49e613AE70BEb0631D7666f46D4ff2813932E",
      "value": "100000000000000000",
      "data": "0x",
      "chainId": 5
    },
    "expected": {
      "compressed": "0x414da17b09a10106c03ec49e613AE70BEb0631D7666f46D4ff2813932Ea10111404501ff",
      "nonCompressed": "0xed0d851ca35f0e00830f4240943ec49e613ae70beb0631d7666f46d4ff2813932e88016345785d8a000080058080",
      "fullCompressed": "0x414da17b09a101068101a10111404501ff"
    }
  },
  {
    "extraInfo": {
      "name": "ERC20: TRANSFER"
    },
    "tx": {
      "type": 1,
      "nonce": "0",
      "gasPrice": "1000000000",
      "gasLimit": "100000",
      "to": "0x1275fbb540c8efc58b812ba83b0d0b8b9917ae98",
      "value": "0",
      "data": "0xa9059cbb000000000000000000000000617b3a3528f9cdd6630fd3301b9c8911f7bf063d0000000000000000000000000000000000000000000000000000000000000064",
      "chainId": 1000
    },
    "expected": {
      "compressed": "0x4140a10109a10105c01275fbb540c8efc58b812ba83b0d0b8b9917ae9840014404a9059cbb14617b3a3528f9cdd6630fd3301b9c8911f7bf063d01640203e801ff",
      "nonCompressed": "0xf86b80843b9aca00830186a0941275fbb540c8efc58b812ba83b0d0b8b9917ae9880b844a9059cbb000000000000000000000000617b3a3528f9cdd6630fd3301b9c8911f7bf063d00000000000000000000000000000000000000000000000000000000000000648203e88080",
      "fullCompressed": "0x4140a10109a10105810440014404a9059cbb810c01640203e801ff"
    }
  },
  {
    "extraInfo": {
      "name": "ERC20: TRANSFER_FROM"
    },
    "tx": {
      "type": 1,
      "nonce": "2",
      "gasPrice": "1000000000",
      "gasLimit": "100000",
      "to": "0x1275fbb540c8efc58b812ba83b0d0b8b9917ae98",
      "value": "0",
      "data": "0x23b872dd000000000000000000000000617b3a3528f9cdd6630fd3301b9c8911f7bf063d0000000000000000000000004d5cf5032b2a844602278b01199ed191a86c93ff0000000000000000000000000000000000000000000000000000000000000320",
      "chainId": 1101
    },
    "expected": {
      "compressed": "0x4142a10109a10105c01275fbb540c8efc58b812ba83b0d0b8b9917ae984001640423b872dd14617b3a3528f9cdd6630fd3301b9c8911f7bf063d144d5cf5032b2a844602278b01199ed191a86c93ffa1080202044d01ff",
      "nonCompressed": "0xf88b02843b9aca00830186a0941275fbb540c8efc58b812ba83b0d0b8b9917ae9880b86423b872dd000000000000000000000000617b3a3528f9cdd6630fd3301b9c8911f7bf063d0000000000000000000000004d5cf5032b2a844602278b01199ed191a86c93ff000000000000000000000000000000000000000000000000000000000000032082044d8080",
      "fullCompressed": "0x4142a10109a1010581044001640423b872dd810c8106a1080202044d01ff"
    }
  },
  {
    "extraInfo": {
      "name": "UNISWAP: SWAP_EXACT_TOKENS_FOR_TOKENS"
    },
    "tx": {
      "type": 1,
      "nonce": "5",
      "gasPrice": "1000000000",
      "gasLimit": "1500000",
      "to": "0x7b086db4c71520cde18d5a7db5a3001ddc122838",
      "value": "0",
      "data": "0x38ed17390000000000000000000000000000000000000000000000000000000000000064000000000000000000000000000000000000000000000000000000000000000100000000000000000000000000000000000000000000000000000000000000a0000000000000000000000000617b3a3528f9cdd6630fd3301b9c8911f7bf063d000000000000000000000000000000000000000000000000000000e8d4a50fff000000000000000000000000000000000000000000000000000000000000000200000000000000000000000013db4b51c5174ee2366e878a367aa1d426970ade00000000000000000000000085e844b762a271022b692cf99ce5c59ba0650ac8",
      "chainId": 1101
    },
    "expected": {
      "compressed": "0x4145a10109a10f05c07b086db4c71520cde18d5a7db5a3001ddc122838400201040438ed173901644101a014617b3a3528f9cdd6630fd3301b9c8911f7bf063d05e8d4a50fff421413db4b51c5174ee2366e878a367aa1d426970ade1485e844b762a271022b692cf99ce5c59ba0650ac802044d01ff",
      "nonCompressed": "0xf9012c05843b9aca008316e360947b086db4c71520cde18d5a7db5a3001ddc12283880b9010438ed17390000000000000000000000000000000000000000000000000000000000000064000000000000000000000000000000000000000000000000000000000000000100000000000000000000000000000000000000000000000000000000000000a0000000000000000000000000617b3a3528f9cdd6630fd3301b9c8911f7bf063d000000000000000000000000000000000000000000000000000000e8d4a50fff000000000000000000000000000000000000000000000000000000000000000200000000000000000000000013db4b51c5174ee2366e878a367aa1d426970ade00000000000000000000000085e844b762a271022b692cf99ce5c59ba0650ac882044d8080",
      "fullCompressed": "0x4145a10109a10f05810b400201040438ed173901644101a0810c05e8d4a50fff428109810a02044d01ff"
    }
  },
  {
    "extraInfo": {
      "name": "NFT: MINT"
    },
    "tx": {
      "type": 1,
      "nonce": "5",
      "gasPrice": "1000000000",
      "gasLimit": "1500000",
      "to": "0x7b086db4c71520cde18d5a7db5a3001ddc122838",
      "value": "0",
      "data": "0xeacabe14000000000000000000000000617b3a3528f9cdd6630fd3301b9c8911f7bf063d000000000000000000000000000000000000000000000000000000000000004000000000000000000000000000000000000000000000000000000000000000037572690000000000000000000000000000000000000000000000000000000000",
      "chainId": 1101
    },
    "expected": {
      "compressed": "0x4145a10109a10f05c07b086db4c71520cde18d5a7db5a3001ddc12283840018404eacabe1414617b3a3528f9cdd6630fd3301b9c8911f7bf063d014043e375726902044d01ff",
      "nonCompressed": "0xf8ab05843b9aca008316e360947b086db4c71520cde18d5a7db5a3001ddc12283880b884eacabe14000000000000000000000000617b3a3528f9cdd6630fd3301b9c8911f7bf063d00000000000000000000000000000000000000000000000000000000000000400000000000000000000000000000000000000000000000000000000000000003757269000000000000000000000000000000000000000000000000000000000082044d8080",
      "fullCompressed": "0x4145a10109a10f05810b40018404eacabe14810c014043e375726902044d01ff"
    }
  },
  {
    "extraInfo": {
      "name": "CHANGE L2 BLOCK"
    },
    "tx": {
      "type": 4,
      "deltaTimestamp": "1944498031",
      "newGER": "0x090bcaf734c4f06c93954a827b45a6e8c67b8e0fd1e0a35a1c5982d6961828f9",
      "indexHistoricalGERTree": 1
    },
    "expected": {
      "compressed": "0x440473e6af6f2120090bcaf734c4f06c93954a827b45a6e8c67b8e0fd1e0a35a1c5982d6961828f941",
      "nonCompressed": "0x73e6af6f090bcaf734c4f06c93954a827b45a6e8c67b8e0fd1e0a35a1c5982d6961828f90000000000000001",
      "fullCompressed": "0x440473e6af6f2120090bcaf734c4f06c93954a827b45a6e8c67b8e0fd1e0a35a1c5982d6961828f941"
    }
  }
]