[
  {
    "id": 0,
    "description": "e2e all circuits",
    "chainID": 1000,
    "forkID": 10,
    "aggregatorAddress": "0x64E968003c934F8d7Ad9a4e30F48EE8e2409baE6",
    "sequencerPvtKey": "0x28b2b0318721be8c8339199172cd7cc8f5e273800a35616ec893083a4b32c02e",
    "genesis": [
      {
        "address": "0x617b3a3528f9cdd6630fd3301b9c8911f7bf063d",
        "balance": "100000000000000000000",
        "nonce": "0",
        "pvtKey": "0x28b2b0318721be8c8339199172cd7cc8f5e273800a35616ec893083a4b32c02e"
      },
      {
        "address": "0x4d5Cf5032B2a844602278b01199ED191A86c93ff",
        "balance": "200000000000000000000",
        "nonce": "0",
        "pvtKey": "0x4d27a600dce8c29b7bd080e29a26972377dbb04d7a27d919adbb602bf13cfd23"
      }
    ],
    "oldStateRoot": "0x4a9bfcb163ec91c5beb22e6aca41592433092c8c7821b01d37fd0de483f9265d",
    "oldLocalExitRoot": "0x0000000000000000000000000000000000000000000000000000000000000000",
    "oldBatchAccInputHash": "0x0000000000000000000000000000000000000000000000000000000000000000",
    "blobOuters": [
      {
        "zkGasLimit": "10000000",
        "blobType": 0,
        "forcedHashData": "0x0000000000000000000000000000000000000000000000000000000000000000",
        "previousL1InfoTreeRoot": "0x0000000000000000000000000000000000000000000000000000000000000000",
        "previousL1InfoTreeIndex": 0,
        "oldBatchAccInputHash": "0x0000000000000000000000000000000000000000000000000000000000000000",
        "batches": [
          {
            "txs": [
              {
                "type": 11,
                "coinbase": "0x617b3a3528F9cDd6630fd3301B9c8911F7Bf063D",
                "deltaTimestamp": "1",
                "l1InfoTree": {
                  "globalExitRoot": "0x16994edfddddb9480667b64174fc00d3b6da7290d37b8db3a16571b4ddf0789f",
                  "blockHash": "0x24a5871d68723340d9eadc674aa8ad75f3e33b61d5a9db7db92af856a19270bb",
                  "minTimestamp": "42"
                },
                "indexL1InfoTree": 0,
                "reason": "",
                "customRawTx": "0x0b0000000100000000617b3a3528f9cdd6630fd3301b9c8911f7bf063d"
              },
              {
                "from": "0x617b3a3528f9cdd6630fd3301b9c8911f7bf063d",
                "to": "0x4d5Cf5032B2a844602278b01199ED191A86c93ff",
                "nonce": 0,
                "value": "22000000000000000000",
                "gasLimit": 100000,
                "gasPrice": "1000000000",
                "chainId": 1000,
                "rawTx": "0xf86f80843b9aca00830186a0944d5cf5032b2a844602278b01199ed191a86c93ff8901314fb37062980000808207f3a0f9ea8e90ae323e360a22bd0b1a972d15cb33df6ccbfbada4a0d49792d1164ea5a06029d84d5093a7186fb5bf2f1b7258d57e9c09ac89c4cb8eb44a3c961c4dd89b",
                "customRawTx": "0xef80843b9aca00830186a0944d5cf5032b2a844602278b01199ed191a86c93ff8901314fb37062980000808203e88080f9ea8e90ae323e360a22bd0b1a972d15cb33df6ccbfbada4a0d49792d1164ea56029d84d5093a7186fb5bf2f1b7258d57e9c09ac89c4cb8eb44a3c961c4dd89b1bff"
              }
            ],
            "newStateRoot": "0xda1a48ed13b7d0ab3a380a5c47566bcda7b21af17a43dd267cb8db71d2d60f6e",
            "expectedNewLeafs": {
              "0x617b3a3528f9cdd6630fd3301b9c8911f7bf063d": {
                "balance": "78000000000000000000",
                "nonce": "1"
              },
              "0x4d5cf5032b2a844602278b01199ed191a86c93ff": {
                "balance": "222000000000000000000",
                "nonce": "0"
              },
              "0x000000000000000000000000000000005ca1ab1e": {
                "balance": "0",
                "nonce": "0",
                "storage": {
                  "0x0000000000000000000000000000000000000000000000000000000000000000": "0x01",
                  "0x0000000000000000000000000000000000000000000000000000000000000002": "0x01",
                  "0xa6eef7e35abe7026729641147f7915573c7e97b47efa546f5f6e3230263bcb49": "0x4a9bfcb163ec91c5beb22e6aca41592433092c8c7821b01d37fd0de483f9265d",
                  "0x0000000000000000000000000000000000000000000000000000000000000003": "0x78adbf68713acd840750013269d3fe3de13fe0312b88ba01c375ba0e971148cc"
                }
              }
            },
            "batchL2Data": "0x0b0000000100000000617b3a3528f9cdd6630fd3301b9c8911f7bf063def80843b9aca00830186a0944d5cf5032b2a844602278b01199ed191a86c93ff8901314fb37062980000808203e88080f9ea8e90ae323e360a22bd0b1a972d15cb33df6ccbfbada4a0d49792d1164ea56029d84d5093a7186fb5bf2f1b7258d57e9c09ac89c4cb8eb44a3c961c4dd89b1bff",
            "newLocalExitRoot": "0x0000000000000000000000000000000000000000000000000000000000000000",
            "batchHashData": "0x187cf8dffd61e81b5e1f4a6b4b697f408e3d0f36d600594f95a0bca4360fa0de",
            "skipFirstChangeL2Block": false,
            "skipWriteBlockInfoRoot": false,
            "currentL1InfoTreeRoot": "0x0000000000000000000000000000000000000000000000000000000000000000",
            "currentL1InfoTreeIndex": 0
          },
          {
            "txs": [
              {
                "type": 11,
                "coinbase": "0x617b3a3528F9cDd6630fd3301B9c8911F7Bf063D",
                "deltaTimestamp": "1944498031",
                "l1InfoTree": {
                  "globalExitRoot": "0x16994edfddddb9480667b64174fc00d3b6da7290d37b8db3a16571b4ddf0789f",
                  "blockHash": "0x24a5871d68723340d9eadc674aa8ad75f3e33b61d5a9db7db92af856a19270bb",
                  "minTimestamp": "42"
                },
                "indexL1InfoTree": 0,
                "reason": "",
                "customRawTx": "0x0b73e6af6f00000000617b3a3528f9cdd6630fd3301b9c8911f7bf063d"
              },
              {
                "from": "0x4d5Cf5032B2a844602278b01199ED191A86c93ff",
                "to": "0x617b3a3528F9cDd6630fd3301B9c8911F7Bf063D",
                "nonce": 0,
                "value": "2000000000000000000",
                "gasLimit": 100000,
                "gasPrice": "1000000000",
                "chainId": 1000,
                "rawTx": "0xf86e80843b9aca00830186a094617b3a3528f9cdd6630fd3301b9c8911f7bf063d881bc16d674ec80000808207f3a04902102bdd9b91ae389102098dd7d8cb6e732410851223a1153cbe78b0c54d1ea063bd7740451f2efcf88bbebdcc334ff3b3e3c332fbbf5703e4699124454663ba",
                "customRawTx": "0xee80843b9aca00830186a094617b3a3528f9cdd6630fd3301b9c8911f7bf063d881bc16d674ec80000808203e880804902102bdd9b91ae389102098dd7d8cb6e732410851223a1153cbe78b0c54d1e63bd7740451f2efcf88bbebdcc334ff3b3e3c332fbbf5703e4699124454663ba1bff"
              }
            ],
            "newStateRoot": "0x4ebe1021c205782779f18a09c3b561f50c0482e0096f9b4197b93e5de1338a8b",
            "expectedNewLeafs": {
              "0x000000000000000000000000000000005ca1ab1e": {
                "balance": "0",
                "nonce": "0",
                "storage": {
                  "0xa6eef7e35abe7026729641147f7915573c7e97b47efa546f5f6e3230263bcb49": "0x4a9bfcb163ec91c5beb22e6aca41592433092c8c7821b01d37fd0de483f9265d",
                  "0xcc69885fda6bcc1a4ace058b4a62bf5e179ea78fd58a1ccd71c22cc9b688792f": "0xda1a48ed13b7d0ab3a380a5c47566bcda7b21af17a43dd267cb8db71d2d60f6e",
                  "0x0000000000000000000000000000000000000000000000000000000000000000": "0x02",
                  "0x0000000000000000000000000000000000000000000000000000000000000002": "0x73e6af70",
                  "0x0000000000000000000000000000000000000000000000000000000000000003": "0x29069aecedf90314abc814de6b2ec830957a57720463f8c73285dc6b64d8965c"
                }
              },
              "0x4d5cf5032b2a844602278b01199ed191a86c93ff": {
                "balance": "219999979000000000000",
                "nonce": "1"
              },
              "0x617b3a3528f9cdd6630fd3301b9c8911f7bf063d": {
                "balance": "80000021000000000000",
                "nonce": "1"
              }
            },
            "batchL2Data": "0x0b73e6af6f00000000617b3a3528f9cdd6630fd3301b9c8911f7bf063dee80843b9aca00830186a094617b3a3528f9cdd6630fd3301b9c8911f7bf063d881bc16d674ec80000808203e880804902102bdd9b91ae389102098dd7d8cb6e732410851223a1153cbe78b0c54d1e63bd7740451f2efcf88bbebdcc334ff3b3e3c332fbbf5703e4699124454663ba1bff",
            "newLocalExitRoot": "0x0000000000000000000000000000000000000000000000000000000000000000",
            "batchHashData": "0x277703130da9921d39d2e7e6c4ffe03be2537f11aab9d5f76fc295b02615fb4b",
            "currentL1InfoTreeRoot": "0x0000000000000000000000000000000000000000000000000000000000000000",
            "currentL1InfoTreeIndex": 0
          },
          {
            "txs": [
              {
                "type": 11,
                "coinbase": "0x617b3a3528F9cDd6630fd3301B9c8911F7Bf063D",
                "deltaTimestamp": "1",
                "l1InfoTree": {
                  "globalExitRoot": "0x16994edfddddb9480667b64174fc00d3b6da7290d37b8db3a16571b4ddf0789f",
                  "blockHash": "0x24a5871d68723340d9eadc674aa8ad75f3e33b61d5a9db7db92af856a19270bb",
                  "minTimestamp": "42"
                },
                "indexL1InfoTree": 0,
                "reason": "",
                "customRawTx": "0x0b0000000100000000617b3a3528f9cdd6630fd3301b9c8911f7bf063d"
              },
              {
                "type": 11,
                "coinbase": "0x617b3a3528F9cDd6630fd3301B9c8911F7Bf063D",
                "deltaTimestamp": "1",
                "l1InfoTree": {
                  "globalExitRoot": "0x16994edfddddb9480667b64174fc00d3b6da7290d37b8db3a16571b4ddf0789f",
                  "blockHash": "0x24a5871d68723340d9eadc674aa8ad75f3e33b61d5a9db7db92af856a19270bb",
                  "minTimestamp": "42"
                },
                "indexL1InfoTree": 0,
                "reason": "",
                "customRawTx": "0x0b0000000100000000617b3a3528f9cdd6630fd3301b9c8911f7bf063d"
              }
            ],
            "newStateRoot": "0x9642e403fbe2ea3d4c54b5192943f94288d5f52fd4f0788aff4a37e35728efac",
            "expectedNewLeafs": {
              "0x000000000000000000000000000000005ca1ab1e": {
                "balance": "0",
                "nonce": "0",
                "storage": {
                  "0xa6eef7e35abe7026729641147f7915573c7e97b47efa546f5f6e3230263bcb49": "0x4a9bfcb163ec91c5beb22e6aca41592433092c8c7821b01d37fd0de483f9265d",
                  "0xcc69885fda6bcc1a4ace058b4a62bf5e179ea78fd58a1ccd71c22cc9b688792f": "0xda1a48ed13b7d0ab3a380a5c47566bcda7b21af17a43dd267cb8db71d2d60f6e",
                  "0x0000000000000000000000000000000000000000000000000000000000000000": "0x04",
                  "0x0000000000000000000000000000000000000000000000000000000000000002": "0x73e6af72",
                  "0x0000000000000000000000000000000000000000000000000000000000000003": "0xfc348a044fac79ea7bb19617091907ea4a8031d7d7784a4ae7bcd61f009d4bbd",
                  "0xd9d16d34ffb15ba3a3d852f0d403e2ce1d691fb54de27ac87cd2f993f3ec330f": "0x4ebe1021c205782779f18a09c3b561f50c0482e0096f9b4197b93e5de1338a8b",
                  "0x7dfe757ecd65cbd7922a9c0161e935dd7fdbcc0e999689c7d31633896b1fc60b": "0xf03b2f66c37eefbeaba7a3d4009c86df5006e0b22b4f84848fe00d78a44300ce"
                }
              }
            },
            "batchL2Data": "0x0b0000000100000000617b3a3528f9cdd6630fd3301b9c8911f7bf063d0b0000000100000000617b3a3528f9cdd6630fd3301b9c8911f7bf063d",
            "newLocalExitRoot": "0x0000000000000000000000000000000000000000000000000000000000000000",
            "batchHashData": "0xef3bf0ba41feea3d1fd1562fedac88c318793366de3ed96629ec0fe60c46d300",
            "currentL1InfoTreeRoot": "0x0000000000000000000000000000000000000000000000000000000000000000",
            "currentL1InfoTreeIndex": 0
          }
        ],
        "expected": {
          "batchAggregation": {
            "newStateRoot": "0x9642e403fbe2ea3d4c54b5192943f94288d5f52fd4f0788aff4a37e35728efac",
            "newBatchAccInputHash": "0x85005df866c5817197aefb1e3e0827fbe0ec08c9d67e577db665ac95baa41238",
            "newLastTimestamp": "1944498034",
            "currentL1InfoTreeRoot": "0x0000000000000000000000000000000000000000000000000000000000000000",
            "currentL1InfoTreeIndex": 0
          },
          "blobInner": {
            "newBlobStateRoot": "0x0000000000000000000000000000000000000000000000000000000000000000",
            "newBlobAccInputHash": "0x3d7eda214c8076396a09e196b51376b661767be9beeba0d49ac89bfd70db6f0e",
            "newNumBlob": 1,
            "finalAccBatchHashData": "0x0000000000000000000000000000000000000000000000000000000000000000",
            "localExitRootFromBlob": "0x0000000000000000000000000000000000000000000000000000000000000000",
            "isInvalid": true
          },
          "blobOuter": {
            "newStateRoot": "0x4a9bfcb163ec91c5beb22e6aca41592433092c8c7821b01d37fd0de483f9265d",
            "newBlobStateRoot": "0x0000000000000000000000000000000000000000000000000000000000000000",
            "newBlobAccInputHash": "0x3d7eda214c8076396a09e196b51376b661767be9beeba0d49ac89bfd70db6f0e",
            "newNumBlob": 1,
            "newLocalExitRoot": "0x0000000000000000000000000000000000000000000000000000000000000000"
          }
        }
      },
      {
        "zkGasLimit": "10000000",
        "blobType": 0,
        "forcedHashData": "0x0000000000000000000000000000000000000000000000000000000000000000",
        "previousL1InfoTreeRoot": "0x0000000000000000000000000000000000000000000000000000000000000000",
        "previousL1InfoTreeIndex": 0,
        "oldBatchAccInputHash": "0x0000000000000000000000000000000000000000000000000000000000000000",
        "batches": [
          {
            "txs": [
              {
                "type": 11,
                "coinbase": "0x617b3a3528F9cDd6630fd3301B9c8911F7Bf063D",
                "deltaTimestamp": "1",
                "l1InfoTree": {
                  "globalExitRoot": "0x16994edfddddb9480667b64174fc00d3b6da7290d37b8db3a16571b4ddf0789f",
                  "blockHash": "0x24a5871d68723340d9eadc674aa8ad75f3e33b61d5a9db7db92af856a19270bb",
                  "minTimestamp": "42"
                },
                "indexL1InfoTree": 0,
                "reason": "",
                "customRawTx": "0x0b0000000100000000617b3a3528f9cdd6630fd3301b9c8911f7bf063d"
              },
              {
                "from": "0x617b3a3528f9cdd6630fd3301b9c8911f7bf063d",
                "to": "0x4d5Cf5032B2a844602278b01199ED191A86c93ff",
                "nonce": 1,
                "value": "22000000000000000000",
                "gasLimit": 100000,
                "gasPrice": "1000000000",
                "chainId": 1000,
                "rawTx": "0xf86f01843b9aca00830186a0944d5cf5032b2a844602278b01199ed191a86c93ff8901314fb37062980000808207f3a0b3efa7a5ca86fda596287bd82f6bbc0188acb0aacf0864162bfbf7444d7c7b9ba06f1c2307ba1e83bf212cb473e33c122ee3d9c29fed945bbd0a78e4995a6837be",
                "customRawTx": "0xef01843b9aca00830186a0944d5cf5032b2a844602278b01199ed191a86c93ff8901314fb37062980000808203e88080b3efa7a5ca86fda596287bd82f6bbc0188acb0aacf0864162bfbf7444d7c7b9b6f1c2307ba1e83bf212cb473e33c122ee3d9c29fed945bbd0a78e4995a6837be1bff"
              }
            ],
            "newStateRoot": "0xd9802ea9a5b756d7686549eaa9486a35193251121d9d42062b72bba6dda9c001",
            "expectedNewLeafs": {
              "0x000000000000000000000000000000005ca1ab1e": {
                "balance": "0",
                "nonce": "0",
                "storage": {
                  "0x7dfe757ecd65cbd7922a9c0161e935dd7fdbcc0e999689c7d31633896b1fc60b": "0xf03b2f66c37eefbeaba7a3d4009c86df5006e0b22b4f84848fe00d78a44300ce",
                  "0xa6eef7e35abe7026729641147f7915573c7e97b47efa546f5f6e3230263bcb49": "0x4a9bfcb163ec91c5beb22e6aca41592433092c8c7821b01d37fd0de483f9265d",
                  "0xcc69885fda6bcc1a4ace058b4a62bf5e179ea78fd58a1ccd71c22cc9b688792f": "0xda1a48ed13b7d0ab3a380a5c47566bcda7b21af17a43dd267cb8db71d2d60f6e",
                  "0xd9d16d34ffb15ba3a3d852f0d403e2ce1d691fb54de27ac87cd2f993f3ec330f": "0x4ebe1021c205782779f18a09c3b561f50c0482e0096f9b4197b93e5de1338a8b",
                  "0xedc95719e9a3b28dd8e80877cb5880a9be7de1a13fc8b05e7999683b6b567643": "0x9642e403fbe2ea3d4c54b5192943f94288d5f52fd4f0788aff4a37e35728efac",
                  "0x0000000000000000000000000000000000000000000000000000000000000000": "0x05",
                  "0x0000000000000000000000000000000000000000000000000000000000000002": "0x73e6af73",
                  "0x0000000000000000000000000000000000000000000000000000000000000003": "0xff46dabf00cc4f213d7eaaffbe7061b9f8b4adec64c256c114573b6c0e36e74e"
                }
              },
              "0x617b3a3528f9cdd6630fd3301b9c8911f7bf063d": {
                "balance": "58000021000000000000",
                "nonce": "2"
              },
              "0x4d5cf5032b2a844602278b01199ed191a86c93ff": {
                "balance": "241999979000000000000",
                "nonce": "1"
              }
            },
            "batchL2Data": "0x0b0000000100000000617b3a3528f9cdd6630fd3301b9c8911f7bf063def01843b9aca00830186a0944d5cf5032b2a844602278b01199ed191a86c93ff8901314fb37062980000808203e88080b3efa7a5ca86fda596287bd82f6bbc0188acb0aacf0864162bfbf7444d7c7b9b6f1c2307ba1e83bf212cb473e33c122ee3d9c29fed945bbd0a78e4995a6837be1bff",
            "newLocalExitRoot": "0x0000000000000000000000000000000000000000000000000000000000000000",
            "batchHashData": "0x8b6039cac6d79b32f18fd41fc45d3fab6522c99a8cad45d646df0edc931cec67",
            "skipFirstChangeL2Block": false,
            "skipWriteBlockInfoRoot": false,
            "currentL1InfoTreeRoot": "0x0000000000000000000000000000000000000000000000000000000000000000",
            "currentL1InfoTreeIndex": 0
          }
        ],
        "expected": {
          "batchAggregation": {
            "newStateRoot": "0xd9802ea9a5b756d7686549eaa9486a35193251121d9d42062b72bba6dda9c001",
            "newBatchAccInputHash": "0xd555c2bd2ed017e5f2da1c0fe746bd4819077e51071ebcbd517160e12ecf0029",
            "newLastTimestamp": "1944498035",
            "currentL1InfoTreeRoot": "0x0000000000000000000000000000000000000000000000000000000000000000",
            "currentL1InfoTreeIndex": 0
          },
          "blobInner": {
            "newBlobStateRoot": "0x0000000000000000000000000000000000000000000000000000000000000000",
            "newBlobAccInputHash": "0x4cde4af353af328459c3309eb9062f116ed7c34d9edd87d87f8aa386088edf5e",
            "newNumBlob": 2,
            "finalAccBatchHashData": "0x0000000000000000000000000000000000000000000000000000000000000000",
            "localExitRootFromBlob": "0x0000000000000000000000000000000000000000000000000000000000000000",
            "isInvalid": true
          },
          "blobOuter": {
            "newStateRoot": "0x9642e403fbe2ea3d4c54b5192943f94288d5f52fd4f0788aff4a37e35728efac",
            "newBlobStateRoot": "0x0000000000000000000000000000000000000000000000000000000000000000",
            "newBlobAccInputHash": "0x4cde4af353af328459c3309eb9062f116ed7c34d9edd87d87f8aa386088edf5e",
            "newNumBlob": 2,
            "newLocalExitRoot": "0x0000000000000000000000000000000000000000000000000000000000000000"
          }
        }
      },
      {
        "zkGasLimit": "10000000",
        "blobType": 0,
        "forcedHashData": "0x0000000000000000000000000000000000000000000000000000000000000000",
        "previousL1InfoTreeRoot": "0x0000000000000000000000000000000000000000000000000000000000000000",
        "previousL1InfoTreeIndex": 0,
        "oldBatchAccInputHash": "0x0000000000000000000000000000000000000000000000000000000000000000",
        "batches": [
          {
            "txs": [
              {
                "type": 11,
                "coinbase": "0x617b3a3528F9cDd6630fd3301B9c8911F7Bf063D",
                "deltaTimestamp": "1",
                "l1InfoTree": {
                  "globalExitRoot": "0x16994edfddddb9480667b64174fc00d3b6da7290d37b8db3a16571b4ddf0789f",
                  "blockHash": "0x24a5871d68723340d9eadc674aa8ad75f3e33b61d5a9db7db92af856a19270bb",
                  "minTimestamp": "42"
                },
                "indexL1InfoTree": 0,
                "reason": "",
                "customRawTx": "0x0b0000000100000000617b3a3528f9cdd6630fd3301b9c8911f7bf063d"
              },
              {
                "from": "0x4d5Cf5032B2a844602278b01199ED191A86c93ff",
                "to": "0x4d5Cf5032B2a844602278b01199ED191A86c93ff",
                "nonce": 1,
                "value": "22000000000000000000",
                "gasLimit": 100000,
                "gasPrice": "1000000000",
                "chainId": 1000,
                "rawTx": "0xf86f01843b9aca00830186a0944d5cf5032b2a844602278b01199ed191a86c93ff8901314fb37062980000808207f3a0f04954c6b456af5a7950e251637dd461c371baa97b8899ef6e06bd661043af1ea051752adb5d6fcb206635dc4eb1965091e10eda834eb610581ec3f0192ac942cb",
                "customRawTx": "0xef01843b9aca00830186a0944d5cf5032b2a844602278b01199ed191a86c93ff8901314fb37062980000808203e88080f04954c6b456af5a7950e251637dd461c371baa97b8899ef6e06bd661043af1e51752adb5d6fcb206635dc4eb1965091e10eda834eb610581ec3f0192ac942cb1bff"
              }
            ],
            "newStateRoot": "0x4cb0d480160ae5fda147b9c50095c332fc4e72cac0c5bb3ba353d5c812a5a00f",
            "expectedNewLeafs": {
              "0x000000000000000000000000000000005ca1ab1e": {
                "balance": "0",
                "nonce": "0",
                "storage": {
                  "0x7dfe757ecd65cbd7922a9c0161e935dd7fdbcc0e999689c7d31633896b1fc60b": "0xf03b2f66c37eefbeaba7a3d4009c86df5006e0b22b4f84848fe00d78a44300ce",
                  "0xa6eef7e35abe7026729641147f7915573c7e97b47efa546f5f6e3230263bcb49": "0x4a9bfcb163ec91c5beb22e6aca41592433092c8c7821b01d37fd0de483f9265d",
                  "0xcc69885fda6bcc1a4ace058b4a62bf5e179ea78fd58a1ccd71c22cc9b688792f": "0xda1a48ed13b7d0ab3a380a5c47566bcda7b21af17a43dd267cb8db71d2d60f6e",
                  "0xd9d16d34ffb15ba3a3d852f0d403e2ce1d691fb54de27ac87cd2f993f3ec330f": "0x4ebe1021c205782779f18a09c3b561f50c0482e0096f9b4197b93e5de1338a8b",
                  "0x0000000000000000000000000000000000000000000000000000000000000000": "0x06",
                  "0x0000000000000000000000000000000000000000000000000000000000000002": "0x73e6af74",
                  "0xe2689cd4a84e23ad2f564004f1c9013e9589d260bde6380aba3ca7e09e4df40c": "0xd9802ea9a5b756d7686549eaa9486a35193251121d9d42062b72bba6dda9c001",
                  "0xedc95719e9a3b28dd8e80877cb5880a9be7de1a13fc8b05e7999683b6b567643": "0x9642e403fbe2ea3d4c54b5192943f94288d5f52fd4f0788aff4a37e35728efac",
                  "0x0000000000000000000000000000000000000000000000000000000000000003": "0x2c3d3902fd6a1a4174f9870ced9e5da8c553237f97d776d65f45e657dafb013e"
                }
              },
              "0x4d5cf5032b2a844602278b01199ed191a86c93ff": {
                "balance": "241999958000000000000",
                "nonce": "2"
              },
              "0x617b3a3528f9cdd6630fd3301b9c8911f7bf063d": {
                "balance": "58000042000000000000",
                "nonce": "2"
              }
            },
            "batchL2Data": "0x0b0000000100000000617b3a3528f9cdd6630fd3301b9c8911f7bf063def01843b9aca00830186a0944d5cf5032b2a844602278b01199ed191a86c93ff8901314fb37062980000808203e88080f04954c6b456af5a7950e251637dd461c371baa97b8899ef6e06bd661043af1e51752adb5d6fcb206635dc4eb1965091e10eda834eb610581ec3f0192ac942cb1bff",
            "newLocalExitRoot": "0x0000000000000000000000000000000000000000000000000000000000000000",
            "batchHashData": "0x3bf9dadf517140dc4265362c1b8b2ac7517be019ea4550d80ec447414b28fd42",
            "skipFirstChangeL2Block": false,
            "skipWriteBlockInfoRoot": false,
            "currentL1InfoTreeRoot": "0x0000000000000000000000000000000000000000000000000000000000000000",
            "currentL1InfoTreeIndex": 0
          },
          {
            "txs": [
              {
                "type": 11,
                "coinbase": "0x617b3a3528F9cDd6630fd3301B9c8911F7Bf063D",
                "deltaTimestamp": "1",
                "l1InfoTree": {
                  "globalExitRoot": "0x16994edfddddb9480667b64174fc00d3b6da7290d37b8db3a16571b4ddf0789f",
                  "blockHash": "0x24a5871d68723340d9eadc674aa8ad75f3e33b61d5a9db7db92af856a19270bb",
                  "minTimestamp": "42"
                },
                "indexL1InfoTree": 0,
                "reason": "",
                "customRawTx": "0x0b0000000100000000617b3a3528f9cdd6630fd3301b9c8911f7bf063d"
              },
              {
                "from": "0x4d5Cf5032B2a844602278b01199ED191A86c93ff",
                "to": "0x617b3a3528f9cdd6630fd3301b9c8911f7bf063d",
                "nonce": 2,
                "value": "22000000000000000000",
                "gasLimit": 100000,
                "gasPrice": "1000000000",
                "chainId": 1000,
                "rawTx": "0xf86f02843b9aca00830186a094617b3a3528f9cdd6630fd3301b9c8911f7bf063d8901314fb37062980000808207f3a03a8de3ca4e2d3ae7e6b25e26848b838172333a08fa3e6f1e4d3f0606f1b9d063a03576cc42b79b1e614d43ad338a320a828bbeb4bdd06e63101fd189a4ffaf9cb4",
                "customRawTx": "0xef02843b9aca00830186a094617b3a3528f9cdd6630fd3301b9c8911f7bf063d8901314fb37062980000808203e880803a8de3ca4e2d3ae7e6b25e26848b838172333a08fa3e6f1e4d3f0606f1b9d0633576cc42b79b1e614d43ad338a320a828bbeb4bdd06e63101fd189a4ffaf9cb41bff"
              },
              {
                "from": "0x617b3a3528f9cdd6630fd3301b9c8911f7bf063d",
                "to": "0x4d5Cf5032B2a844602278b01199ED191A86c93ff",
                "nonce": 2,
                "value": "22000000000000000000",
                "gasLimit": 100000,
                "gasPrice": "1000000000",
                "chainId": 1000,
                "rawTx": "0xf86f02843b9aca00830186a0944d5cf5032b2a844602278b01199ed191a86c93ff8901314fb37062980000808207f4a077e1a9edc020ae7ae247b20232af6be41200d14b0225ac687be0b8b986f801b9a041e657efb582eb091fe7d901b7697aa7635bf892e0bc828fea05916b7f2f6e60",
                "customRawTx": "0xef02843b9aca00830186a0944d5cf5032b2a844602278b01199ed191a86c93ff8901314fb37062980000808203e8808077e1a9edc020ae7ae247b20232af6be41200d14b0225ac687be0b8b986f801b941e657efb582eb091fe7d901b7697aa7635bf892e0bc828fea05916b7f2f6e601cff"
              }
            ],
            "newStateRoot": "0x43f378061ac6b743fe5aaa02e23e2feacd94fd0997a1bd040c5e509b9f4a619d",
            "expectedNewLeafs": {
              "0x000000000000000000000000000000005ca1ab1e": {
                "balance": "0",
                "nonce": "0",
                "storage": {
                  "0x7dfe757ecd65cbd7922a9c0161e935dd7fdbcc0e999689c7d31633896b1fc60b": "0xf03b2f66c37eefbeaba7a3d4009c86df5006e0b22b4f84848fe00d78a44300ce",
                  "0x8f331abe73332f95a25873e8b430885974c0409691f89d643119a11623a7924a": "0x4cb0d480160ae5fda147b9c50095c332fc4e72cac0c5bb3ba353d5c812a5a00f",
                  "0xa6eef7e35abe7026729641147f7915573c7e97b47efa546f5f6e3230263bcb49": "0x4a9bfcb163ec91c5beb22e6aca41592433092c8c7821b01d37fd0de483f9265d",
                  "0xcc69885fda6bcc1a4ace058b4a62bf5e179ea78fd58a1ccd71c22cc9b688792f": "0xda1a48ed13b7d0ab3a380a5c47566bcda7b21af17a43dd267cb8db71d2d60f6e",
                  "0xd9d16d34ffb15ba3a3d852f0d403e2ce1d691fb54de27ac87cd2f993f3ec330f": "0x4ebe1021c205782779f18a09c3b561f50c0482e0096f9b4197b93e5de1338a8b",
                  "0x0000000000000000000000000000000000000000000000000000000000000000": "0x07",
                  "0x0000000000000000000000000000000000000000000000000000000000000002": "0x73e6af75",
                  "0xe2689cd4a84e23ad2f564004f1c9013e9589d260bde6380aba3ca7e09e4df40c": "0xd9802ea9a5b756d7686549eaa9486a35193251121d9d42062b72bba6dda9c001",
                  "0xedc95719e9a3b28dd8e80877cb5880a9be7de1a13fc8b05e7999683b6b567643": "0x9642e403fbe2ea3d4c54b5192943f94288d5f52fd4f0788aff4a37e35728efac",
                  "0x0000000000000000000000000000000000000000000000000000000000000003": "0x36d739f0c8ee2cf9dded9e831fcad17115af3f61be5d23b125383604d124fa46"
                }
              },
              "0x4d5cf5032b2a844602278b01199ed191a86c93ff": {
                "balance": "241999937000000000000",
                "nonce": "3"
              },
              "0x617b3a3528f9cdd6630fd3301b9c8911f7bf063d": {
                "balance": "58000063000000000000",
                "nonce": "3"
              }
            },
            "batchL2Data": "0x0b0000000100000000617b3a3528f9cdd6630fd3301b9c8911f7bf063def02843b9aca00830186a094617b3a3528f9cdd6630fd3301b9c8911f7bf063d8901314fb37062980000808203e880803a8de3ca4e2d3ae7e6b25e26848b838172333a08fa3e6f1e4d3f0606f1b9d0633576cc42b79b1e614d43ad338a320a828bbeb4bdd06e63101fd189a4ffaf9cb41bffef02843b9aca00830186a0944d5cf5032b2a844602278b01199ed191a86c93ff8901314fb37062980000808203e8808077e1a9edc020ae7ae247b20232af6be41200d14b0225ac687be0b8b986f801b941e657efb582eb091fe7d901b7697aa7635bf892e0bc828fea05916b7f2f6e601cff",
            "newLocalExitRoot": "0x0000000000000000000000000000000000000000000000000000000000000000",
            "batchHashData": "0x2b76192b4ea706da247a8e84bffa8359d6d185b6f3ff453924bf9080bd4de29f",
            "skipFirstChangeL2Block": false,
            "skipWriteBlockInfoRoot": false,
            "currentL1InfoTreeRoot": "0x0000000000000000000000000000000000000000000000000000000000000000",
            "currentL1InfoTreeIndex": 0
          }
        ],
        "expected": {
          "batchAggregation": {
            "newStateRoot": "0x43f378061ac6b743fe5aaa02e23e2feacd94fd0997a1bd040c5e509b9f4a619d",
            "newBatchAccInputHash": "0xe0c86c87cb5f40d3cfb4eaff25fd20a5c5e13f4730f5582fa76e813111469e57",
            "newLastTimestamp": "1944498037",
            "currentL1InfoTreeRoot": "0x0000000000000000000000000000000000000000000000000000000000000000",
            "currentL1InfoTreeIndex": 0
          },
          "blobInner": {
            "newBlobStateRoot": "0x0000000000000000000000000000000000000000000000000000000000000000",
            "newBlobAccInputHash": "0x2997a0376954c939c971d30441a3f01b5991defc1d406fb9cd72d81ca5dd8c34",
            "newNumBlob": 3,
            "finalAccBatchHashData": "0x0000000000000000000000000000000000000000000000000000000000000000",
            "localExitRootFromBlob": "0x0000000000000000000000000000000000000000000000000000000000000000",
            "isInvalid": true
          },
          "blobOuter": {
            "newStateRoot": "0xd9802ea9a5b756d7686549eaa9486a35193251121d9d42062b72bba6dda9c001",
            "newBlobStateRoot": "0x0000000000000000000000000000000000000000000000000000000000000000",
            "newBlobAccInputHash": "0x2997a0376954c939c971d30441a3f01b5991defc1d406fb9cd72d81ca5dd8c34",
            "newNumBlob": 3,
            "newLocalExitRoot": "0x0000000000000000000000000000000000000000000000000000000000000000"
          }
        }
      }
    ],
    "expectedFinal": {
      "newStateRoot": "0xd9802ea9a5b756d7686549eaa9486a35193251121d9d42062b72bba6dda9c001",
      "newBlobStateRoot": "0x0000000000000000000000000000000000000000000000000000000000000000",
      "newBlobAccInputHash": "0x2997a0376954c939c971d30441a3f01b5991defc1d406fb9cd72d81ca5dd8c34",
      "newNumBlob": 3,
      "newLocalExitRoot": "0x0000000000000000000000000000000000000000000000000000000000000000",
      "aggregatorAddress": "0x64E968003c934F8d7Ad9a4e30F48EE8e2409baE6",
      "inputSnark": "0x1c5131d483514465b2ec813dd1b360883d9dee8ce771e09a12806784066e363b"
    }
  }
]