[
  {
    "id": 0,
    "description": "2 accounts and 1 valid transaction.",
    "chainID": 1000,
    "forkID": 1,
    "sequencerAddress": "0x617b3a3528F9cDd6630fd3301B9c8911F7Bf063D",
    "globalExitRoot": "0x090bcaf734c4f06c93954a827b45a6e8c67b8e0fd1e0a35a1c5982d6961828f9",
    "oldAccInputHash": "0x0000000000000000000000000000000000000000000000000000000000000000",
    "timestamp": 1944498031,
    "aggregatorAddress": "0x0123456789012345678901234567890123456789",
    "genesis": [
      {
        "address": "0x617b3a3528F9cDd6630fd3301B9c8911F7Bf063D",
        "pvtKey": "0x28b2b0318721be8c8339199172cd7cc8f5e273800a35616ec893083a4b32c02e",
        "balance": "100000000000000000000",
        "nonce": "0"
      },
      {
        "address": "0x4d5Cf5032B2a844602278b01199ED191A86c93ff",
        "pvtKey": "0x4d27a600dce8c29b7bd080e29a26972377dbb04d7a27d919adbb602bf13cfd23",
        "balance": "200000000000000000000",
        "nonce": "0"
      }
    ],
    "expectedOldRoot": "0x4a9bfcb163ec91c5beb22e6aca41592433092c8c7821b01d37fd0de483f9265d",
    "batches": [
      {
        "txs": [
          {
            "id": 0,
            "from": "0x617b3a3528F9cDd6630fd3301B9c8911F7Bf063D",
            "to": "0x4d5Cf5032B2a844602278b01199ED191A86c93ff",
            "nonce": 0,
            "value": "100000000000000000",
            "gasLimit": 100000,
            "gasPrice": "1000000000",
            "chainId": 1000,
            "rawTx": "0xf86d80843b9aca00830186a0944d5cf5032b2a844602278b01199ed191a86c93ff88016345785d8a0000808207f5a01186622d03b6b8da7cf111d1ccba5bb185c56deae6a322cebc6dda0556f3cb979f910c26408b64b51c5da36ba2f38ef55ba1cee719d5a6c01225968799907432",
            "reason": "",
            "customRawTx": "0xee80843b9aca00830186a0944d5cf5032b2a844602278b01199ed191a86c93ff88016345785d8a0000808203e880801cee7e01dc62f69a12c3510c6d64de04ee6346d84b6a017f3e786c7d87f963e75d8cc91fa983cd6d9cf55fff80d73bd26cd333b0f098acc1e58edb1fd484ad731b"
          }
        ],
        "expectedNewRoot": "0x9f4544f3d6c4e46890a1570c052d2140bcbb7f841a0a7fefe3a7e15819fb40bc",
        "expectedNewAccInputHash": "0x704d5cfd3e44b82028f7f8cae31168267a7422c5a447b90a65134116da5a8432",
        "expoectNewLocalExitRoot": "",
        "expectedNewLocalExitRoot": "0x0000000000000000000000000000000000000000000000000000000000000000",
        "expectedNewNumBatch": 1,
        "expectedBatchL2Data": "0xee80843b9aca00830186a0944d5cf5032b2a844602278b01199ed191a86c93ff88016345785d8a0000808203e880801cee7e01dc62f69a12c3510c6d64de04ee6346d84b6a017f3e786c7d87f963e75d8cc91fa983cd6d9cf55fff80d73bd26cd333b0f098acc1e58edb1fd484ad731b"
      },
      {
        "txs": [
          {
            "id": 0,
            "from": "0x617b3a3528F9cDd6630fd3301B9c8911F7Bf063D",
            "to": "0x4d5Cf5032B2a844602278b01199ED191A86c93ff",
            "nonce": 1,
            "value": "200000000000000000",
            "gasLimit": 100000,
            "gasPrice": "1000000000",
            "chainId": 1000,
            "rawTx": "0xf86d80843b9aca00830186a0944d5cf5032b2a844602278b01199ed191a86c93ff88016345785d8a0000808207f5a01186622d03b6b8da7cf111d1ccba5bb185c56deae6a322cebc6dda0556f3cb979f910c26408b64b51c5da36ba2f38ef55ba1cee719d5a6c01225968799907432",
            "reason": "",
            "customRawTx": "0xee01843b9aca00830186a0944d5cf5032b2a844602278b01199ed191a86c93ff8802c68af0bb140000808203e88080225fd92907efb068a8bee3f95a26f2c5d67db2750bb9993083e0df217ff3a2666f412c311280066d1717f309c248fdbd853ce738363db08775999b2f2d2a8d5e1c"
          }
        ],
        "expectedNewRoot": "0x556d091bd1f661823711b3252b857b51cc0c2336d327776074cb3e6b9ce9897d",
        "expectedNewAccInputHash": "0x87f958227c38bcf883025f5fda2dee19460cff48ca3c4d48d3a48f55c1258e60",
        "expoectNewLocalExitRoot": "",
        "expectedNewLocalExitRoot": "0x0000000000000000000000000000000000000000000000000000000000000000",
        "expectedNewNumBatch": 2,
        "expectedBatchL2Data": "0xee01843b9aca00830186a0944d5cf5032b2a844602278b01199ed191a86c93ff8802c68af0bb140000808203e88080225fd92907efb068a8bee3f95a26f2c5d67db2750bb9993083e0df217ff3a2666f412c311280066d1717f309c248fdbd853ce738363db08775999b2f2d2a8d5e1c"
      }
    ],
    "finalNewLeafs": {
      "0x617b3a3528f9cdd6630fd3301b9c8911f7bf063d": {
        "balance": "99900000000000000000",
        "nonce": "1"
      },
      "0x4d5cf5032b2a844602278b01199ed191a86c93ff": {
        "balance": "200100000000000000000",
        "nonce": "0"
      }
    },
    "finalStateRoot": "0x556d091bd1f661823711b3252b857b51cc0c2336d327776074cb3e6b9ce9897d",
    "finalLocalExitRoot": "0x0000000000000000000000000000000000000000000000000000000000000000",
    "finalAccInputHash": "0x87f958227c38bcf883025f5fda2dee19460cff48ca3c4d48d3a48f55c1258e60",
    "finalNumBatch": 2,
    "inputSnark": "0x0a23ec7ce3bfeda62afba0235b8a1e9d7b4c1b69d8d45570f73d6308040d2d5e"
  }
]