[
  {
    "id": 0,
    "description": "2 accounts and 1 valid transaction.",
    "chainID": 1000,
    "forkID": 9,
    "sequencerAddress": "0x617b3a3528F9cDd6630fd3301B9c8911F7Bf063D",
    "oldBatchAccInputHash": "0x0000000000000000000000000000000000000000000000000000000000000000",
    "aggregatorAddress": "0x0123456789012345678901234567890123456789",
    "genesis": [
      {
        "address": "0x617b3a3528F9cDd6630fd3301B9c8911F7Bf063D",
        "pvtKey": "0x28b2b0318721be8c8339199172cd7cc8f5e273800a35616ec893083a4b32c02e",
        "balance": "100000000000000000000",
        "nonce": "0"
      },
      {
        "address": "0x4d5Cf5032B2a844602278b01199ED191A86c93ff",
        "pvtKey": "0x4d27a600dce8c29b7bd080e29a26972377dbb04d7a27d919adbb602bf13cfd23",
        "balance": "200000000000000000000",
        "nonce": "0"
      }
    ],
    "oldStateRoot": "0x4a9bfcb163ec91c5beb22e6aca41592433092c8c7821b01d37fd0de483f9265d",
    "batches": [
      {
        "txs": [
          {
            "type": 11,
            "deltaTimestamp": "1944498031",
            "l1InfoTree": {
              "globalExitRoot": "0x16994edfddddb9480667b64174fc00d3b6da7290d37b8db3a16571b4ddf0789f",
              "blockHash": "0x24a5871d68723340d9eadc674aa8ad75f3e33b61d5a9db7db92af856a19270bb",
              "timestamp": "42"
            },
            "indexL1InfoTree": 0,
            "reason": "",
            "customRawTx": "0x0b73e6af6f00000000"
          },
          {
            "id": 0,
            "from": "0x617b3a3528F9cDd6630fd3301B9c8911F7Bf063D",
            "to": "0x4d5Cf5032B2a844602278b01199ED191A86c93ff",
            "nonce": 0,
            "value": "1000000000000000000",
            "gasLimit": 100000,
            "gasPrice": "1000000000",
            "chainId": 1000,
            "rawTx": "0xf86d80843b9aca00830186a0944d5cf5032b2a844602278b01199ed191a86c93ff88016345785d8a0000808207f5a01186622d03b6b8da7cf111d1ccba5bb185c56deae6a322cebc6dda0556f3cb979f910c26408b64b51c5da36ba2f38ef55ba1cee719d5a6c01225968799907432",
            "reason": "",
            "customRawTx": "0xee80843b9aca00830186a0944d5cf5032b2a844602278b01199ed191a86c93ff880de0b6b3a7640000808203e880803317280d96c3ed303a42d9da2638805301351c96cad135380ffa544d3c2bc96a6a55cef2d3827323f134976dd99a33bebef27b5e99c454fb1f8d4a4861ac4e0f1cff"
          }
        ],
        "newStateRoot": "0xdce3cbabb38e22f9b4faa7f146e03234f770efd5e034f0ea34c428378653981d",
        "newBatchAccInputHash": "0xfe12e59bf64f5a0c7697d370fd2f108951ec8b60ee83d604f2af2fd456eb3c26",
        "newLocalExitRoot": "0x0000000000000000000000000000000000000000000000000000000000000000",
        "newNumBatch": 1,
        "batchL2Data": "0x0b73e6af6f00000000ee80843b9aca00830186a0944d5cf5032b2a844602278b01199ed191a86c93ff880de0b6b3a7640000808203e880803317280d96c3ed303a42d9da2638805301351c96cad135380ffa544d3c2bc96a6a55cef2d3827323f134976dd99a33bebef27b5e99c454fb1f8d4a4861ac4e0f1cff",
        "expectedNewLeafs": {
          "0x617b3a3528f9cdd6630fd3301b9c8911f7bf063d": {
            "balance": "99000000000000000000",
            "nonce": "1",
            "storage": null,
            "hashBytecode": "0x0000000000000000000000000000000000000000000000000000000000000000",
            "bytecodeLength": 0
          },
          "0x4d5cf5032b2a844602278b01199ed191a86c93ff": {
            "balance": "201000000000000000000",
            "nonce": "0",
            "storage": null,
            "hashBytecode": "0x0000000000000000000000000000000000000000000000000000000000000000",
            "bytecodeLength": 0
          },
          "0x000000000000000000000000000000005ca1ab1e": {
            "balance": "0",
            "nonce": "0",
            "storage": {
              "0x0000000000000000000000000000000000000000000000000000000000000000": "0x01",
              "0x0000000000000000000000000000000000000000000000000000000000000002": "0x73e6af6f",
              "0xa6eef7e35abe7026729641147f7915573c7e97b47efa546f5f6e3230263bcb49": "0x4a9bfcb163ec91c5beb22e6aca41592433092c8c7821b01d37fd0de483f9265d",
              "0x0000000000000000000000000000000000000000000000000000000000000003": "0x0627f99dd3b4b9410a7c6e9de8140a3a3a43501c5017e0942db84cb9cc0590d3"
            },
            "hashBytecode": "0x0000000000000000000000000000000000000000000000000000000000000000",
            "bytecodeLength": 0
          }
        },
        "newL1InfoTreeRoot": "0x4a9bfcb163ec91c5beb22e6aca41592433092c8c7821b01d37fd0de483f9265d",
        "newL1InfoTreeIndex": 1
      },
      {
        "txs": [
          {
            "type": 11,
            "deltaTimestamp": "1",
            "l1InfoTree": {
              "globalExitRoot": "0x16994edfddddb9480667b64174fc00d3b6da7290d37b8db3a16571b4ddf0789f",
              "blockHash": "0x24a5871d68723340d9eadc674aa8ad75f3e33b61d5a9db7db92af856a19270bb",
              "timestamp": "42"
            },
            "indexL1InfoTree": 0,
            "reason": "",
            "customRawTx": "0x0b0000000100000000"
          },
          {
            "id": 0,
            "from": "0x617b3a3528F9cDd6630fd3301B9c8911F7Bf063D",
            "to": "0x4d5Cf5032B2a844602278b01199ED191A86c93ff",
            "nonce": 1,
            "value": "2000000000000000000",
            "gasLimit": 100000,
            "gasPrice": "1000000000",
            "chainId": 1000,
            "rawTx": "0xf86d80843b9aca00830186a0944d5cf5032b2a844602278b01199ed191a86c93ff88016345785d8a0000808207f5a01186622d03b6b8da7cf111d1ccba5bb185c56deae6a322cebc6dda0556f3cb979f910c26408b64b51c5da36ba2f38ef55ba1cee719d5a6c01225968799907432",
            "reason": "",
            "customRawTx": "0xee01843b9aca00830186a0944d5cf5032b2a844602278b01199ed191a86c93ff881bc16d674ec80000808203e88080bf1d7a420018877e3b781282465de4f3d6f2a5e678ce36fb694832a59ec437504c2dd20a8be59f26a3a84739512cafef34449d4008340ecebc9aea69dff382c31cff"
          }
        ],
        "newStateRoot": "0x980788a678a534114fc2946998687ba7cbba11c91bc0809f8bdf0e63c04cbac0",
        "newBatchAccInputHash": "0x6d5e14a0b607870900bf94ab0e8e02e7faa09f4167ab78ddf5b07168cbd4ac66",
        "newLocalExitRoot": "0x0000000000000000000000000000000000000000000000000000000000000000",
        "newNumBatch": 2,
        "batchL2Data": "0x0b0000000100000000ee01843b9aca00830186a0944d5cf5032b2a844602278b01199ed191a86c93ff881bc16d674ec80000808203e88080bf1d7a420018877e3b781282465de4f3d6f2a5e678ce36fb694832a59ec437504c2dd20a8be59f26a3a84739512cafef34449d4008340ecebc9aea69dff382c31cff",
        "expectedNewLeafs": {
          "0x000000000000000000000000000000005ca1ab1e": {
            "balance": "0",
            "nonce": "0",
            "storage": {
              "0xa6eef7e35abe7026729641147f7915573c7e97b47efa546f5f6e3230263bcb49": "0x4a9bfcb163ec91c5beb22e6aca41592433092c8c7821b01d37fd0de483f9265d",
              "0xcc69885fda6bcc1a4ace058b4a62bf5e179ea78fd58a1ccd71c22cc9b688792f": "0xdce3cbabb38e22f9b4faa7f146e03234f770efd5e034f0ea34c428378653981d",
              "0x0000000000000000000000000000000000000000000000000000000000000000": "0x02",
              "0x0000000000000000000000000000000000000000000000000000000000000002": "0x73e6af70",
              "0x0000000000000000000000000000000000000000000000000000000000000003": "0x900056265820a6a724fd7dcb9758bdd0f663ce83341ee9d06ec77189a90b969e"
            },
            "hashBytecode": "0x0000000000000000000000000000000000000000000000000000000000000000",
            "bytecodeLength": 0
          },
          "0x617b3a3528f9cdd6630fd3301b9c8911f7bf063d": {
            "balance": "97000000000000000000",
            "nonce": "2",
            "storage": null,
            "hashBytecode": "0x0000000000000000000000000000000000000000000000000000000000000000",
            "bytecodeLength": 0
          },
          "0x4d5cf5032b2a844602278b01199ed191a86c93ff": {
            "balance": "203000000000000000000",
            "nonce": "0",
            "storage": null,
            "hashBytecode": "0x0000000000000000000000000000000000000000000000000000000000000000",
            "bytecodeLength": 0
          }
        },
        "newL1InfoTreeRoot": "0x4a9bfcb163ec91c5beb22e6aca41592433092c8c7821b01d37fd0de483f9265d",
        "newL1InfoTreeIndex": 1
      }
    ],
    "type": 0,
    "forcedHashData": "0x0000000000000000000000000000000000000000000000000000000000000000",
    "previousL1InfoTreeRoot": "0x4a9bfcb163ec91c5beb22e6aca41592433092c8c7821b01d37fd0de483f9265d",
    "previousL1InfoTreeIndex": 1,
    "newStateRoot": "0x980788a678a534114fc2946998687ba7cbba11c91bc0809f8bdf0e63c04cbac0",
    "newLocalExitRoot": "0x0000000000000000000000000000000000000000000000000000000000000000",
    "newBatchAccInputHash": "0x6d5e14a0b607870900bf94ab0e8e02e7faa09f4167ab78ddf5b07168cbd4ac66",
    "newNumBatch": 2,
    "inputSnark": "0x2263e5a0650b69c2954a5295781d25a11265781d26194678106d0dc3bccebcb0",
    "expectedOldRoot": "0x4a9bfcb163ec91c5beb22e6aca41592433092c8c7821b01d37fd0de483f9265d"
  }
]