[
  {
    "id": 0,
    "description": "Selfdestruct",
    "chainID": 1000,
    "forkID": 1,
    "sequencerAddress": "0x617b3a3528F9cDd6630fd3301B9c8911F7Bf063D",
    "sequencerPvtKey": "0x28b2b0318721be8c8339199172cd7cc8f5e273800a35616ec893083a4b32c02e",
    "genesis": [
      {
        "balance": "0",
        "nonce": "0",
        "address": "0x0000000000000000000000000000000000000000"
      },
      {
        "balance": "0",
        "nonce": "0",
        "address": "0xAE4bB80bE56B819606589DE61d5ec3b522EEB032"
      },
      {
        "balance": "100000000000000000000",
        "nonce": "1",
        "address": "0x617b3a3528f9cdd6630fd3301b9c8911f7bf063d",
        "pvtKey": "0x28b2b0318721be8c8339199172cd7cc8f5e273800a35616ec893083a4b32c02e"
      },
      {
        "balance": "0",
        "nonce": "1",
        "address": "0x1275fbb540c8efc58b812ba83b0d0b8b9917ae98",
        "bytecode": "0x60806040526004361061003f5760003560e01c80632b68b9c6146100445780633fa4f2451461005b5780635cfb28e714610086578063718da7ee14610090575b600080fd5b34801561005057600080fd5b506100596100b9565b005b34801561006757600080fd5b506100706100f2565b60405161007d9190610195565b60405180910390f35b61008e6100f8565b005b34801561009c57600080fd5b506100b760048036038101906100b29190610159565b610101565b005b60008054906101000a900473ffffffffffffffffffffffffffffffffffffffff1673ffffffffffffffffffffffffffffffffffffffff16ff5b60015481565b34600181905550565b806000806101000a81548173ffffffffffffffffffffffffffffffffffffffff021916908373ffffffffffffffffffffffffffffffffffffffff16021790555050565b600081359050610153816101f1565b92915050565b60006020828403121561016f5761016e6101ec565b5b600061017d84828501610144565b91505092915050565b61018f816101e2565b82525050565b60006020820190506101aa6000830184610186565b92915050565b60006101bb826101c2565b9050919050565b600073ffffffffffffffffffffffffffffffffffffffff82169050919050565b6000819050919050565b600080fd5b6101fa816101b0565b811461020557600080fd5b5056fea26469706673582212207ae6e5d5feddef608b24cca98990c37cf78f8b377163a7c4951a429d90d6120464736f6c63430008070033",
        "storage": {},
        "contractName": "Selfdestruct"
      },
      {
        "address": "0x4d5Cf5032B2a844602278b01199ED191A86c93ff",
        "pvtKey": "0x4d27a600dce8c29b7bd080e29a26972377dbb04d7a27d919adbb602bf13cfd23",
        "balance": "200000000000000000000",
        "nonce": "0"
      }
    ],
    "expectedOldRoot": "0x2761798d338f390fa233a5ff12c7fd6a50ab8a82e559c25e2895516c3e4213c6",
    "txs": [
      {
        "from": "0x4d5Cf5032B2a844602278b01199ED191A86c93ff",
        "to": "0x1275fbb540c8efc58b812ba83b0d0b8b9917ae98",
        "nonce": 0,
        "value": "0",
        "contractName": "Selfdestruct",
        "function": "setReceiver",
        "params": [
          "0x0000000000000000000000000000000000000001"
        ],
        "chainId": 1000,
        "reason": "",
        "gasLimit": 100000,
        "gasPrice": "1000000000",
        "data": "0x718da7ee0000000000000000000000000000000000000000000000000000000000000001",
        "customRawTx": "0xf84a80843b9aca00830186a0941275fbb540c8efc58b812ba83b0d0b8b9917ae9880a4718da7ee00000000000000000000000000000000000000000000000000000000000000018203e880800f169b9405991a5f4a96f9d1d726e43ab9d42e1d0b4daac7ec9b4797dd39e9b724cf48c46cbc1924dd25adc6536ef259bedcd822979734ae347e01d715303ad01c",
        "rawTx": "0xf88a80843b9aca00830186a0941275fbb540c8efc58b812ba83b0d0b8b9917ae9880a4718da7ee00000000000000000000000000000000000000000000000000000000000000018207f4a00f169b9405991a5f4a96f9d1d726e43ab9d42e1d0b4daac7ec9b4797dd39e9b7a024cf48c46cbc1924dd25adc6536ef259bedcd822979734ae347e01d715303ad0"
      },
      {
        "from": "0x4d5Cf5032B2a844602278b01199ED191A86c93ff",
        "to": "0x1275fbb540c8efc58b812ba83b0d0b8b9917ae98",
        "nonce": 1,
        "value": "123456789",
        "contractName": "Selfdestruct",
        "function": "setVal",
        "params": [],
        "chainId": 1000,
        "reason": "",
        "gasLimit": 100000,
        "gasPrice": "1000000000",
        "data": "0x5cfb28e7",
        "customRawTx": "0xee01843b9aca00830186a0941275fbb540c8efc58b812ba83b0d0b8b9917ae9884075bcd15845cfb28e78203e88080b22ac440612ebcd45672cfc7dcbbbe7cde784294e5076827b1812f9ea9eee2736c3c774150514808053972653f74bbeb33918dc74aa9182cee7993283b1faa541b",
        "rawTx": "0xf86e01843b9aca00830186a0941275fbb540c8efc58b812ba83b0d0b8b9917ae9884075bcd15845cfb28e78207f3a0b22ac440612ebcd45672cfc7dcbbbe7cde784294e5076827b1812f9ea9eee273a06c3c774150514808053972653f74bbeb33918dc74aa9182cee7993283b1faa54"
      },
      {
        "from": "0x4d5Cf5032B2a844602278b01199ED191A86c93ff",
        "to": "0x1275fbb540c8efc58b812ba83b0d0b8b9917ae98",
        "nonce": 2,
        "value": "0",
        "contractName": "Selfdestruct",
        "function": "destruct",
        "params": [],
        "chainId": 1000,
        "reason": "",
        "gasLimit": 100000,
        "gasPrice": "1000000000",
        "data": "0x2b68b9c6",
        "customRawTx": "0xea02843b9aca00830186a0941275fbb540c8efc58b812ba83b0d0b8b9917ae9880842b68b9c68203e88080f5b684b995dd9549bb5fd2ed23d3b388f75f559b14110277b4ae7de5bd7775ef1be51078330d1ef03f0e4fe0271e8e2502b6e98c1f7664a5e2aeae3ab04156d41c",
        "rawTx": "0xf86a02843b9aca00830186a0941275fbb540c8efc58b812ba83b0d0b8b9917ae9880842b68b9c68207f4a0f5b684b995dd9549bb5fd2ed23d3b388f75f559b14110277b4ae7de5bd7775efa01be51078330d1ef03f0e4fe0271e8e2502b6e98c1f7664a5e2aeae3ab04156d4"
      }
    ],
    "expectedNewRoot": "0x0c2d0ad3998544591daf6ecb3eec63ac26058f29c06d8aec4e856030fbdbc30a",
    "expectedNewLeafs": {
      "0xa40d5f56745a118d0906a34e69aec8c0db1cb8fa": {
        "balance": "0",
        "nonce": "0",
        "storage": {
          "0x53d3f126103a7f7d6245751d2392e0245bf71479d10a3c27a5b501ace6dde1b7": "0x73e6af6f"
        },
        "hashBytecode": "0x0000000000000000000000000000000000000000000000000000000000000000",
        "bytecodeLength": 0
      },
      "0x0000000000000000000000000000000000000000": {
        "balance": "0",
        "nonce": "0",
        "storage": null,
        "hashBytecode": "0x0000000000000000000000000000000000000000000000000000000000000000",
        "bytecodeLength": 0
      },
      "0xae4bb80be56b819606589de61d5ec3b522eeb032": {
        "balance": "0",
        "nonce": "0",
        "storage": null,
        "hashBytecode": "0x0000000000000000000000000000000000000000000000000000000000000000",
        "bytecodeLength": 0
      },
      "0x617b3a3528f9cdd6630fd3301b9c8911f7bf063d": {
        "balance": "100000140508000000000",
        "nonce": "1",
        "storage": null,
        "hashBytecode": "0x0000000000000000000000000000000000000000000000000000000000000000",
        "bytecodeLength": 0
      },
      "0x1275fbb540c8efc58b812ba83b0d0b8b9917ae98": {
        "balance": "0",
        "nonce": "1",
        "storage": {
          "0x0000000000000000000000000000000000000000000000000000000000000000": "0x01",
          "0x0000000000000000000000000000000000000000000000000000000000000001": "0x075bcd15"
        },
        "hashBytecode": "0xbbebd914926f549bcc798e9081a339e3745b9831b3c3906fb8bb2bcf2e05a160",
        "bytecodeLength": 574
      },
      "0x4d5cf5032b2a844602278b01199ed191a86c93ff": {
        "balance": "199999859491876543211",
        "nonce": "3",
        "storage": null,
        "hashBytecode": "0x0000000000000000000000000000000000000000000000000000000000000000",
        "bytecodeLength": 0
      },
      "0x000000000000000000000000000000005ca1ab1e": {
        "balance": "0",
        "nonce": "0",
        "storage": {
          "0x0000000000000000000000000000000000000000000000000000000000000000": "0x03",
          "0x7dfe757ecd65cbd7922a9c0161e935dd7fdbcc0e999689c7d31633896b1fc60b": "0xb4a3dda302f14960e0b26a99742cecbe02cf014cb85fcaaa4797f1fd105a2397",
          "0xcc69885fda6bcc1a4ace058b4a62bf5e179ea78fd58a1ccd71c22cc9b688792f": "0xfd30cf307f37a2b6f446ae7cecd9c0e621ee6092474bf85b5b07197c7ba3e6ee",
          "0xd9d16d34ffb15ba3a3d852f0d403e2ce1d691fb54de27ac87cd2f993f3ec330f": "0x3d5539a260afd4001f39b51fad47c259809a2425fc975acd76365cdcfe871fbf"
        },
        "hashBytecode": "0x0000000000000000000000000000000000000000000000000000000000000000",
        "bytecodeLength": 0
      },
      "0x0000000000000000000000000000000000000001": {
        "balance": "123456789",
        "nonce": "0",
        "storage": null,
        "hashBytecode": "0x0000000000000000000000000000000000000000000000000000000000000000",
        "bytecodeLength": 0
      }
    },
    "batchL2Data": "0xf84a80843b9aca00830186a0941275fbb540c8efc58b812ba83b0d0b8b9917ae9880a4718da7ee00000000000000000000000000000000000000000000000000000000000000018203e880800f169b9405991a5f4a96f9d1d726e43ab9d42e1d0b4daac7ec9b4797dd39e9b724cf48c46cbc1924dd25adc6536ef259bedcd822979734ae347e01d715303ad01cee01843b9aca00830186a0941275fbb540c8efc58b812ba83b0d0b8b9917ae9884075bcd15845cfb28e78203e88080b22ac440612ebcd45672cfc7dcbbbe7cde784294e5076827b1812f9ea9eee2736c3c774150514808053972653f74bbeb33918dc74aa9182cee7993283b1faa541bea02843b9aca00830186a0941275fbb540c8efc58b812ba83b0d0b8b9917ae9880842b68b9c68203e88080f5b684b995dd9549bb5fd2ed23d3b388f75f559b14110277b4ae7de5bd7775ef1be51078330d1ef03f0e4fe0271e8e2502b6e98c1f7664a5e2aeae3ab04156d41c",
    "globalExitRoot": "0x090bcaf734c4f06c93954a827b45a6e8c67b8e0fd1e0a35a1c5982d6961828f9",
    "newLocalExitRoot": "0x0000000000000000000000000000000000000000000000000000000000000000",
    "batchHashData": "0x8861a42093839bba053d104b4fd359fab4bbb4806eb4214401104ace03b3bca9",
    "oldLocalExitRoot": "0x0000000000000000000000000000000000000000000000000000000000000000",
    "oldAccInputHash": "0x0000000000000000000000000000000000000000000000000000000000000000",
    "timestamp": 1944498031,
    "expectedNewAccInputHash": "0x3eecc493740cb9dae79ff74a75f407c81e042883c5fba4a78290e16735929972"
  }
]