[
  {
    "id": 0,
    "description": "2 accounts and 1 valid transaction.",
    "chainID": 1000,
    "forkID": 6,
    "sequencerAddress": "0x617b3a3528F9cDd6630fd3301B9c8911F7Bf063D",
    "timestampLimit": 1944498031,
    "isForced": 0,
    "genesis": [
      {
        "address": "0x617b3a3528F9cDd6630fd3301B9c8911F7Bf063D",
        "pvtKey": "0x28b2b0318721be8c8339199172cd7cc8f5e273800a35616ec893083a4b32c02e",
        "balance": "100000000000000000000",
        "nonce": "0"
      },
      {
        "address": "0x4d5Cf5032B2a844602278b01199ED191A86c93ff",
        "pvtKey": "0x4d27a600dce8c29b7bd080e29a26972377dbb04d7a27d919adbb602bf13cfd23",
        "balance": "200000000000000000000",
        "nonce": "0"
      }
    ],
    "expectedOldRoot": "0x4a9bfcb163ec91c5beb22e6aca41592433092c8c7821b01d37fd0de483f9265d",
    "txs": [
      {
        "type": 11,
        "deltaTimestamp": "1944498030",
        "newGER": "0x3100000000000000000000000000000000000000000000000000000000000000",
        "indexHistoricalGERTree": 0,
        "reason": "",
        "smtProofs": [
          "0x0000000000000000000000000000000000000000000000000000000000000000",
          "0xad3228b676f7d3cd4284a5443f17f1962b36e491b30a40b2405849e597ba5fb5",
          "0xb4c11951957c6f8f642c4af61cd6b24640fec6dc7fc607ee8206a99e92410d30",
          "0x21ddb9a356815c3fac1026b6dec5df3124afbadb485c9ba5a3e3398a04b7ba85",
          "0xe58769b32a1beaf1ea27375a44095a0d1fb664ce2dd358e7fcbfb78c26a19344",
          "0x0eb01ebfc9ed27500cd4dfc979272d1f0913cc9f66540d7e8005811109e1cf2d",
          "0x887c22bd8750d34016ac3c66b5ff102dacdd73f6b014e710b51e8022af9a1968",
          "0xffd70157e48063fc33c97a050f7f640233bf646cc98d9524c6b92bcf3ab56f83",
          "0x9867cc5f7f196b93bae1e27e6320742445d290f2263827498b54fec539f756af",
          "0xcefad4e508c098b9a7e1d8feb19955fb02ba9675585078710969d3440f5054e0",
          "0xf9dc3e7fe016e050eff260334f18a5d4fe391d82092319f5964f2e2eb7c1c3a5",
          "0xf8b13a49e282f609c317a833fb8d976d11517c571d1221a265d25af778ecf892",
          "0x3490c6ceeb450aecdc82e28293031d10c7d73bf85e57bf041a97360aa2c5d99c",
          "0xc1df82d9c4b87413eae2ef048f94b4d3554cea73d92b0f7af96e0271c691e2bb",
          "0x5c67add7c6caf302256adedf7ab114da0acfe870d449a3a489f781d659e8becc",
          "0xda7bce9f4e8618b6bd2f4132ce798cdc7a60e7e1460a7299e3c6342a579626d2",
          "0x2733e50f526ec2fa19a22b31e8ed50f23cd1fdf94c9154ed3a7609a2f1ff981f",
          "0xe1d3b5c807b281e4683cc6d6315cf95b9ade8641defcb32372f1c126e398ef7a",
          "0x5a2dce0a8a7f68bb74560f8f71837c2c2ebbcbf7fffb42ae1896f13f7c7479a0",
          "0xb46a28b6f55540f89444f63de0378e3d121be09e06cc9ded1c20e65876d36aa0",
          "0xc65e9645644786b620e2dd2ad648ddfcbf4a7e5b1a3a4ecfe7f64667a3f0b7e2",
          "0xf4418588ed35a2458cffeb39b93d26f18d2ab13bdce6aee58e7b99359ec2dfd9",
          "0x5a9c16dc00d6ef18b7933a6f8dc65ccb55667138776f7dea101070dc8796e377",
          "0x4df84f40ae0c8229d0d6069e5c8f39a7c299677a09d367fc7b05e3bc380ee652",
          "0xcdc72595f74c7b1043d0e1ffbab734648c838dfb0527d971b602bc216c9619ef",
          "0x0abf5ac974a1ed57f4050aa510dd9c74f508277b39d7973bb2dfccc5eeb0618d",
          "0xb8cd74046ff337f0a7bf2c8e03e10f642c1886798d71806ab1e888d9e5ee87d0",
          "0x838c5655cb21c6cb83313b5a631175dff4963772cce9108188b34ac87c81c41e",
          "0x662ee4dd2dd7b2bc707961b1e646c4047669dcb6584f0d8d770daf5d7e7deb2e",
          "0x388ab20e2573d171a88108e79d820e98f26c0b84aa8b2f4aa4968dbb818ea322",
          "0x93237c50ba75ee485f4c22adf2f741400bdf8d6a9cc7df7ecae576221665d735",
          "0x8448818bb4ae4562849e949e17ac16e0be16688e156b5cf15e098c627c0056a9"
        ]
      },
      {
        "id": 0,
        "from": "0x617b3a3528F9cDd6630fd3301B9c8911F7Bf063D",
        "to": "0x4d5Cf5032B2a844602278b01199ED191A86c93ff",
        "nonce": 0,
        "value": "100000000000000000",
        "gasLimit": 100000,
        "gasPrice": "1000000000",
        "chainId": 1000,
        "rawTx": "0xf86e80843b9aca00830186a0944d5cf5032b2a844602278b01199ed191a86c93ff88016345785d8a0000808207f3a01cee7e01dc62f69a12c3510c6d64de04ee6346d84b6a017f3e786c7d87f963e7a05d8cc91fa983cd6d9cf55fff80d73bd26cd333b0f098acc1e58edb1fd484ad73",
        "reason": "",
        "customRawTx": "0xee80843b9aca00830186a0944d5cf5032b2a844602278b01199ed191a86c93ff88016345785d8a0000808203e880801cee7e01dc62f69a12c3510c6d64de04ee6346d84b6a017f3e786c7d87f963e75d8cc91fa983cd6d9cf55fff80d73bd26cd333b0f098acc1e58edb1fd484ad731bff"
      },
      {
        "type": 11,
        "deltaTimestamp": "1",
        "newGER": "0x3100000000000000000000000000000000000000000000000000000000000000",
        "indexHistoricalGERTree": 0,
        "reason": "",
        "smtProofs": [
          "0x0000000000000000000000000000000000000000000000000000000000000000",
          "0xad3228b676f7d3cd4284a5443f17f1962b36e491b30a40b2405849e597ba5fb5",
          "0xb4c11951957c6f8f642c4af61cd6b24640fec6dc7fc607ee8206a99e92410d30",
          "0x21ddb9a356815c3fac1026b6dec5df3124afbadb485c9ba5a3e3398a04b7ba85",
          "0xe58769b32a1beaf1ea27375a44095a0d1fb664ce2dd358e7fcbfb78c26a19344",
          "0x0eb01ebfc9ed27500cd4dfc979272d1f0913cc9f66540d7e8005811109e1cf2d",
          "0x887c22bd8750d34016ac3c66b5ff102dacdd73f6b014e710b51e8022af9a1968",
          "0xffd70157e48063fc33c97a050f7f640233bf646cc98d9524c6b92bcf3ab56f83",
          "0x9867cc5f7f196b93bae1e27e6320742445d290f2263827498b54fec539f756af",
          "0xcefad4e508c098b9a7e1d8feb19955fb02ba9675585078710969d3440f5054e0",
          "0xf9dc3e7fe016e050eff260334f18a5d4fe391d82092319f5964f2e2eb7c1c3a5",
          "0xf8b13a49e282f609c317a833fb8d976d11517c571d1221a265d25af778ecf892",
          "0x3490c6ceeb450aecdc82e28293031d10c7d73bf85e57bf041a97360aa2c5d99c",
          "0xc1df82d9c4b87413eae2ef048f94b4d3554cea73d92b0f7af96e0271c691e2bb",
          "0x5c67add7c6caf302256adedf7ab114da0acfe870d449a3a489f781d659e8becc",
          "0xda7bce9f4e8618b6bd2f4132ce798cdc7a60e7e1460a7299e3c6342a579626d2",
          "0x2733e50f526ec2fa19a22b31e8ed50f23cd1fdf94c9154ed3a7609a2f1ff981f",
          "0xe1d3b5c807b281e4683cc6d6315cf95b9ade8641defcb32372f1c126e398ef7a",
          "0x5a2dce0a8a7f68bb74560f8f71837c2c2ebbcbf7fffb42ae1896f13f7c7479a0",
          "0xb46a28b6f55540f89444f63de0378e3d121be09e06cc9ded1c20e65876d36aa0",
          "0xc65e9645644786b620e2dd2ad648ddfcbf4a7e5b1a3a4ecfe7f64667a3f0b7e2",
          "0xf4418588ed35a2458cffeb39b93d26f18d2ab13bdce6aee58e7b99359ec2dfd9",
          "0x5a9c16dc00d6ef18b7933a6f8dc65ccb55667138776f7dea101070dc8796e377",
          "0x4df84f40ae0c8229d0d6069e5c8f39a7c299677a09d367fc7b05e3bc380ee652",
          "0xcdc72595f74c7b1043d0e1ffbab734648c838dfb0527d971b602bc216c9619ef",
          "0x0abf5ac974a1ed57f4050aa510dd9c74f508277b39d7973bb2dfccc5eeb0618d",
          "0xb8cd74046ff337f0a7bf2c8e03e10f642c1886798d71806ab1e888d9e5ee87d0",
          "0x838c5655cb21c6cb83313b5a631175dff4963772cce9108188b34ac87c81c41e",
          "0x662ee4dd2dd7b2bc707961b1e646c4047669dcb6584f0d8d770daf5d7e7deb2e",
          "0x388ab20e2573d171a88108e79d820e98f26c0b84aa8b2f4aa4968dbb818ea322",
          "0x93237c50ba75ee485f4c22adf2f741400bdf8d6a9cc7df7ecae576221665d735",
          "0x8448818bb4ae4562849e949e17ac16e0be16688e156b5cf15e098c627c0056a9"
        ]
      }
    ],
    "expectedNewRoot": "0x51a8faf9abefb34f8d42137bc8c5080c6bcff451f5208887182c34d32553c22b",
    "expectedNewLeafs": {
      "0xa40d5f56745a118d0906a34e69aec8c0db1cb8fa": {
        "balance": "0",
        "nonce": "0",
        "storage": {
          "0xa1cf62fa0d95d8eeee4c409ad79cecceb916bc269e2baeace39036c2d9dda8e8": "0x73e6af6e"
        },
        "hashBytecode": "0x0000000000000000000000000000000000000000000000000000000000000000",
        "bytecodeLength": 0
      },
      "0x000000000000000000000000000000005ca1ab1e": {
        "balance": "0",
        "nonce": "0",
        "storage": {
          "0x0000000000000000000000000000000000000000000000000000000000000000": "0x02",
          "0x0000000000000000000000000000000000000000000000000000000000000002": "0x73e6af6f",
          "0xcc69885fda6bcc1a4ace058b4a62bf5e179ea78fd58a1ccd71c22cc9b688792f": "0x0d3a60e11f2e1ef5b3f0c5b6f785dd7f175b3e384f487e93dfa7692be4c97383",
          "0xd9d16d34ffb15ba3a3d852f0d403e2ce1d691fb54de27ac87cd2f993f3ec330f": "0x9f836a1a907f233e6f7d02c1fd42ac81d4005a56b192b43a2e0557b5209d6b87"
        },
        "hashBytecode": "0x0000000000000000000000000000000000000000000000000000000000000000",
        "bytecodeLength": 0
      },
      "0x617b3a3528f9cdd6630fd3301b9c8911f7bf063d": {
        "balance": "99900000000000000000",
        "nonce": "1",
        "storage": null,
        "hashBytecode": "0x0000000000000000000000000000000000000000000000000000000000000000",
        "bytecodeLength": 0
      },
      "0x4d5cf5032b2a844602278b01199ed191a86c93ff": {
        "balance": "200100000000000000000",
        "nonce": "0",
        "storage": null,
        "hashBytecode": "0x0000000000000000000000000000000000000000000000000000000000000000",
        "bytecodeLength": 0
      }
    },
    "batchL2Data": "0x0b0000000073e6af6e310000000000000000000000000000000000000000000000000000000000000000000000ee80843b9aca00830186a0944d5cf5032b2a844602278b01199ed191a86c93ff88016345785d8a0000808203e880801cee7e01dc62f69a12c3510c6d64de04ee6346d84b6a017f3e786c7d87f963e75d8cc91fa983cd6d9cf55fff80d73bd26cd333b0f098acc1e58edb1fd484ad731bff0b0000000000000001310000000000000000000000000000000000000000000000000000000000000000000000",
    "historicGERRoot": "0xef6323ce57f75effe515924a57e60e54c93d48a99a0492de40b6e911ca639895",
    "newLocalExitRoot": "0x0000000000000000000000000000000000000000000000000000000000000000",
    "batchHashData": "0x000c8bfee790ef4363b4ffac8888827df0beeee464ad76dc6064b45d1cda639c",
    "oldLocalExitRoot": "0x0000000000000000000000000000000000000000000000000000000000000000",
    "oldAccInputHash": "0x0000000000000000000000000000000000000000000000000000000000000000",
    "expectedNewAccInputHash": "0x707910da0cdc8639050d04c14301ae83bb28db51e3f40fdd453c95d28e6cb99e",
    "smtProofs": {
      "1": [
        "0x0000000000000000000000000000000000000000000000000000000000000000",
        "0xad3228b676f7d3cd4284a5443f17f1962b36e491b30a40b2405849e597ba5fb5",
        "0xb4c11951957c6f8f642c4af61cd6b24640fec6dc7fc607ee8206a99e92410d30",
        "0x21ddb9a356815c3fac1026b6dec5df3124afbadb485c9ba5a3e3398a04b7ba85",
        "0xe58769b32a1beaf1ea27375a44095a0d1fb664ce2dd358e7fcbfb78c26a19344",
        "0x0eb01ebfc9ed27500cd4dfc979272d1f0913cc9f66540d7e8005811109e1cf2d",
        "0x887c22bd8750d34016ac3c66b5ff102dacdd73f6b014e710b51e8022af9a1968",
        "0xffd70157e48063fc33c97a050f7f640233bf646cc98d9524c6b92bcf3ab56f83",
        "0x9867cc5f7f196b93bae1e27e6320742445d290f2263827498b54fec539f756af",
        "0xcefad4e508c098b9a7e1d8feb19955fb02ba9675585078710969d3440f5054e0",
        "0xf9dc3e7fe016e050eff260334f18a5d4fe391d82092319f5964f2e2eb7c1c3a5",
        "0xf8b13a49e282f609c317a833fb8d976d11517c571d1221a265d25af778ecf892",
        "0x3490c6ceeb450aecdc82e28293031d10c7d73bf85e57bf041a97360aa2c5d99c",
        "0xc1df82d9c4b87413eae2ef048f94b4d3554cea73d92b0f7af96e0271c691e2bb",
        "0x5c67add7c6caf302256adedf7ab114da0acfe870d449a3a489f781d659e8becc",
        "0xda7bce9f4e8618b6bd2f4132ce798cdc7a60e7e1460a7299e3c6342a579626d2",
        "0x2733e50f526ec2fa19a22b31e8ed50f23cd1fdf94c9154ed3a7609a2f1ff981f",
        "0xe1d3b5c807b281e4683cc6d6315cf95b9ade8641defcb32372f1c126e398ef7a",
        "0x5a2dce0a8a7f68bb74560f8f71837c2c2ebbcbf7fffb42ae1896f13f7c7479a0",
        "0xb46a28b6f55540f89444f63de0378e3d121be09e06cc9ded1c20e65876d36aa0",
        "0xc65e9645644786b620e2dd2ad648ddfcbf4a7e5b1a3a4ecfe7f64667a3f0b7e2",
        "0xf4418588ed35a2458cffeb39b93d26f18d2ab13bdce6aee58e7b99359ec2dfd9",
        "0x5a9c16dc00d6ef18b7933a6f8dc65ccb55667138776f7dea101070dc8796e377",
        "0x4df84f40ae0c8229d0d6069e5c8f39a7c299677a09d367fc7b05e3bc380ee652",
        "0xcdc72595f74c7b1043d0e1ffbab734648c838dfb0527d971b602bc216c9619ef",
        "0x0abf5ac974a1ed57f4050aa510dd9c74f508277b39d7973bb2dfccc5eeb0618d",
        "0xb8cd74046ff337f0a7bf2c8e03e10f642c1886798d71806ab1e888d9e5ee87d0",
        "0x838c5655cb21c6cb83313b5a631175dff4963772cce9108188b34ac87c81c41e",
        "0x662ee4dd2dd7b2bc707961b1e646c4047669dcb6584f0d8d770daf5d7e7deb2e",
        "0x388ab20e2573d171a88108e79d820e98f26c0b84aa8b2f4aa4968dbb818ea322",
        "0x93237c50ba75ee485f4c22adf2f741400bdf8d6a9cc7df7ecae576221665d735",
        "0x8448818bb4ae4562849e949e17ac16e0be16688e156b5cf15e098c627c0056a9"
      ]
    }
  }
]