[
  {
    "id": 0,
    "description": "Batch with two blocks with new blockInfoTree index",
    "chainID": 1000,
    "forkID": 9,
    "sequencerAddress": "0x617b3a3528F9cDd6630fd3301B9c8911F7Bf063D",
    "genesis": [
      {
        "address": "0x617b3a3528F9cDd6630fd3301B9c8911F7Bf063D",
        "pvtKey": "0x28b2b0318721be8c8339199172cd7cc8f5e273800a35616ec893083a4b32c02e",
        "balance": "100000000000000000000",
        "nonce": "0"
      },
      {
        "address": "0x4d5Cf5032B2a844602278b01199ED191A86c93ff",
        "pvtKey": "0x4d27a600dce8c29b7bd080e29a26972377dbb04d7a27d919adbb602bf13cfd23",
        "balance": "200000000000000000000",
        "nonce": "0"
      }
    ],
    "oldStateRoot": "0x4a9bfcb163ec91c5beb22e6aca41592433092c8c7821b01d37fd0de483f9265d",
    "forcedHashData": "0x0000000000000000000000000000000000000000000000000000000000000000",
    "previousL1InfoTreeRoot": "0xcc4105312818e9b7f692c9c807ea09699f4f290e5e31671a8e0c2c937f1c43f0",
    "previousL1InfoTreeIndex": 1,
    "txs": [
      {
        "type": 11,
        "deltaTimestamp": "1944498030",
        "l1InfoTree": {
          "globalExitRoot": "0x887c22bd8750d34016ac3c66b5ff102dacdd73f6b014e710b51e8022af9a1968",
          "blockHash": "0xc1df82d9c4b87413eae2ef048f94b4d3554cea73d92b0f7af96e0271c691e2bb",
          "minTimestamp": "42",
          "smtProofPreviousIndex": [
            "0x0000000000000000000000000000000000000000000000000000000000000000",
            "0xf20741cd2005f97f7438e62c7d6a5e4140ce47c240a3f32469ddabfd265ac118",
            "0xb4c11951957c6f8f642c4af61cd6b24640fec6dc7fc607ee8206a99e92410d30",
            "0x21ddb9a356815c3fac1026b6dec5df3124afbadb485c9ba5a3e3398a04b7ba85",
            "0xe58769b32a1beaf1ea27375a44095a0d1fb664ce2dd358e7fcbfb78c26a19344",
            "0x0eb01ebfc9ed27500cd4dfc979272d1f0913cc9f66540d7e8005811109e1cf2d",
            "0x887c22bd8750d34016ac3c66b5ff102dacdd73f6b014e710b51e8022af9a1968",
            "0xffd70157e48063fc33c97a050f7f640233bf646cc98d9524c6b92bcf3ab56f83",
            "0x9867cc5f7f196b93bae1e27e6320742445d290f2263827498b54fec539f756af",
            "0xcefad4e508c098b9a7e1d8feb19955fb02ba9675585078710969d3440f5054e0",
            "0xf9dc3e7fe016e050eff260334f18a5d4fe391d82092319f5964f2e2eb7c1c3a5",
            "0xf8b13a49e282f609c317a833fb8d976d11517c571d1221a265d25af778ecf892",
            "0x3490c6ceeb450aecdc82e28293031d10c7d73bf85e57bf041a97360aa2c5d99c",
            "0xc1df82d9c4b87413eae2ef048f94b4d3554cea73d92b0f7af96e0271c691e2bb",
            "0x5c67add7c6caf302256adedf7ab114da0acfe870d449a3a489f781d659e8becc",
            "0xda7bce9f4e8618b6bd2f4132ce798cdc7a60e7e1460a7299e3c6342a579626d2",
            "0x2733e50f526ec2fa19a22b31e8ed50f23cd1fdf94c9154ed3a7609a2f1ff981f",
            "0xe1d3b5c807b281e4683cc6d6315cf95b9ade8641defcb32372f1c126e398ef7a",
            "0x5a2dce0a8a7f68bb74560f8f71837c2c2ebbcbf7fffb42ae1896f13f7c7479a0",
            "0xb46a28b6f55540f89444f63de0378e3d121be09e06cc9ded1c20e65876d36aa0",
            "0xc65e9645644786b620e2dd2ad648ddfcbf4a7e5b1a3a4ecfe7f64667a3f0b7e2",
            "0xf4418588ed35a2458cffeb39b93d26f18d2ab13bdce6aee58e7b99359ec2dfd9",
            "0x5a9c16dc00d6ef18b7933a6f8dc65ccb55667138776f7dea101070dc8796e377",
            "0x4df84f40ae0c8229d0d6069e5c8f39a7c299677a09d367fc7b05e3bc380ee652",
            "0xcdc72595f74c7b1043d0e1ffbab734648c838dfb0527d971b602bc216c9619ef",
            "0x0abf5ac974a1ed57f4050aa510dd9c74f508277b39d7973bb2dfccc5eeb0618d",
            "0xb8cd74046ff337f0a7bf2c8e03e10f642c1886798d71806ab1e888d9e5ee87d0",
            "0x838c5655cb21c6cb83313b5a631175dff4963772cce9108188b34ac87c81c41e",
            "0x662ee4dd2dd7b2bc707961b1e646c4047669dcb6584f0d8d770daf5d7e7deb2e",
            "0x388ab20e2573d171a88108e79d820e98f26c0b84aa8b2f4aa4968dbb818ea322",
            "0x93237c50ba75ee485f4c22adf2f741400bdf8d6a9cc7df7ecae576221665d735",
            "0x8448818bb4ae4562849e949e17ac16e0be16688e156b5cf15e098c627c0056a9"
          ]
        },
        "indexL1InfoTree": 2,
        "reason": "",
        "customRawTx": "0x0b73e6af6e00000002"
      },
      {
        "id": 0,
        "from": "0x617b3a3528F9cDd6630fd3301B9c8911F7Bf063D",
        "to": "0x4d5Cf5032B2a844602278b01199ED191A86c93ff",
        "nonce": 0,
        "value": "100000000000000000",
        "gasLimit": 100000,
        "gasPrice": "1000000000",
        "chainId": 1000,
        "rawTx": "0xf86e80843b9aca00830186a0944d5cf5032b2a844602278b01199ed191a86c93ff88016345785d8a0000808207f3a01cee7e01dc62f69a12c3510c6d64de04ee6346d84b6a017f3e786c7d87f963e7a05d8cc91fa983cd6d9cf55fff80d73bd26cd333b0f098acc1e58edb1fd484ad73",
        "reason": "",
        "customRawTx": "0xee80843b9aca00830186a0944d5cf5032b2a844602278b01199ed191a86c93ff88016345785d8a0000808203e880801cee7e01dc62f69a12c3510c6d64de04ee6346d84b6a017f3e786c7d87f963e75d8cc91fa983cd6d9cf55fff80d73bd26cd333b0f098acc1e58edb1fd484ad731bff"
      },
      {
        "type": 11,
        "deltaTimestamp": "1",
        "l1InfoTree": {
          "globalExitRoot": "0x662ee4dd2dd7b2bc707961b1e646c4047669dcb6584f0d8d770daf5d7e7deb2e",
          "blockHash": "0xb8cd74046ff337f0a7bf2c8e03e10f642c1886798d71806ab1e888d9e5ee87d0",
          "minTimestamp": "42",
          "smtProofPreviousIndex": [
            "0xd32085410db8c1abc5817e1e4a514fcc8d6345263aa02c5d8132182ce64dc243",
            "0x5208554db01ad89751c5bfea8c72835636748e07c8214f8d7ea97a14953eac39",
            "0xb4c11951957c6f8f642c4af61cd6b24640fec6dc7fc607ee8206a99e92410d30",
            "0x21ddb9a356815c3fac1026b6dec5df3124afbadb485c9ba5a3e3398a04b7ba85",
            "0xe58769b32a1beaf1ea27375a44095a0d1fb664ce2dd358e7fcbfb78c26a19344",
            "0x0eb01ebfc9ed27500cd4dfc979272d1f0913cc9f66540d7e8005811109e1cf2d",
            "0x887c22bd8750d34016ac3c66b5ff102dacdd73f6b014e710b51e8022af9a1968",
            "0xffd70157e48063fc33c97a050f7f640233bf646cc98d9524c6b92bcf3ab56f83",
            "0x9867cc5f7f196b93bae1e27e6320742445d290f2263827498b54fec539f756af",
            "0xcefad4e508c098b9a7e1d8feb19955fb02ba9675585078710969d3440f5054e0",
            "0xf9dc3e7fe016e050eff260334f18a5d4fe391d82092319f5964f2e2eb7c1c3a5",
            "0xf8b13a49e282f609c317a833fb8d976d11517c571d1221a265d25af778ecf892",
            "0x3490c6ceeb450aecdc82e28293031d10c7d73bf85e57bf041a97360aa2c5d99c",
            "0xc1df82d9c4b87413eae2ef048f94b4d3554cea73d92b0f7af96e0271c691e2bb",
            "0x5c67add7c6caf302256adedf7ab114da0acfe870d449a3a489f781d659e8becc",
            "0xda7bce9f4e8618b6bd2f4132ce798cdc7a60e7e1460a7299e3c6342a579626d2",
            "0x2733e50f526ec2fa19a22b31e8ed50f23cd1fdf94c9154ed3a7609a2f1ff981f",
            "0xe1d3b5c807b281e4683cc6d6315cf95b9ade8641defcb32372f1c126e398ef7a",
            "0x5a2dce0a8a7f68bb74560f8f71837c2c2ebbcbf7fffb42ae1896f13f7c7479a0",
            "0xb46a28b6f55540f89444f63de0378e3d121be09e06cc9ded1c20e65876d36aa0",
            "0xc65e9645644786b620e2dd2ad648ddfcbf4a7e5b1a3a4ecfe7f64667a3f0b7e2",
            "0xf4418588ed35a2458cffeb39b93d26f18d2ab13bdce6aee58e7b99359ec2dfd9",
            "0x5a9c16dc00d6ef18b7933a6f8dc65ccb55667138776f7dea101070dc8796e377",
            "0x4df84f40ae0c8229d0d6069e5c8f39a7c299677a09d367fc7b05e3bc380ee652",
            "0xcdc72595f74c7b1043d0e1ffbab734648c838dfb0527d971b602bc216c9619ef",
            "0x0abf5ac974a1ed57f4050aa510dd9c74f508277b39d7973bb2dfccc5eeb0618d",
            "0xb8cd74046ff337f0a7bf2c8e03e10f642c1886798d71806ab1e888d9e5ee87d0",
            "0x838c5655cb21c6cb83313b5a631175dff4963772cce9108188b34ac87c81c41e",
            "0x662ee4dd2dd7b2bc707961b1e646c4047669dcb6584f0d8d770daf5d7e7deb2e",
            "0x388ab20e2573d171a88108e79d820e98f26c0b84aa8b2f4aa4968dbb818ea322",
            "0x93237c50ba75ee485f4c22adf2f741400bdf8d6a9cc7df7ecae576221665d735",
            "0x8448818bb4ae4562849e949e17ac16e0be16688e156b5cf15e098c627c0056a9"
          ]
        },
        "indexL1InfoTree": 3,
        "reason": "",
        "customRawTx": "0x0b0000000100000003"
      }
    ],
    "newStateRoot": "0x935ddf927120ae5dfdf4c5b2644d0b339bcabba930ea7de6a5c33bef5eaab57a",
    "expectedNewLeafs": {
      "0xa40d5f56745a118d0906a34e69aec8c0db1cb8fa": {
        "balance": "0",
        "nonce": "0",
        "storage": {
          "0x5d52b854d6a2cb74ae3b793a44fefe0c45e6a936aeae534cb1b861929ce4248f": "0xc1df82d9c4b87413eae2ef048f94b4d3554cea73d92b0f7af96e0271c691e2bb",
          "0x939740178131798839f1df1b64b374daa3b6ce460452ff9640b4957b4d7c1b4f": "0xb8cd74046ff337f0a7bf2c8e03e10f642c1886798d71806ab1e888d9e5ee87d0"
        },
        "hashBytecode": "0x0000000000000000000000000000000000000000000000000000000000000000",
        "bytecodeLength": 0
      },
      "0x617b3a3528f9cdd6630fd3301b9c8911f7bf063d": {
        "balance": "99900000000000000000",
        "nonce": "1",
        "storage": null,
        "hashBytecode": "0x0000000000000000000000000000000000000000000000000000000000000000",
        "bytecodeLength": 0
      },
      "0x4d5cf5032b2a844602278b01199ed191a86c93ff": {
        "balance": "200100000000000000000",
        "nonce": "0",
        "storage": null,
        "hashBytecode": "0x0000000000000000000000000000000000000000000000000000000000000000",
        "bytecodeLength": 0
      },
      "0x000000000000000000000000000000005ca1ab1e": {
        "balance": "0",
        "nonce": "0",
        "storage": {
          "0x0000000000000000000000000000000000000000000000000000000000000000": "0x02",
          "0x0000000000000000000000000000000000000000000000000000000000000002": "0x73e6af6f",
          "0xa6eef7e35abe7026729641147f7915573c7e97b47efa546f5f6e3230263bcb49": "0x4a9bfcb163ec91c5beb22e6aca41592433092c8c7821b01d37fd0de483f9265d",
          "0x0000000000000000000000000000000000000000000000000000000000000003": "0x1c6bced097be4b53362d531aad7ef0602ce26739abf922b4edc3585f37c374f4",
          "0xcc69885fda6bcc1a4ace058b4a62bf5e179ea78fd58a1ccd71c22cc9b688792f": "0x4eb485d21a5889fec5e9cbdff395825895f60d06771f524179e656401d9d7a6e"
        },
        "hashBytecode": "0x0000000000000000000000000000000000000000000000000000000000000000",
        "bytecodeLength": 0
      }
    },
    "batchL2Data": "0x0b73e6af6e00000002ee80843b9aca00830186a0944d5cf5032b2a844602278b01199ed191a86c93ff88016345785d8a0000808203e880801cee7e01dc62f69a12c3510c6d64de04ee6346d84b6a017f3e786c7d87f963e75d8cc91fa983cd6d9cf55fff80d73bd26cd333b0f098acc1e58edb1fd484ad731bff0b0000000100000003",
    "newLocalExitRoot": "0x0000000000000000000000000000000000000000000000000000000000000000",
    "batchHashData": "0xd701021881711af19cce8045e02a565da5f1c117e79b015ad8bf2fac06cb3a88",
    "oldLocalExitRoot": "0x0000000000000000000000000000000000000000000000000000000000000000",
    "oldBatchAccInputHash": "0x0000000000000000000000000000000000000000000000000000000000000000",
    "newBatchAccInputHash": "0xa21050d2dbc0f9ddc66a2b61e4d6fb7c70a78d2fb8ea0305e4bd9948e897dd83",
    "newL1InfoTreeRoot": "0xe6101bc39e53988f6af5f2269394b8a988b8560216eaba87ac8ef44d586d85bb",
    "newL1InfoTreeIndex": 3
  },
  {
    "id": 1,
    "description": "Batch with two blocks with new blockInfoTree index, previousL1InfoTreeIndex is zero",
    "chainID": 1000,
    "forkID": 9,
    "sequencerAddress": "0x617b3a3528F9cDd6630fd3301B9c8911F7Bf063D",
    "genesis": [
      {
        "address": "0x617b3a3528F9cDd6630fd3301B9c8911F7Bf063D",
        "pvtKey": "0x28b2b0318721be8c8339199172cd7cc8f5e273800a35616ec893083a4b32c02e",
        "balance": "100000000000000000000",
        "nonce": "0"
      },
      {
        "address": "0x4d5Cf5032B2a844602278b01199ED191A86c93ff",
        "pvtKey": "0x4d27a600dce8c29b7bd080e29a26972377dbb04d7a27d919adbb602bf13cfd23",
        "balance": "200000000000000000000",
        "nonce": "0"
      }
    ],
    "oldStateRoot": "0x4a9bfcb163ec91c5beb22e6aca41592433092c8c7821b01d37fd0de483f9265d",
    "forcedHashData": "0x0000000000000000000000000000000000000000000000000000000000000000",
    "previousL1InfoTreeRoot": "0x0000000000000000000000000000000000000000000000000000000000000000",
    "previousL1InfoTreeIndex": 0,
    "txs": [
      {
        "type": 11,
        "deltaTimestamp": "1944498030",
        "l1InfoTree": {
          "globalExitRoot": "0x887c22bd8750d34016ac3c66b5ff102dacdd73f6b014e710b51e8022af9a1968",
          "blockHash": "0xc1df82d9c4b87413eae2ef048f94b4d3554cea73d92b0f7af96e0271c691e2bb",
          "minTimestamp": "42",
          "historicRoot": "0x4c9ea822b94a2367aeba9ce15cc881edfda28e1763e377b54a141068b08002f4",
          "smtProofPreviousIndex": [
            "0x0000000000000000000000000000000000000000000000000000000000000000",
            "0xf20741cd2005f97f7438e62c7d6a5e4140ce47c240a3f32469ddabfd265ac118",
            "0xb4c11951957c6f8f642c4af61cd6b24640fec6dc7fc607ee8206a99e92410d30",
            "0x21ddb9a356815c3fac1026b6dec5df3124afbadb485c9ba5a3e3398a04b7ba85",
            "0xe58769b32a1beaf1ea27375a44095a0d1fb664ce2dd358e7fcbfb78c26a19344",
            "0x0eb01ebfc9ed27500cd4dfc979272d1f0913cc9f66540d7e8005811109e1cf2d",
            "0x887c22bd8750d34016ac3c66b5ff102dacdd73f6b014e710b51e8022af9a1968",
            "0xffd70157e48063fc33c97a050f7f640233bf646cc98d9524c6b92bcf3ab56f83",
            "0x9867cc5f7f196b93bae1e27e6320742445d290f2263827498b54fec539f756af",
            "0xcefad4e508c098b9a7e1d8feb19955fb02ba9675585078710969d3440f5054e0",
            "0xf9dc3e7fe016e050eff260334f18a5d4fe391d82092319f5964f2e2eb7c1c3a5",
            "0xf8b13a49e282f609c317a833fb8d976d11517c571d1221a265d25af778ecf892",
            "0x3490c6ceeb450aecdc82e28293031d10c7d73bf85e57bf041a97360aa2c5d99c",
            "0xc1df82d9c4b87413eae2ef048f94b4d3554cea73d92b0f7af96e0271c691e2bb",
            "0x5c67add7c6caf302256adedf7ab114da0acfe870d449a3a489f781d659e8becc",
            "0xda7bce9f4e8618b6bd2f4132ce798cdc7a60e7e1460a7299e3c6342a579626d2",
            "0x2733e50f526ec2fa19a22b31e8ed50f23cd1fdf94c9154ed3a7609a2f1ff981f",
            "0xe1d3b5c807b281e4683cc6d6315cf95b9ade8641defcb32372f1c126e398ef7a",
            "0x5a2dce0a8a7f68bb74560f8f71837c2c2ebbcbf7fffb42ae1896f13f7c7479a0",
            "0xb46a28b6f55540f89444f63de0378e3d121be09e06cc9ded1c20e65876d36aa0",
            "0xc65e9645644786b620e2dd2ad648ddfcbf4a7e5b1a3a4ecfe7f64667a3f0b7e2",
            "0xf4418588ed35a2458cffeb39b93d26f18d2ab13bdce6aee58e7b99359ec2dfd9",
            "0x5a9c16dc00d6ef18b7933a6f8dc65ccb55667138776f7dea101070dc8796e377",
            "0x4df84f40ae0c8229d0d6069e5c8f39a7c299677a09d367fc7b05e3bc380ee652",
            "0xcdc72595f74c7b1043d0e1ffbab734648c838dfb0527d971b602bc216c9619ef",
            "0x0abf5ac974a1ed57f4050aa510dd9c74f508277b39d7973bb2dfccc5eeb0618d",
            "0xb8cd74046ff337f0a7bf2c8e03e10f642c1886798d71806ab1e888d9e5ee87d0",
            "0x838c5655cb21c6cb83313b5a631175dff4963772cce9108188b34ac87c81c41e",
            "0x662ee4dd2dd7b2bc707961b1e646c4047669dcb6584f0d8d770daf5d7e7deb2e",
            "0x388ab20e2573d171a88108e79d820e98f26c0b84aa8b2f4aa4968dbb818ea322",
            "0x93237c50ba75ee485f4c22adf2f741400bdf8d6a9cc7df7ecae576221665d735",
            "0x8448818bb4ae4562849e949e17ac16e0be16688e156b5cf15e098c627c0056a9"
          ]
        },
        "indexL1InfoTree": 2,
        "reason": "",
        "customRawTx": "0x0b73e6af6e00000002"
      },
      {
        "id": 0,
        "from": "0x617b3a3528F9cDd6630fd3301B9c8911F7Bf063D",
        "to": "0x4d5Cf5032B2a844602278b01199ED191A86c93ff",
        "nonce": 0,
        "value": "100000000000000000",
        "gasLimit": 100000,
        "gasPrice": "1000000000",
        "chainId": 1000,
        "rawTx": "0xf86e80843b9aca00830186a0944d5cf5032b2a844602278b01199ed191a86c93ff88016345785d8a0000808207f3a01cee7e01dc62f69a12c3510c6d64de04ee6346d84b6a017f3e786c7d87f963e7a05d8cc91fa983cd6d9cf55fff80d73bd26cd333b0f098acc1e58edb1fd484ad73",
        "reason": "",
        "customRawTx": "0xee80843b9aca00830186a0944d5cf5032b2a844602278b01199ed191a86c93ff88016345785d8a0000808203e880801cee7e01dc62f69a12c3510c6d64de04ee6346d84b6a017f3e786c7d87f963e75d8cc91fa983cd6d9cf55fff80d73bd26cd333b0f098acc1e58edb1fd484ad731bff"
      },
      {
        "type": 11,
        "deltaTimestamp": "1",
        "l1InfoTree": {
          "globalExitRoot": "0x662ee4dd2dd7b2bc707961b1e646c4047669dcb6584f0d8d770daf5d7e7deb2e",
          "blockHash": "0xb8cd74046ff337f0a7bf2c8e03e10f642c1886798d71806ab1e888d9e5ee87d0",
          "minTimestamp": "42",
          "smtProofPreviousIndex": [
            "0xd32085410db8c1abc5817e1e4a514fcc8d6345263aa02c5d8132182ce64dc243",
            "0x5208554db01ad89751c5bfea8c72835636748e07c8214f8d7ea97a14953eac39",
            "0xb4c11951957c6f8f642c4af61cd6b24640fec6dc7fc607ee8206a99e92410d30",
            "0x21ddb9a356815c3fac1026b6dec5df3124afbadb485c9ba5a3e3398a04b7ba85",
            "0xe58769b32a1beaf1ea27375a44095a0d1fb664ce2dd358e7fcbfb78c26a19344",
            "0x0eb01ebfc9ed27500cd4dfc979272d1f0913cc9f66540d7e8005811109e1cf2d",
            "0x887c22bd8750d34016ac3c66b5ff102dacdd73f6b014e710b51e8022af9a1968",
            "0xffd70157e48063fc33c97a050f7f640233bf646cc98d9524c6b92bcf3ab56f83",
            "0x9867cc5f7f196b93bae1e27e6320742445d290f2263827498b54fec539f756af",
            "0xcefad4e508c098b9a7e1d8feb19955fb02ba9675585078710969d3440f5054e0",
            "0xf9dc3e7fe016e050eff260334f18a5d4fe391d82092319f5964f2e2eb7c1c3a5",
            "0xf8b13a49e282f609c317a833fb8d976d11517c571d1221a265d25af778ecf892",
            "0x3490c6ceeb450aecdc82e28293031d10c7d73bf85e57bf041a97360aa2c5d99c",
            "0xc1df82d9c4b87413eae2ef048f94b4d3554cea73d92b0f7af96e0271c691e2bb",
            "0x5c67add7c6caf302256adedf7ab114da0acfe870d449a3a489f781d659e8becc",
            "0xda7bce9f4e8618b6bd2f4132ce798cdc7a60e7e1460a7299e3c6342a579626d2",
            "0x2733e50f526ec2fa19a22b31e8ed50f23cd1fdf94c9154ed3a7609a2f1ff981f",
            "0xe1d3b5c807b281e4683cc6d6315cf95b9ade8641defcb32372f1c126e398ef7a",
            "0x5a2dce0a8a7f68bb74560f8f71837c2c2ebbcbf7fffb42ae1896f13f7c7479a0",
            "0xb46a28b6f55540f89444f63de0378e3d121be09e06cc9ded1c20e65876d36aa0",
            "0xc65e9645644786b620e2dd2ad648ddfcbf4a7e5b1a3a4ecfe7f64667a3f0b7e2",
            "0xf4418588ed35a2458cffeb39b93d26f18d2ab13bdce6aee58e7b99359ec2dfd9",
            "0x5a9c16dc00d6ef18b7933a6f8dc65ccb55667138776f7dea101070dc8796e377",
            "0x4df84f40ae0c8229d0d6069e5c8f39a7c299677a09d367fc7b05e3bc380ee652",
            "0xcdc72595f74c7b1043d0e1ffbab734648c838dfb0527d971b602bc216c9619ef",
            "0x0abf5ac974a1ed57f4050aa510dd9c74f508277b39d7973bb2dfccc5eeb0618d",
            "0xb8cd74046ff337f0a7bf2c8e03e10f642c1886798d71806ab1e888d9e5ee87d0",
            "0x838c5655cb21c6cb83313b5a631175dff4963772cce9108188b34ac87c81c41e",
            "0x662ee4dd2dd7b2bc707961b1e646c4047669dcb6584f0d8d770daf5d7e7deb2e",
            "0x388ab20e2573d171a88108e79d820e98f26c0b84aa8b2f4aa4968dbb818ea322",
            "0x93237c50ba75ee485f4c22adf2f741400bdf8d6a9cc7df7ecae576221665d735",
            "0x8448818bb4ae4562849e949e17ac16e0be16688e156b5cf15e098c627c0056a9"
          ]
        },
        "indexL1InfoTree": 3,
        "reason": "",
        "customRawTx": "0x0b0000000100000003"
      }
    ],
    "newStateRoot": "0x935ddf927120ae5dfdf4c5b2644d0b339bcabba930ea7de6a5c33bef5eaab57a",
    "expectedNewLeafs": {
      "0xa40d5f56745a118d0906a34e69aec8c0db1cb8fa": {
        "balance": "0",
        "nonce": "0",
        "storage": {
          "0x5d52b854d6a2cb74ae3b793a44fefe0c45e6a936aeae534cb1b861929ce4248f": "0xc1df82d9c4b87413eae2ef048f94b4d3554cea73d92b0f7af96e0271c691e2bb",
          "0x939740178131798839f1df1b64b374daa3b6ce460452ff9640b4957b4d7c1b4f": "0xb8cd74046ff337f0a7bf2c8e03e10f642c1886798d71806ab1e888d9e5ee87d0"
        },
        "hashBytecode": "0x0000000000000000000000000000000000000000000000000000000000000000",
        "bytecodeLength": 0
      },
      "0x617b3a3528f9cdd6630fd3301b9c8911f7bf063d": {
        "balance": "99900000000000000000",
        "nonce": "1",
        "storage": null,
        "hashBytecode": "0x0000000000000000000000000000000000000000000000000000000000000000",
        "bytecodeLength": 0
      },
      "0x4d5cf5032b2a844602278b01199ed191a86c93ff": {
        "balance": "200100000000000000000",
        "nonce": "0",
        "storage": null,
        "hashBytecode": "0x0000000000000000000000000000000000000000000000000000000000000000",
        "bytecodeLength": 0
      },
      "0x000000000000000000000000000000005ca1ab1e": {
        "balance": "0",
        "nonce": "0",
        "storage": {
          "0x0000000000000000000000000000000000000000000000000000000000000000": "0x02",
          "0x0000000000000000000000000000000000000000000000000000000000000002": "0x73e6af6f",
          "0xa6eef7e35abe7026729641147f7915573c7e97b47efa546f5f6e3230263bcb49": "0x4a9bfcb163ec91c5beb22e6aca41592433092c8c7821b01d37fd0de483f9265d",
          "0x0000000000000000000000000000000000000000000000000000000000000003": "0x1c6bced097be4b53362d531aad7ef0602ce26739abf922b4edc3585f37c374f4",
          "0xcc69885fda6bcc1a4ace058b4a62bf5e179ea78fd58a1ccd71c22cc9b688792f": "0x4eb485d21a5889fec5e9cbdff395825895f60d06771f524179e656401d9d7a6e"
        },
        "hashBytecode": "0x0000000000000000000000000000000000000000000000000000000000000000",
        "bytecodeLength": 0
      }
    },
    "batchL2Data": "0x0b73e6af6e00000002ee80843b9aca00830186a0944d5cf5032b2a844602278b01199ed191a86c93ff88016345785d8a0000808203e880801cee7e01dc62f69a12c3510c6d64de04ee6346d84b6a017f3e786c7d87f963e75d8cc91fa983cd6d9cf55fff80d73bd26cd333b0f098acc1e58edb1fd484ad731bff0b0000000100000003",
    "newLocalExitRoot": "0x0000000000000000000000000000000000000000000000000000000000000000",
    "batchHashData": "0xd701021881711af19cce8045e02a565da5f1c117e79b015ad8bf2fac06cb3a88",
    "oldLocalExitRoot": "0x0000000000000000000000000000000000000000000000000000000000000000",
    "oldBatchAccInputHash": "0x0000000000000000000000000000000000000000000000000000000000000000",
    "newBatchAccInputHash": "0xa21050d2dbc0f9ddc66a2b61e4d6fb7c70a78d2fb8ea0305e4bd9948e897dd83",
    "newL1InfoTreeRoot": "0xc1092bc3b2def186d9b4c80b20093c05352ee2b8f248dc80b569cef4a4aac44e",
    "newL1InfoTreeIndex": 3
  },
  {
    "id": 2,
    "description": "Forced batch: 2 accounts and 1 valid transaction",
    "chainID": 1000,
    "forkID": 9,
    "sequencerAddress": "0x617b3a3528F9cDd6630fd3301B9c8911F7Bf063D",
    "genesis": [
      {
        "address": "0x617b3a3528F9cDd6630fd3301B9c8911F7Bf063D",
        "pvtKey": "0x28b2b0318721be8c8339199172cd7cc8f5e273800a35616ec893083a4b32c02e",
        "balance": "100000000000000000000",
        "nonce": "0"
      },
      {
        "address": "0x4d5Cf5032B2a844602278b01199ED191A86c93ff",
        "pvtKey": "0x4d27a600dce8c29b7bd080e29a26972377dbb04d7a27d919adbb602bf13cfd23",
        "balance": "200000000000000000000",
        "nonce": "0"
      }
    ],
    "oldStateRoot": "0x4a9bfcb163ec91c5beb22e6aca41592433092c8c7821b01d37fd0de483f9265d",
    "forcedData": {
      "globalExitRoot": "0x16994edfddddb9480667b64174fc00d3b6da7290d37b8db3a16571b4ddf0789f",
      "blockHashL1": "0xd4e56740f876aef8c010b86a40d5f56745a118d0906a34e69aec8c0db1cb8fa3",
      "minTimestamp": "1944498031"
    },
    "forcedHashData": "0x12f51e0ff1959834606004bfb2a833bf991274f363303da5825f822a7aedd83d",
    "previousL1InfoTreeRoot": "0x0000000000000000000000000000000000000000000000000000000000000000",
    "previousL1InfoTreeIndex": 0,
    "txs": [
      {
        "id": 0,
        "from": "0x617b3a3528F9cDd6630fd3301B9c8911F7Bf063D",
        "to": "0x4d5Cf5032B2a844602278b01199ED191A86c93ff",
        "nonce": 0,
        "value": "100000000000000000",
        "gasLimit": 100000,
        "gasPrice": "1000000000",
        "chainId": 1000,
        "rawTx": "0xf86e80843b9aca00830186a0944d5cf5032b2a844602278b01199ed191a86c93ff88016345785d8a0000808207f3a01cee7e01dc62f69a12c3510c6d64de04ee6346d84b6a017f3e786c7d87f963e7a05d8cc91fa983cd6d9cf55fff80d73bd26cd333b0f098acc1e58edb1fd484ad73",
        "reason": "",
        "customRawTx": "0xee80843b9aca00830186a0944d5cf5032b2a844602278b01199ed191a86c93ff88016345785d8a0000808203e880801cee7e01dc62f69a12c3510c6d64de04ee6346d84b6a017f3e786c7d87f963e75d8cc91fa983cd6d9cf55fff80d73bd26cd333b0f098acc1e58edb1fd484ad731bff"
      }
    ],
    "newStateRoot": "0x2d013815bca455d09d961a83c707489a1ac2578dcdc2d0a49f8d03282315606e",
    "expectedNewLeafs": {
      "0xa40d5f56745a118d0906a34e69aec8c0db1cb8fa": {
        "balance": "0",
        "nonce": "0",
        "storage": {
          "0xe4432181e398ba2075bafb32c15cbb06d123151b69167397076f8e260276510b": "0xd4e56740f876aef8c010b86a40d5f56745a118d0906a34e69aec8c0db1cb8fa3"
        },
        "hashBytecode": "0x0000000000000000000000000000000000000000000000000000000000000000",
        "bytecodeLength": 0
      },
      "0x617b3a3528f9cdd6630fd3301b9c8911f7bf063d": {
        "balance": "99900000000000000000",
        "nonce": "1",
        "storage": null,
        "hashBytecode": "0x0000000000000000000000000000000000000000000000000000000000000000",
        "bytecodeLength": 0
      },
      "0x4d5cf5032b2a844602278b01199ed191a86c93ff": {
        "balance": "200100000000000000000",
        "nonce": "0",
        "storage": null,
        "hashBytecode": "0x0000000000000000000000000000000000000000000000000000000000000000",
        "bytecodeLength": 0
      },
      "0x000000000000000000000000000000005ca1ab1e": {
        "balance": "0",
        "nonce": "0",
        "storage": {
          "0x0000000000000000000000000000000000000000000000000000000000000000": "0x01",
          "0x0000000000000000000000000000000000000000000000000000000000000002": "0x73e6af6f",
          "0xa6eef7e35abe7026729641147f7915573c7e97b47efa546f5f6e3230263bcb49": "0x4a9bfcb163ec91c5beb22e6aca41592433092c8c7821b01d37fd0de483f9265d",
          "0x0000000000000000000000000000000000000000000000000000000000000003": "0xd953aedbe3a85747330193dcad9f09afee040f2983887d8aed35da83925277d5"
        },
        "hashBytecode": "0x0000000000000000000000000000000000000000000000000000000000000000",
        "bytecodeLength": 0
      }
    },
    "batchL2Data": "0xee80843b9aca00830186a0944d5cf5032b2a844602278b01199ed191a86c93ff88016345785d8a0000808203e880801cee7e01dc62f69a12c3510c6d64de04ee6346d84b6a017f3e786c7d87f963e75d8cc91fa983cd6d9cf55fff80d73bd26cd333b0f098acc1e58edb1fd484ad731bff",
    "newLocalExitRoot": "0x0000000000000000000000000000000000000000000000000000000000000000",
    "batchHashData": "0x8b8b9af0fafef950a10fb0ebc624afa77e8038b7a8fa0e879b14fbfe96971ba4",
    "oldLocalExitRoot": "0x0000000000000000000000000000000000000000000000000000000000000000",
    "oldBatchAccInputHash": "0x0000000000000000000000000000000000000000000000000000000000000000",
    "newBatchAccInputHash": "0xd0fe57f8649fd013b8c9ef279272003f2ed3eee7a0380a6c0ae0140100c0570c",
    "newL1InfoTreeRoot": "0x0000000000000000000000000000000000000000000000000000000000000000",
    "newL1InfoTreeIndex": 0
  },
  {
    "id": 3,
    "description": "Forced batch: starts with changeL2Block --> invalid batch",
    "chainID": 1000,
    "forkID": 9,
    "sequencerAddress": "0x617b3a3528F9cDd6630fd3301B9c8911F7Bf063D",
    "genesis": [
      {
        "address": "0x617b3a3528F9cDd6630fd3301B9c8911F7Bf063D",
        "pvtKey": "0x28b2b0318721be8c8339199172cd7cc8f5e273800a35616ec893083a4b32c02e",
        "balance": "100000000000000000000",
        "nonce": "0"
      },
      {
        "address": "0x4d5Cf5032B2a844602278b01199ED191A86c93ff",
        "pvtKey": "0x4d27a600dce8c29b7bd080e29a26972377dbb04d7a27d919adbb602bf13cfd23",
        "balance": "200000000000000000000",
        "nonce": "0"
      }
    ],
    "oldStateRoot": "0x4a9bfcb163ec91c5beb22e6aca41592433092c8c7821b01d37fd0de483f9265d",
    "forcedData": {
      "globalExitRoot": "0x16994edfddddb9480667b64174fc00d3b6da7290d37b8db3a16571b4ddf0789f",
      "blockHashL1": "0xd4e56740f876aef8c010b86a40d5f56745a118d0906a34e69aec8c0db1cb8fa3",
      "minTimestamp": "1944498031"
    },
    "forcedHashData": "0x12f51e0ff1959834606004bfb2a833bf991274f363303da5825f822a7aedd83d",
    "previousL1InfoTreeRoot": "0x0000000000000000000000000000000000000000000000000000000000000000",
    "previousL1InfoTreeIndex": 0,
    "txs": [
      {
        "type": 11,
        "deltaTimestamp": "1944498030",
        "l1InfoTree": {
          "globalExitRoot": "0x16994edfddddb9480667b64174fc00d3b6da7290d37b8db3a16571b4ddf0789f",
          "blockHash": "0x24a5871d68723340d9eadc674aa8ad75f3e33b61d5a9db7db92af856a19270bb",
          "minTimestamp": "42",
          "smtProofPreviousIndex": [
            "0xcc4105312818e9b7f692c9c807ea09699f4f290e5e31671a8e0c2c937f1c43f0",
            "0xece5fbe7739fd48f4931ce884ee9cf5f373d0a6c63b80ce836bc0ae674e78540",
            "0xb4c11951957c6f8f642c4af61cd6b24640fec6dc7fc607ee8206a99e92410d30",
            "0x21ddb9a356815c3fac1026b6dec5df3124afbadb485c9ba5a3e3398a04b7ba85",
            "0xe58769b32a1beaf1ea27375a44095a0d1fb664ce2dd358e7fcbfb78c26a19344",
            "0x0eb01ebfc9ed27500cd4dfc979272d1f0913cc9f66540d7e8005811109e1cf2d",
            "0x887c22bd8750d34016ac3c66b5ff102dacdd73f6b014e710b51e8022af9a1968",
            "0xffd70157e48063fc33c97a050f7f640233bf646cc98d9524c6b92bcf3ab56f83",
            "0x9867cc5f7f196b93bae1e27e6320742445d290f2263827498b54fec539f756af",
            "0xcefad4e508c098b9a7e1d8feb19955fb02ba9675585078710969d3440f5054e0",
            "0xf9dc3e7fe016e050eff260334f18a5d4fe391d82092319f5964f2e2eb7c1c3a5",
            "0xf8b13a49e282f609c317a833fb8d976d11517c571d1221a265d25af778ecf892",
            "0x3490c6ceeb450aecdc82e28293031d10c7d73bf85e57bf041a97360aa2c5d99c",
            "0xc1df82d9c4b87413eae2ef048f94b4d3554cea73d92b0f7af96e0271c691e2bb",
            "0x5c67add7c6caf302256adedf7ab114da0acfe870d449a3a489f781d659e8becc",
            "0xda7bce9f4e8618b6bd2f4132ce798cdc7a60e7e1460a7299e3c6342a579626d2",
            "0x2733e50f526ec2fa19a22b31e8ed50f23cd1fdf94c9154ed3a7609a2f1ff981f",
            "0xe1d3b5c807b281e4683cc6d6315cf95b9ade8641defcb32372f1c126e398ef7a",
            "0x5a2dce0a8a7f68bb74560f8f71837c2c2ebbcbf7fffb42ae1896f13f7c7479a0",
            "0xb46a28b6f55540f89444f63de0378e3d121be09e06cc9ded1c20e65876d36aa0",
            "0xc65e9645644786b620e2dd2ad648ddfcbf4a7e5b1a3a4ecfe7f64667a3f0b7e2",
            "0xf4418588ed35a2458cffeb39b93d26f18d2ab13bdce6aee58e7b99359ec2dfd9",
            "0x5a9c16dc00d6ef18b7933a6f8dc65ccb55667138776f7dea101070dc8796e377",
            "0x4df84f40ae0c8229d0d6069e5c8f39a7c299677a09d367fc7b05e3bc380ee652",
            "0xcdc72595f74c7b1043d0e1ffbab734648c838dfb0527d971b602bc216c9619ef",
            "0x0abf5ac974a1ed57f4050aa510dd9c74f508277b39d7973bb2dfccc5eeb0618d",
            "0xb8cd74046ff337f0a7bf2c8e03e10f642c1886798d71806ab1e888d9e5ee87d0",
            "0x838c5655cb21c6cb83313b5a631175dff4963772cce9108188b34ac87c81c41e",
            "0x662ee4dd2dd7b2bc707961b1e646c4047669dcb6584f0d8d770daf5d7e7deb2e",
            "0x388ab20e2573d171a88108e79d820e98f26c0b84aa8b2f4aa4968dbb818ea322",
            "0x93237c50ba75ee485f4c22adf2f741400bdf8d6a9cc7df7ecae576221665d735",
            "0x8448818bb4ae4562849e949e17ac16e0be16688e156b5cf15e098c627c0056a9"
          ]
        },
        "indexL1InfoTree": 1,
        "reason": "",
        "customRawTx": "0x0b73e6af6e00000001"
      },
      {
        "id": 0,
        "from": "0x617b3a3528F9cDd6630fd3301B9c8911F7Bf063D",
        "to": "0x4d5Cf5032B2a844602278b01199ED191A86c93ff",
        "nonce": 0,
        "value": "100000000000000000",
        "gasLimit": 100000,
        "gasPrice": "1000000000",
        "chainId": 1000,
        "rawTx": "0xf86e80843b9aca00830186a0944d5cf5032b2a844602278b01199ed191a86c93ff88016345785d8a0000808207f3a01cee7e01dc62f69a12c3510c6d64de04ee6346d84b6a017f3e786c7d87f963e7a05d8cc91fa983cd6d9cf55fff80d73bd26cd333b0f098acc1e58edb1fd484ad73",
        "reason": "",
        "customRawTx": "0xee80843b9aca00830186a0944d5cf5032b2a844602278b01199ed191a86c93ff88016345785d8a0000808203e880801cee7e01dc62f69a12c3510c6d64de04ee6346d84b6a017f3e786c7d87f963e75d8cc91fa983cd6d9cf55fff80d73bd26cd333b0f098acc1e58edb1fd484ad731bff"
      },
      {
        "type": 11,
        "deltaTimestamp": "1",
        "l1InfoTree": {
          "globalExitRoot": "0x887c22bd8750d34016ac3c66b5ff102dacdd73f6b014e710b51e8022af9a1968",
          "blockHash": "0xc1df82d9c4b87413eae2ef048f94b4d3554cea73d92b0f7af96e0271c691e2bb",
          "minTimestamp": "4242",
          "smtProofPreviousIndex": [
            "0x0000000000000000000000000000000000000000000000000000000000000000",
            "0xf20741cd2005f97f7438e62c7d6a5e4140ce47c240a3f32469ddabfd265ac118",
            "0xb4c11951957c6f8f642c4af61cd6b24640fec6dc7fc607ee8206a99e92410d30",
            "0x21ddb9a356815c3fac1026b6dec5df3124afbadb485c9ba5a3e3398a04b7ba85",
            "0xe58769b32a1beaf1ea27375a44095a0d1fb664ce2dd358e7fcbfb78c26a19344",
            "0x0eb01ebfc9ed27500cd4dfc979272d1f0913cc9f66540d7e8005811109e1cf2d",
            "0x887c22bd8750d34016ac3c66b5ff102dacdd73f6b014e710b51e8022af9a1968",
            "0xffd70157e48063fc33c97a050f7f640233bf646cc98d9524c6b92bcf3ab56f83",
            "0x9867cc5f7f196b93bae1e27e6320742445d290f2263827498b54fec539f756af",
            "0xcefad4e508c098b9a7e1d8feb19955fb02ba9675585078710969d3440f5054e0",
            "0xf9dc3e7fe016e050eff260334f18a5d4fe391d82092319f5964f2e2eb7c1c3a5",
            "0xf8b13a49e282f609c317a833fb8d976d11517c571d1221a265d25af778ecf892",
            "0x3490c6ceeb450aecdc82e28293031d10c7d73bf85e57bf041a97360aa2c5d99c",
            "0xc1df82d9c4b87413eae2ef048f94b4d3554cea73d92b0f7af96e0271c691e2bb",
            "0x5c67add7c6caf302256adedf7ab114da0acfe870d449a3a489f781d659e8becc",
            "0xda7bce9f4e8618b6bd2f4132ce798cdc7a60e7e1460a7299e3c6342a579626d2",
            "0x2733e50f526ec2fa19a22b31e8ed50f23cd1fdf94c9154ed3a7609a2f1ff981f",
            "0xe1d3b5c807b281e4683cc6d6315cf95b9ade8641defcb32372f1c126e398ef7a",
            "0x5a2dce0a8a7f68bb74560f8f71837c2c2ebbcbf7fffb42ae1896f13f7c7479a0",
            "0xb46a28b6f55540f89444f63de0378e3d121be09e06cc9ded1c20e65876d36aa0",
            "0xc65e9645644786b620e2dd2ad648ddfcbf4a7e5b1a3a4ecfe7f64667a3f0b7e2",
            "0xf4418588ed35a2458cffeb39b93d26f18d2ab13bdce6aee58e7b99359ec2dfd9",
            "0x5a9c16dc00d6ef18b7933a6f8dc65ccb55667138776f7dea101070dc8796e377",
            "0x4df84f40ae0c8229d0d6069e5c8f39a7c299677a09d367fc7b05e3bc380ee652",
            "0xcdc72595f74c7b1043d0e1ffbab734648c838dfb0527d971b602bc216c9619ef",
            "0x0abf5ac974a1ed57f4050aa510dd9c74f508277b39d7973bb2dfccc5eeb0618d",
            "0xb8cd74046ff337f0a7bf2c8e03e10f642c1886798d71806ab1e888d9e5ee87d0",
            "0x838c5655cb21c6cb83313b5a631175dff4963772cce9108188b34ac87c81c41e",
            "0x662ee4dd2dd7b2bc707961b1e646c4047669dcb6584f0d8d770daf5d7e7deb2e",
            "0x388ab20e2573d171a88108e79d820e98f26c0b84aa8b2f4aa4968dbb818ea322",
            "0x93237c50ba75ee485f4c22adf2f741400bdf8d6a9cc7df7ecae576221665d735",
            "0x8448818bb4ae4562849e949e17ac16e0be16688e156b5cf15e098c627c0056a9"
          ]
        },
        "indexL1InfoTree": 2,
        "reason": "",
        "customRawTx": "0x0b0000000100000002"
      }
    ],
    "newStateRoot": "0x4a9bfcb163ec91c5beb22e6aca41592433092c8c7821b01d37fd0de483f9265d",
    "expectedNewLeafs": {
      "0x617b3a3528F9cDd6630fd3301B9c8911F7Bf063D": {
        "pvtKey": "0x28b2b0318721be8c8339199172cd7cc8f5e273800a35616ec893083a4b32c02e",
        "balance": "100000000000000000000",
        "nonce": "0"
      },
      "0x4d5Cf5032B2a844602278b01199ED191A86c93ff": {
        "pvtKey": "0x4d27a600dce8c29b7bd080e29a26972377dbb04d7a27d919adbb602bf13cfd23",
        "balance": "200000000000000000000",
        "nonce": "0"
      }
    },
    "batchL2Data": "0x0b73e6af6e00000001ee80843b9aca00830186a0944d5cf5032b2a844602278b01199ed191a86c93ff88016345785d8a0000808203e880801cee7e01dc62f69a12c3510c6d64de04ee6346d84b6a017f3e786c7d87f963e75d8cc91fa983cd6d9cf55fff80d73bd26cd333b0f098acc1e58edb1fd484ad731bff0b0000000100000002",
    "newLocalExitRoot": "0x0000000000000000000000000000000000000000000000000000000000000000",
    "batchHashData": "0x32b53865e6e076378b62b6c02beabba42ba63289796dda21df27bb766439ec2b",
    "oldLocalExitRoot": "0x0000000000000000000000000000000000000000000000000000000000000000",
    "oldBatchAccInputHash": "0x0000000000000000000000000000000000000000000000000000000000000000",
    "newBatchAccInputHash": "0x5b24bd4eb18a304f1ec227df8757e3a9a511bd4f913dad895ce53f91f3762d10",
    "newL1InfoTreeRoot": "0x0000000000000000000000000000000000000000000000000000000000000000",
    "newL1InfoTreeIndex": 0
  }
]